{
	"smart_contracts/Stocks.sol": {
		"Stocks": {
			"abi": [
				{
					"inputs": [
						{
							"internalType": "uint32",
							"name": "_stocksCount",
							"type": "uint32"
						}
					],
					"stateMutability": "nonpayable",
					"type": "constructor"
				},
				{
					"inputs": [
						{
							"internalType": "address payable",
							"name": "sellerStockholder",
							"type": "address"
						},
						{
							"internalType": "uint32",
							"name": "buyCount",
							"type": "uint32"
						}
					],
					"name": "buyStocks",
					"outputs": [],
					"stateMutability": "payable",
					"type": "function"
				},
				{
					"inputs": [
						{
							"internalType": "uint256",
							"name": "sellPrice",
							"type": "uint256"
						},
						{
							"internalType": "uint32",
							"name": "sellCount",
							"type": "uint32"
						}
					],
					"name": "companySellOrder",
					"outputs": [],
					"stateMutability": "nonpayable",
					"type": "function"
				},
				{
					"inputs": [],
					"name": "deposit",
					"outputs": [],
					"stateMutability": "payable",
					"type": "function"
				},
				{
					"inputs": [],
					"name": "director",
					"outputs": [
						{
							"internalType": "address",
							"name": "",
							"type": "address"
						}
					],
					"stateMutability": "view",
					"type": "function"
				},
				{
					"inputs": [
						{
							"internalType": "uint256",
							"name": "",
							"type": "uint256"
						}
					],
					"name": "dividendProposals",
					"outputs": [
						{
							"internalType": "uint32",
							"name": "",
							"type": "uint32"
						}
					],
					"stateMutability": "view",
					"type": "function"
				},
				{
					"inputs": [
						{
							"internalType": "uint256",
							"name": "dividendSize",
							"type": "uint256"
						}
					],
					"name": "makeDividendsProposal",
					"outputs": [],
					"stateMutability": "nonpayable",
					"type": "function"
				},
				{
					"inputs": [],
					"name": "minTimeToMakeProposals",
					"outputs": [
						{
							"internalType": "uint256",
							"name": "",
							"type": "uint256"
						}
					],
					"stateMutability": "view",
					"type": "function"
				},
				{
					"inputs": [],
					"name": "payDividends",
					"outputs": [],
					"stateMutability": "nonpayable",
					"type": "function"
				},
				{
					"inputs": [
						{
							"internalType": "uint256",
							"name": "sellPrice",
							"type": "uint256"
						},
						{
							"internalType": "uint32",
							"name": "sellCount",
							"type": "uint32"
						}
					],
					"name": "sellOrder",
					"outputs": [],
					"stateMutability": "nonpayable",
					"type": "function"
				},
				{
					"inputs": [
						{
							"internalType": "address",
							"name": "",
							"type": "address"
						}
					],
					"name": "stockholders",
					"outputs": [
						{
							"internalType": "uint32",
							"name": "stocksCount",
							"type": "uint32"
						},
						{
							"internalType": "uint256",
							"name": "sellPrice",
							"type": "uint256"
						},
						{
							"internalType": "uint32",
							"name": "sellCount",
							"type": "uint32"
						},
						{
							"internalType": "bool",
							"name": "voted",
							"type": "bool"
						}
					],
					"stateMutability": "view",
					"type": "function"
				},
				{
					"inputs": [],
					"name": "stocksCount",
					"outputs": [
						{
							"internalType": "uint32",
							"name": "",
							"type": "uint32"
						}
					],
					"stateMutability": "view",
					"type": "function"
				},
				{
					"inputs": [],
					"name": "timeBetweenMeetings",
					"outputs": [
						{
							"internalType": "uint256",
							"name": "",
							"type": "uint256"
						}
					],
					"stateMutability": "view",
					"type": "function"
				},
				{
					"inputs": [],
					"name": "timeToVote",
					"outputs": [
						{
							"internalType": "uint256",
							"name": "",
							"type": "uint256"
						}
					],
					"stateMutability": "view",
					"type": "function"
				},
				{
					"inputs": [
						{
							"internalType": "uint256",
							"name": "dividendSize",
							"type": "uint256"
						}
					],
					"name": "vote",
					"outputs": [],
					"stateMutability": "nonpayable",
					"type": "function"
				},
				{
					"inputs": [
						{
							"internalType": "address payable",
							"name": "targetAddress",
							"type": "address"
						}
					],
					"name": "withdraw",
					"outputs": [],
					"stateMutability": "nonpayable",
					"type": "function"
				},
				{
					"inputs": [
						{
							"internalType": "address payable",
							"name": "targetAddress",
							"type": "address"
						},
						{
							"internalType": "uint256",
							"name": "amount",
							"type": "uint256"
						}
					],
					"name": "withdraw",
					"outputs": [],
					"stateMutability": "nonpayable",
					"type": "function"
				}
			],
			"devdoc": {
				"kind": "dev",
				"methods": {},
				"version": 1
			},
			"evm": {
				"assembly": "    /* \"smart_contracts/Stocks.sol\":72:7571  contract Stocks {\r... */\n  mstore(0x40, 0x80)\n    /* \"smart_contracts/Stocks.sol\":770:1103  constructor(uint32 _stocksCount) {\r... */\n  callvalue\n  dup1\n  iszero\n  tag_1\n  jumpi\n  0x00\n  dup1\n  revert\ntag_1:\n  pop\n  mload(0x40)\n  sub(codesize, bytecodeSize)\n  dup1\n  bytecodeSize\n  dup4\n  codecopy\n  dup2\n  dup2\n  add\n  0x40\n  mstore\n  dup2\n  add\n  swap1\n  tag_2\n  swap2\n  swap1\n  tag_3\n  jump\t// in\ntag_2:\n    /* \"smart_contracts/Stocks.sol\":825:835  msg.sender */\n  caller\n    /* \"smart_contracts/Stocks.sol\":814:822  director */\n  0x00\n  dup1\n    /* \"smart_contracts/Stocks.sol\":814:835  director = msg.sender */\n  0x0100\n  exp\n  dup2\n  sload\n  dup2\n  0xffffffffffffffffffffffffffffffffffffffff\n  mul\n  not\n  and\n  swap1\n  dup4\n  0xffffffffffffffffffffffffffffffffffffffff\n  and\n  mul\n  or\n  swap1\n  sstore\n  pop\n    /* \"smart_contracts/Stocks.sol\":860:872  _stocksCount */\n  dup1\n    /* \"smart_contracts/Stocks.sol\":846:857  stocksCount */\n  0x00\n  0x14\n    /* \"smart_contracts/Stocks.sol\":846:872  stocksCount = _stocksCount */\n  0x0100\n  exp\n  dup2\n  sload\n  dup2\n  0xffffffff\n  mul\n  not\n  and\n  swap1\n  dup4\n  0xffffffff\n  and\n  mul\n  or\n  swap1\n  sstore\n  pop\n    /* \"smart_contracts/Stocks.sol\":925:937  _stocksCount */\n  dup1\n    /* \"smart_contracts/Stocks.sol\":883:895  stockholders */\n  0x03\n    /* \"smart_contracts/Stocks.sol\":883:910  stockholders[address(this)] */\n  0x00\n    /* \"smart_contracts/Stocks.sol\":904:908  this */\n  address\n    /* \"smart_contracts/Stocks.sol\":883:910  stockholders[address(this)] */\n  0xffffffffffffffffffffffffffffffffffffffff\n  and\n  0xffffffffffffffffffffffffffffffffffffffff\n  and\n  dup2\n  mstore\n  0x20\n  add\n  swap1\n  dup2\n  mstore\n  0x20\n  add\n  0x00\n  keccak256\n    /* \"smart_contracts/Stocks.sol\":883:922  stockholders[address(this)].stocksCount */\n  0x00\n  add\n  0x00\n    /* \"smart_contracts/Stocks.sol\":883:937  stockholders[address(this)].stocksCount = _stocksCount */\n  0x0100\n  exp\n  dup2\n  sload\n  dup2\n  0xffffffff\n  mul\n  not\n  and\n  swap1\n  dup4\n  0xffffffff\n  and\n  mul\n  or\n  swap1\n  sstore\n  pop\n    /* \"smart_contracts/Stocks.sol\":966:981  block.timestamp */\n  timestamp\n    /* \"smart_contracts/Stocks.sol\":948:963  lastMeetingTime */\n  0x01\n    /* \"smart_contracts/Stocks.sol\":948:981  lastMeetingTime = block.timestamp */\n  dup2\n  swap1\n  sstore\n  pop\n    /* \"smart_contracts/Stocks.sol\":992:1007  stockholderList */\n  0x04\n    /* \"smart_contracts/Stocks.sol\":1021:1025  this */\n  address\n    /* \"smart_contracts/Stocks.sol\":992:1027  stockholderList.push(address(this)) */\n  swap1\n  dup1\n  0x01\n  dup2\n  sload\n  add\n  dup1\n  dup3\n  sstore\n  dup1\n  swap2\n  pop\n  pop\n  0x01\n  swap1\n  sub\n  swap1\n  0x00\n  mstore\n  keccak256(0x00, 0x20)\n  add\n  0x00\n  swap1\n  swap2\n  swap1\n  swap2\n  swap1\n  swap2\n  0x0100\n  exp\n  dup2\n  sload\n  dup2\n  0xffffffffffffffffffffffffffffffffffffffff\n  mul\n  not\n  and\n  swap1\n  dup4\n  0xffffffffffffffffffffffffffffffffffffffff\n  and\n  mul\n  or\n  swap1\n  sstore\n  pop\n    /* \"smart_contracts/Stocks.sol\":770:1103  constructor(uint32 _stocksCount) {\r... */\n  pop\n    /* \"smart_contracts/Stocks.sol\":72:7571  contract Stocks {\r... */\n  jump(tag_7)\n    /* \"#utility.yul\":7:148   */\ntag_9:\n    /* \"#utility.yul\":63:68   */\n  0x00\n    /* \"#utility.yul\":94:100   */\n  dup2\n    /* \"#utility.yul\":88:101   */\n  mload\n    /* \"#utility.yul\":79:101   */\n  swap1\n  pop\n    /* \"#utility.yul\":110:142   */\n  tag_11\n    /* \"#utility.yul\":136:141   */\n  dup2\n    /* \"#utility.yul\":110:142   */\n  tag_12\n  jump\t// in\ntag_11:\n    /* \"#utility.yul\":7:148   */\n  swap3\n  swap2\n  pop\n  pop\n  jump\t// out\n    /* \"#utility.yul\":154:503   */\ntag_3:\n    /* \"#utility.yul\":223:229   */\n  0x00\n    /* \"#utility.yul\":272:274   */\n  0x20\n    /* \"#utility.yul\":260:269   */\n  dup3\n    /* \"#utility.yul\":251:258   */\n  dup5\n    /* \"#utility.yul\":247:270   */\n  sub\n    /* \"#utility.yul\":243:275   */\n  slt\n    /* \"#utility.yul\":240:359   */\n  iszero\n  tag_14\n  jumpi\n    /* \"#utility.yul\":278:357   */\n  tag_15\n  tag_16\n  jump\t// in\ntag_15:\n    /* \"#utility.yul\":240:359   */\ntag_14:\n    /* \"#utility.yul\":398:399   */\n  0x00\n    /* \"#utility.yul\":423:486   */\n  tag_17\n    /* \"#utility.yul\":478:485   */\n  dup5\n    /* \"#utility.yul\":469:475   */\n  dup3\n    /* \"#utility.yul\":458:467   */\n  dup6\n    /* \"#utility.yul\":454:476   */\n  add\n    /* \"#utility.yul\":423:486   */\n  tag_9\n  jump\t// in\ntag_17:\n    /* \"#utility.yul\":413:486   */\n  swap2\n  pop\n    /* \"#utility.yul\":369:496   */\n  pop\n    /* \"#utility.yul\":154:503   */\n  swap3\n  swap2\n  pop\n  pop\n  jump\t// out\n    /* \"#utility.yul\":590:683   */\ntag_20:\n    /* \"#utility.yul\":626:633   */\n  0x00\n    /* \"#utility.yul\":666:676   */\n  0xffffffff\n    /* \"#utility.yul\":659:664   */\n  dup3\n    /* \"#utility.yul\":655:677   */\n  and\n    /* \"#utility.yul\":644:677   */\n  swap1\n  pop\n    /* \"#utility.yul\":590:683   */\n  swap2\n  swap1\n  pop\n  jump\t// out\n    /* \"#utility.yul\":812:929   */\ntag_16:\n    /* \"#utility.yul\":921:922   */\n  0x00\n    /* \"#utility.yul\":918:919   */\n  dup1\n    /* \"#utility.yul\":911:923   */\n  revert\n    /* \"#utility.yul\":935:1055   */\ntag_12:\n    /* \"#utility.yul\":1007:1030   */\n  tag_26\n    /* \"#utility.yul\":1024:1029   */\n  dup2\n    /* \"#utility.yul\":1007:1030   */\n  tag_20\n  jump\t// in\ntag_26:\n    /* \"#utility.yul\":1000:1005   */\n  dup2\n    /* \"#utility.yul\":997:1031   */\n  eq\n    /* \"#utility.yul\":987:1049   */\n  tag_27\n  jumpi\n    /* \"#utility.yul\":1045:1046   */\n  0x00\n    /* \"#utility.yul\":1042:1043   */\n  dup1\n    /* \"#utility.yul\":1035:1047   */\n  revert\n    /* \"#utility.yul\":987:1049   */\ntag_27:\n    /* \"#utility.yul\":935:1055   */\n  pop\n  jump\t// out\n    /* \"smart_contracts/Stocks.sol\":72:7571  contract Stocks {\r... */\ntag_7:\n  dataSize(sub_0)\n  dup1\n  dataOffset(sub_0)\n  0x00\n  codecopy\n  0x00\n  return\nstop\n\nsub_0: assembly {\n        /* \"smart_contracts/Stocks.sol\":72:7571  contract Stocks {\r... */\n      mstore(0x40, 0x80)\n      jumpi(tag_1, lt(calldatasize, 0x04))\n      shr(0xe0, calldataload(0x00))\n      dup1\n      0x92ac771a\n      gt\n      tag_18\n      jumpi\n      dup1\n      0xcce54917\n      gt\n      tag_19\n      jumpi\n      dup1\n      0xcce54917\n      eq\n      tag_14\n      jumpi\n      dup1\n      0xd0e30db0\n      eq\n      tag_15\n      jumpi\n      dup1\n      0xde88a342\n      eq\n      tag_16\n      jumpi\n      dup1\n      0xf3fef3a3\n      eq\n      tag_17\n      jumpi\n      jump(tag_1)\n    tag_19:\n      dup1\n      0x92ac771a\n      eq\n      tag_10\n      jumpi\n      dup1\n      0x92b80242\n      eq\n      tag_11\n      jumpi\n      dup1\n      0x945837e2\n      eq\n      tag_12\n      jumpi\n      dup1\n      0xb544e611\n      eq\n      tag_13\n      jumpi\n      jump(tag_1)\n    tag_18:\n      dup1\n      0x1f1dfdca\n      gt\n      tag_20\n      jumpi\n      dup1\n      0x1f1dfdca\n      eq\n      tag_6\n      jumpi\n      dup1\n      0x2818d036\n      eq\n      tag_7\n      jumpi\n      dup1\n      0x51cff8d9\n      eq\n      tag_8\n      jumpi\n      dup1\n      0x5af82abf\n      eq\n      tag_9\n      jumpi\n      jump(tag_1)\n    tag_20:\n      dup1\n      0x0121b93f\n      eq\n      tag_2\n      jumpi\n      dup1\n      0x068bb026\n      eq\n      tag_3\n      jumpi\n      dup1\n      0x0a09c554\n      eq\n      tag_4\n      jumpi\n      dup1\n      0x1c24c8e8\n      eq\n      tag_5\n      jumpi\n    tag_1:\n      0x00\n      dup1\n      revert\n        /* \"smart_contracts/Stocks.sol\":5898:6553  function vote(uint256 dividendSize) public isStockholder {\r... */\n    tag_2:\n      callvalue\n      dup1\n      iszero\n      tag_21\n      jumpi\n      0x00\n      dup1\n      revert\n    tag_21:\n      pop\n      tag_22\n      0x04\n      dup1\n      calldatasize\n      sub\n      dup2\n      add\n      swap1\n      tag_23\n      swap2\n      swap1\n      tag_24\n      jump\t// in\n    tag_23:\n      tag_25\n      jump\t// in\n    tag_22:\n      stop\n        /* \"smart_contracts/Stocks.sol\":2674:2997  function sellOrder(uint256 sellPrice, uint32 sellCount) public {\r... */\n    tag_3:\n      callvalue\n      dup1\n      iszero\n      tag_26\n      jumpi\n      0x00\n      dup1\n      revert\n    tag_26:\n      pop\n      tag_27\n      0x04\n      dup1\n      calldatasize\n      sub\n      dup2\n      add\n      swap1\n      tag_28\n      swap2\n      swap1\n      tag_29\n      jump\t// in\n    tag_28:\n      tag_30\n      jump\t// in\n    tag_27:\n      stop\n        /* \"smart_contracts/Stocks.sol\":3370:4878  function buyStocks(address payable sellerStockholder, uint32 buyCount) public payable {\r... */\n    tag_4:\n      tag_31\n      0x04\n      dup1\n      calldatasize\n      sub\n      dup2\n      add\n      swap1\n      tag_32\n      swap2\n      swap1\n      tag_33\n      jump\t// in\n    tag_32:\n      tag_34\n      jump\t// in\n    tag_31:\n      stop\n        /* \"smart_contracts/Stocks.sol\":672:723  mapping(uint256 => uint32) public dividendProposals */\n    tag_5:\n      callvalue\n      dup1\n      iszero\n      tag_35\n      jumpi\n      0x00\n      dup1\n      revert\n    tag_35:\n      pop\n      tag_36\n      0x04\n      dup1\n      calldatasize\n      sub\n      dup2\n      add\n      swap1\n      tag_37\n      swap2\n      swap1\n      tag_24\n      jump\t// in\n    tag_37:\n      tag_38\n      jump\t// in\n    tag_36:\n      mload(0x40)\n      tag_39\n      swap2\n      swap1\n      tag_40\n      jump\t// in\n    tag_39:\n      mload(0x40)\n      dup1\n      swap2\n      sub\n      swap1\n      return\n        /* \"smart_contracts/Stocks.sol\":580:631  mapping(address => Stockholder) public stockholders */\n    tag_6:\n      callvalue\n      dup1\n      iszero\n      tag_41\n      jumpi\n      0x00\n      dup1\n      revert\n    tag_41:\n      pop\n      tag_42\n      0x04\n      dup1\n      calldatasize\n      sub\n      dup2\n      add\n      swap1\n      tag_43\n      swap2\n      swap1\n      tag_44\n      jump\t// in\n    tag_43:\n      tag_45\n      jump\t// in\n    tag_42:\n      mload(0x40)\n      tag_46\n      swap5\n      swap4\n      swap3\n      swap2\n      swap1\n      tag_47\n      jump\t// in\n    tag_46:\n      mload(0x40)\n      dup1\n      swap2\n      sub\n      swap1\n      return\n        /* \"smart_contracts/Stocks.sol\":298:353  uint public constant minTimeToMakeProposals = 1 minutes */\n    tag_7:\n      callvalue\n      dup1\n      iszero\n      tag_48\n      jumpi\n      0x00\n      dup1\n      revert\n    tag_48:\n      pop\n      tag_49\n      tag_50\n      jump\t// in\n    tag_49:\n      mload(0x40)\n      tag_51\n      swap2\n      swap1\n      tag_52\n      jump\t// in\n    tag_51:\n      mload(0x40)\n      dup1\n      swap2\n      sub\n      swap1\n      return\n        /* \"smart_contracts/Stocks.sol\":2114:2371  function withdraw(address payable targetAddress) public isDirector {\r... */\n    tag_8:\n      callvalue\n      dup1\n      iszero\n      tag_53\n      jumpi\n      0x00\n      dup1\n      revert\n    tag_53:\n      pop\n      tag_54\n      0x04\n      dup1\n      calldatasize\n      sub\n      dup2\n      add\n      swap1\n      tag_55\n      swap2\n      swap1\n      tag_56\n      jump\t// in\n    tag_55:\n      tag_57\n      jump\t// in\n    tag_54:\n      stop\n        /* \"smart_contracts/Stocks.sol\":414:437  address public director */\n    tag_9:\n      callvalue\n      dup1\n      iszero\n      tag_58\n      jumpi\n      0x00\n      dup1\n      revert\n    tag_58:\n      pop\n      tag_59\n      tag_60\n      jump\t// in\n    tag_59:\n      mload(0x40)\n      tag_61\n      swap2\n      swap1\n      tag_62\n      jump\t// in\n    tag_61:\n      mload(0x40)\n      dup1\n      swap2\n      sub\n      swap1\n      return\n        /* \"smart_contracts/Stocks.sol\":239:291  uint public constant timeBetweenMeetings = 2 minutes */\n    tag_10:\n      callvalue\n      dup1\n      iszero\n      tag_63\n      jumpi\n      0x00\n      dup1\n      revert\n    tag_63:\n      pop\n      tag_64\n      tag_65\n      jump\t// in\n    tag_64:\n      mload(0x40)\n      tag_66\n      swap2\n      swap1\n      tag_52\n      jump\t// in\n    tag_66:\n      mload(0x40)\n      dup1\n      swap2\n      sub\n      swap1\n      return\n        /* \"smart_contracts/Stocks.sol\":3005:3362  function companySellOrder(uint256 sellPrice, uint32 sellCount) public isDirector {\r... */\n    tag_11:\n      callvalue\n      dup1\n      iszero\n      tag_67\n      jumpi\n      0x00\n      dup1\n      revert\n    tag_67:\n      pop\n      tag_68\n      0x04\n      dup1\n      calldatasize\n      sub\n      dup2\n      add\n      swap1\n      tag_69\n      swap2\n      swap1\n      tag_29\n      jump\t// in\n    tag_69:\n      tag_70\n      jump\t// in\n    tag_68:\n      stop\n        /* \"smart_contracts/Stocks.sol\":360:403  uint public constant timeToVote = 1 minutes */\n    tag_12:\n      callvalue\n      dup1\n      iszero\n      tag_71\n      jumpi\n      0x00\n      dup1\n      revert\n    tag_71:\n      pop\n      tag_72\n      tag_73\n      jump\t// in\n    tag_72:\n      mload(0x40)\n      tag_74\n      swap2\n      swap1\n      tag_52\n      jump\t// in\n    tag_74:\n      mload(0x40)\n      dup1\n      swap2\n      sub\n      swap1\n      return\n        /* \"smart_contracts/Stocks.sol\":5148:5890  function makeDividendsProposal(uint256 dividendSize) public isStockholder {\r... */\n    tag_13:\n      callvalue\n      dup1\n      iszero\n      tag_75\n      jumpi\n      0x00\n      dup1\n      revert\n    tag_75:\n      pop\n      tag_76\n      0x04\n      dup1\n      calldatasize\n      sub\n      dup2\n      add\n      swap1\n      tag_77\n      swap2\n      swap1\n      tag_24\n      jump\t// in\n    tag_77:\n      tag_78\n      jump\t// in\n    tag_76:\n      stop\n        /* \"smart_contracts/Stocks.sol\":444:469  uint32 public stocksCount */\n    tag_14:\n      callvalue\n      dup1\n      iszero\n      tag_79\n      jumpi\n      0x00\n      dup1\n      revert\n    tag_79:\n      pop\n      tag_80\n      tag_81\n      jump\t// in\n    tag_80:\n      mload(0x40)\n      tag_82\n      swap2\n      swap1\n      tag_40\n      jump\t// in\n    tag_82:\n      mload(0x40)\n      dup1\n      swap2\n      sub\n      swap1\n      return\n        /* \"smart_contracts/Stocks.sol\":2070:2106  function deposit() public payable {} */\n    tag_15:\n      tag_83\n      tag_84\n      jump\t// in\n    tag_83:\n      stop\n        /* \"smart_contracts/Stocks.sol\":6561:7566  function payDividends() public isStockholder {\r... */\n    tag_16:\n      callvalue\n      dup1\n      iszero\n      tag_85\n      jumpi\n      0x00\n      dup1\n      revert\n    tag_85:\n      pop\n      tag_86\n      tag_87\n      jump\t// in\n    tag_86:\n      stop\n        /* \"smart_contracts/Stocks.sol\":2379:2666  function withdraw(address payable targetAddress, uint256 amount) public isDirector notLargerThanBalance(amount) {\r... */\n    tag_17:\n      callvalue\n      dup1\n      iszero\n      tag_88\n      jumpi\n      0x00\n      dup1\n      revert\n    tag_88:\n      pop\n      tag_89\n      0x04\n      dup1\n      calldatasize\n      sub\n      dup2\n      add\n      swap1\n      tag_90\n      swap2\n      swap1\n      tag_91\n      jump\t// in\n    tag_90:\n      tag_92\n      jump\t// in\n    tag_89:\n      stop\n        /* \"smart_contracts/Stocks.sol\":5898:6553  function vote(uint256 dividendSize) public isStockholder {\r... */\n    tag_25:\n        /* \"smart_contracts/Stocks.sol\":1794:1795  0 */\n      0x00\n        /* \"smart_contracts/Stocks.sol\":1754:1766  stockholders */\n      0x03\n        /* \"smart_contracts/Stocks.sol\":1754:1778  stockholders[msg.sender] */\n      0x00\n        /* \"smart_contracts/Stocks.sol\":1767:1777  msg.sender */\n      caller\n        /* \"smart_contracts/Stocks.sol\":1754:1778  stockholders[msg.sender] */\n      0xffffffffffffffffffffffffffffffffffffffff\n      and\n      0xffffffffffffffffffffffffffffffffffffffff\n      and\n      dup2\n      mstore\n      0x20\n      add\n      swap1\n      dup2\n      mstore\n      0x20\n      add\n      0x00\n      keccak256\n        /* \"smart_contracts/Stocks.sol\":1754:1790  stockholders[msg.sender].stocksCount */\n      0x00\n      add\n      0x00\n      swap1\n      sload\n      swap1\n      0x0100\n      exp\n      swap1\n      div\n      0xffffffff\n      and\n        /* \"smart_contracts/Stocks.sol\":1754:1795  stockholders[msg.sender].stocksCount != 0 */\n      0xffffffff\n      and\n      eq\n      iszero\n        /* \"smart_contracts/Stocks.sol\":1746:1825  require(stockholders[msg.sender].stocksCount != 0, \"Caller is not stockholder\") */\n      tag_94\n      jumpi\n      mload(0x40)\n      0x08c379a000000000000000000000000000000000000000000000000000000000\n      dup2\n      mstore\n      0x04\n      add\n      tag_95\n      swap1\n      tag_96\n      jump\t// in\n    tag_95:\n      mload(0x40)\n      dup1\n      swap2\n      sub\n      swap1\n      revert\n    tag_94:\n        /* \"smart_contracts/Stocks.sol\":5975:5987  stockholders */\n      0x03\n        /* \"smart_contracts/Stocks.sol\":5975:5999  stockholders[msg.sender] */\n      0x00\n        /* \"smart_contracts/Stocks.sol\":5988:5998  msg.sender */\n      caller\n        /* \"smart_contracts/Stocks.sol\":5975:5999  stockholders[msg.sender] */\n      0xffffffffffffffffffffffffffffffffffffffff\n      and\n      0xffffffffffffffffffffffffffffffffffffffff\n      and\n      dup2\n      mstore\n      0x20\n      add\n      swap1\n      dup2\n      mstore\n      0x20\n      add\n      0x00\n      keccak256\n        /* \"smart_contracts/Stocks.sol\":5975:6005  stockholders[msg.sender].voted */\n      0x02\n      add\n      0x04\n      swap1\n      sload\n      swap1\n      0x0100\n      exp\n      swap1\n      div\n      0xff\n      and\n        /* \"smart_contracts/Stocks.sol\":5974:6005  !stockholders[msg.sender].voted */\n      iszero\n        /* \"smart_contracts/Stocks.sol\":5966:6032  require(!stockholders[msg.sender].voted, \"You have already voted\") */\n      tag_98\n      jumpi\n      mload(0x40)\n      0x08c379a000000000000000000000000000000000000000000000000000000000\n      dup2\n      mstore\n      0x04\n      add\n      tag_99\n      swap1\n      tag_100\n      jump\t// in\n    tag_99:\n      mload(0x40)\n      dup1\n      swap2\n      sub\n      swap1\n      revert\n    tag_98:\n        /* \"smart_contracts/Stocks.sol\":6085:6086  0 */\n      0x00\n        /* \"smart_contracts/Stocks.sol\":6051:6068  dividendProposals */\n      0x05\n        /* \"smart_contracts/Stocks.sol\":6051:6082  dividendProposals[dividendSize] */\n      0x00\n        /* \"smart_contracts/Stocks.sol\":6069:6081  dividendSize */\n      dup4\n        /* \"smart_contracts/Stocks.sol\":6051:6082  dividendProposals[dividendSize] */\n      dup2\n      mstore\n      0x20\n      add\n      swap1\n      dup2\n      mstore\n      0x20\n      add\n      0x00\n      keccak256\n      0x00\n      swap1\n      sload\n      swap1\n      0x0100\n      exp\n      swap1\n      div\n      0xffffffff\n      and\n        /* \"smart_contracts/Stocks.sol\":6051:6086  dividendProposals[dividendSize] > 0 */\n      0xffffffff\n      and\n      gt\n        /* \"smart_contracts/Stocks.sol\":6043:6132  require(dividendProposals[dividendSize] > 0, \"This dividend amount hasn't been proposed\") */\n      tag_101\n      jumpi\n      mload(0x40)\n      0x08c379a000000000000000000000000000000000000000000000000000000000\n      dup2\n      mstore\n      0x04\n      add\n      tag_102\n      swap1\n      tag_103\n      jump\t// in\n    tag_102:\n      mload(0x40)\n      dup1\n      swap2\n      sub\n      swap1\n      revert\n    tag_101:\n        /* \"smart_contracts/Stocks.sol\":6216:6231  block.timestamp */\n      timestamp\n        /* \"smart_contracts/Stocks.sol\":344:353  1 minutes */\n      0x3c\n        /* \"smart_contracts/Stocks.sol\":282:291  2 minutes */\n      0x78\n        /* \"smart_contracts/Stocks.sol\":6151:6166  lastMeetingTime */\n      sload(0x01)\n        /* \"smart_contracts/Stocks.sol\":6151:6188  lastMeetingTime + timeBetweenMeetings */\n      tag_104\n      swap2\n      swap1\n      tag_105\n      jump\t// in\n    tag_104:\n        /* \"smart_contracts/Stocks.sol\":6151:6213  lastMeetingTime + timeBetweenMeetings + minTimeToMakeProposals */\n      tag_106\n      swap2\n      swap1\n      tag_105\n      jump\t// in\n    tag_106:\n        /* \"smart_contracts/Stocks.sol\":6151:6231  lastMeetingTime + timeBetweenMeetings + minTimeToMakeProposals > block.timestamp */\n      gt\n        /* \"smart_contracts/Stocks.sol\":6143:6259  require(lastMeetingTime + timeBetweenMeetings + minTimeToMakeProposals > block.timestamp, \"Voting time hasn't come\") */\n      tag_107\n      jumpi\n      mload(0x40)\n      0x08c379a000000000000000000000000000000000000000000000000000000000\n      dup2\n      mstore\n      0x04\n      add\n      tag_108\n      swap1\n      tag_109\n      jump\t// in\n    tag_108:\n      mload(0x40)\n      dup1\n      swap2\n      sub\n      swap1\n      revert\n    tag_107:\n        /* \"smart_contracts/Stocks.sol\":6357:6372  block.timestamp */\n      timestamp\n        /* \"smart_contracts/Stocks.sol\":394:403  1 minutes */\n      0x3c\n        /* \"smart_contracts/Stocks.sol\":344:353  1 minutes */\n      dup1\n        /* \"smart_contracts/Stocks.sol\":282:291  2 minutes */\n      0x78\n        /* \"smart_contracts/Stocks.sol\":6278:6293  lastMeetingTime */\n      sload(0x01)\n        /* \"smart_contracts/Stocks.sol\":6278:6315  lastMeetingTime + timeBetweenMeetings */\n      tag_110\n      swap2\n      swap1\n      tag_105\n      jump\t// in\n    tag_110:\n        /* \"smart_contracts/Stocks.sol\":6278:6340  lastMeetingTime + timeBetweenMeetings + minTimeToMakeProposals */\n      tag_111\n      swap2\n      swap1\n      tag_105\n      jump\t// in\n    tag_111:\n        /* \"smart_contracts/Stocks.sol\":6278:6353  lastMeetingTime + timeBetweenMeetings + minTimeToMakeProposals + timeToVote */\n      tag_112\n      swap2\n      swap1\n      tag_105\n      jump\t// in\n    tag_112:\n        /* \"smart_contracts/Stocks.sol\":6278:6372  lastMeetingTime + timeBetweenMeetings + minTimeToMakeProposals + timeToVote <= block.timestamp */\n      gt\n      iszero\n        /* \"smart_contracts/Stocks.sol\":6270:6415  require(lastMeetingTime + timeBetweenMeetings + minTimeToMakeProposals + timeToVote <= block.timestamp, \"Voting time for this meeting has ended\") */\n      tag_113\n      jumpi\n      mload(0x40)\n      0x08c379a000000000000000000000000000000000000000000000000000000000\n      dup2\n      mstore\n      0x04\n      add\n      tag_114\n      swap1\n      tag_115\n      jump\t// in\n    tag_114:\n      mload(0x40)\n      dup1\n      swap2\n      sub\n      swap1\n      revert\n    tag_113:\n        /* \"smart_contracts/Stocks.sol\":6459:6463  true */\n      0x01\n        /* \"smart_contracts/Stocks.sol\":6426:6438  stockholders */\n      0x03\n        /* \"smart_contracts/Stocks.sol\":6426:6450  stockholders[msg.sender] */\n      0x00\n        /* \"smart_contracts/Stocks.sol\":6439:6449  msg.sender */\n      caller\n        /* \"smart_contracts/Stocks.sol\":6426:6450  stockholders[msg.sender] */\n      0xffffffffffffffffffffffffffffffffffffffff\n      and\n      0xffffffffffffffffffffffffffffffffffffffff\n      and\n      dup2\n      mstore\n      0x20\n      add\n      swap1\n      dup2\n      mstore\n      0x20\n      add\n      0x00\n      keccak256\n        /* \"smart_contracts/Stocks.sol\":6426:6456  stockholders[msg.sender].voted */\n      0x02\n      add\n      0x04\n        /* \"smart_contracts/Stocks.sol\":6426:6463  stockholders[msg.sender].voted = true */\n      0x0100\n      exp\n      dup2\n      sload\n      dup2\n      0xff\n      mul\n      not\n      and\n      swap1\n      dup4\n      iszero\n      iszero\n      mul\n      or\n      swap1\n      sstore\n      pop\n        /* \"smart_contracts/Stocks.sol\":6509:6521  stockholders */\n      0x03\n        /* \"smart_contracts/Stocks.sol\":6509:6533  stockholders[msg.sender] */\n      0x00\n        /* \"smart_contracts/Stocks.sol\":6522:6532  msg.sender */\n      caller\n        /* \"smart_contracts/Stocks.sol\":6509:6533  stockholders[msg.sender] */\n      0xffffffffffffffffffffffffffffffffffffffff\n      and\n      0xffffffffffffffffffffffffffffffffffffffff\n      and\n      dup2\n      mstore\n      0x20\n      add\n      swap1\n      dup2\n      mstore\n      0x20\n      add\n      0x00\n      keccak256\n        /* \"smart_contracts/Stocks.sol\":6509:6545  stockholders[msg.sender].stocksCount */\n      0x00\n      add\n      0x00\n      swap1\n      sload\n      swap1\n      0x0100\n      exp\n      swap1\n      div\n      0xffffffff\n      and\n        /* \"smart_contracts/Stocks.sol\":6474:6491  dividendProposals */\n      0x05\n        /* \"smart_contracts/Stocks.sol\":6474:6505  dividendProposals[dividendSize] */\n      0x00\n        /* \"smart_contracts/Stocks.sol\":6492:6504  dividendSize */\n      dup4\n        /* \"smart_contracts/Stocks.sol\":6474:6505  dividendProposals[dividendSize] */\n      dup2\n      mstore\n      0x20\n      add\n      swap1\n      dup2\n      mstore\n      0x20\n      add\n      0x00\n      keccak256\n      0x00\n        /* \"smart_contracts/Stocks.sol\":6474:6545  dividendProposals[dividendSize] += stockholders[msg.sender].stocksCount */\n      dup3\n      dup3\n      dup3\n      swap1\n      sload\n      swap1\n      0x0100\n      exp\n      swap1\n      div\n      0xffffffff\n      and\n      tag_116\n      swap2\n      swap1\n      tag_117\n      jump\t// in\n    tag_116:\n      swap3\n      pop\n      0x0100\n      exp\n      dup2\n      sload\n      dup2\n      0xffffffff\n      mul\n      not\n      and\n      swap1\n      dup4\n      0xffffffff\n      and\n      mul\n      or\n      swap1\n      sstore\n      pop\n        /* \"smart_contracts/Stocks.sol\":5898:6553  function vote(uint256 dividendSize) public isStockholder {\r... */\n      pop\n      jump\t// out\n        /* \"smart_contracts/Stocks.sol\":2674:2997  function sellOrder(uint256 sellPrice, uint32 sellCount) public {\r... */\n    tag_30:\n        /* \"smart_contracts/Stocks.sol\":2796:2805  sellCount */\n      dup1\n        /* \"smart_contracts/Stocks.sol\":2756:2805  stockholders[msg.sender].stocksCount >= sellCount */\n      0xffffffff\n      and\n        /* \"smart_contracts/Stocks.sol\":2756:2768  stockholders */\n      0x03\n        /* \"smart_contracts/Stocks.sol\":2756:2780  stockholders[msg.sender] */\n      0x00\n        /* \"smart_contracts/Stocks.sol\":2769:2779  msg.sender */\n      caller\n        /* \"smart_contracts/Stocks.sol\":2756:2780  stockholders[msg.sender] */\n      0xffffffffffffffffffffffffffffffffffffffff\n      and\n      0xffffffffffffffffffffffffffffffffffffffff\n      and\n      dup2\n      mstore\n      0x20\n      add\n      swap1\n      dup2\n      mstore\n      0x20\n      add\n      0x00\n      keccak256\n        /* \"smart_contracts/Stocks.sol\":2756:2792  stockholders[msg.sender].stocksCount */\n      0x00\n      add\n      0x00\n      swap1\n      sload\n      swap1\n      0x0100\n      exp\n      swap1\n      div\n      0xffffffff\n      and\n        /* \"smart_contracts/Stocks.sol\":2756:2805  stockholders[msg.sender].stocksCount >= sellCount */\n      0xffffffff\n      and\n      lt\n      iszero\n        /* \"smart_contracts/Stocks.sol\":2748:2875  require(stockholders[msg.sender].stocksCount >= sellCount, \"You are trying to create sell order for more stocks than you have\") */\n      tag_119\n      jumpi\n      mload(0x40)\n      0x08c379a000000000000000000000000000000000000000000000000000000000\n      dup2\n      mstore\n      0x04\n      add\n      tag_120\n      swap1\n      tag_121\n      jump\t// in\n    tag_120:\n      mload(0x40)\n      dup1\n      swap2\n      sub\n      swap1\n      revert\n    tag_119:\n        /* \"smart_contracts/Stocks.sol\":2923:2932  sellPrice */\n      dup2\n        /* \"smart_contracts/Stocks.sol\":2886:2898  stockholders */\n      0x03\n        /* \"smart_contracts/Stocks.sol\":2886:2910  stockholders[msg.sender] */\n      0x00\n        /* \"smart_contracts/Stocks.sol\":2899:2909  msg.sender */\n      caller\n        /* \"smart_contracts/Stocks.sol\":2886:2910  stockholders[msg.sender] */\n      0xffffffffffffffffffffffffffffffffffffffff\n      and\n      0xffffffffffffffffffffffffffffffffffffffff\n      and\n      dup2\n      mstore\n      0x20\n      add\n      swap1\n      dup2\n      mstore\n      0x20\n      add\n      0x00\n      keccak256\n        /* \"smart_contracts/Stocks.sol\":2886:2920  stockholders[msg.sender].sellPrice */\n      0x01\n      add\n        /* \"smart_contracts/Stocks.sol\":2886:2932  stockholders[msg.sender].sellPrice = sellPrice */\n      dup2\n      swap1\n      sstore\n      pop\n        /* \"smart_contracts/Stocks.sol\":2980:2989  sellCount */\n      dup1\n        /* \"smart_contracts/Stocks.sol\":2943:2955  stockholders */\n      0x03\n        /* \"smart_contracts/Stocks.sol\":2943:2967  stockholders[msg.sender] */\n      0x00\n        /* \"smart_contracts/Stocks.sol\":2956:2966  msg.sender */\n      caller\n        /* \"smart_contracts/Stocks.sol\":2943:2967  stockholders[msg.sender] */\n      0xffffffffffffffffffffffffffffffffffffffff\n      and\n      0xffffffffffffffffffffffffffffffffffffffff\n      and\n      dup2\n      mstore\n      0x20\n      add\n      swap1\n      dup2\n      mstore\n      0x20\n      add\n      0x00\n      keccak256\n        /* \"smart_contracts/Stocks.sol\":2943:2977  stockholders[msg.sender].sellCount */\n      0x02\n      add\n      0x00\n        /* \"smart_contracts/Stocks.sol\":2943:2989  stockholders[msg.sender].sellCount = sellCount */\n      0x0100\n      exp\n      dup2\n      sload\n      dup2\n      0xffffffff\n      mul\n      not\n      and\n      swap1\n      dup4\n      0xffffffff\n      and\n      mul\n      or\n      swap1\n      sstore\n      pop\n        /* \"smart_contracts/Stocks.sol\":2674:2997  function sellOrder(uint256 sellPrice, uint32 sellCount) public {\r... */\n      pop\n      pop\n      jump\t// out\n        /* \"smart_contracts/Stocks.sol\":3370:4878  function buyStocks(address payable sellerStockholder, uint32 buyCount) public payable {\r... */\n    tag_34:\n        /* \"smart_contracts/Stocks.sol\":3520:3528  buyCount */\n      dup1\n        /* \"smart_contracts/Stocks.sol\":3475:3528  stockholders[sellerStockholder].sellCount >= buyCount */\n      0xffffffff\n      and\n        /* \"smart_contracts/Stocks.sol\":3475:3487  stockholders */\n      0x03\n        /* \"smart_contracts/Stocks.sol\":3475:3506  stockholders[sellerStockholder] */\n      0x00\n        /* \"smart_contracts/Stocks.sol\":3488:3505  sellerStockholder */\n      dup5\n        /* \"smart_contracts/Stocks.sol\":3475:3506  stockholders[sellerStockholder] */\n      0xffffffffffffffffffffffffffffffffffffffff\n      and\n      0xffffffffffffffffffffffffffffffffffffffff\n      and\n      dup2\n      mstore\n      0x20\n      add\n      swap1\n      dup2\n      mstore\n      0x20\n      add\n      0x00\n      keccak256\n        /* \"smart_contracts/Stocks.sol\":3475:3516  stockholders[sellerStockholder].sellCount */\n      0x02\n      add\n      0x00\n      swap1\n      sload\n      swap1\n      0x0100\n      exp\n      swap1\n      div\n      0xffffffff\n      and\n        /* \"smart_contracts/Stocks.sol\":3475:3528  stockholders[sellerStockholder].sellCount >= buyCount */\n      0xffffffff\n      and\n      lt\n      iszero\n        /* \"smart_contracts/Stocks.sol\":3467:3592  require(stockholders[sellerStockholder].sellCount >= buyCount, \"Attempted to buy more stocks than seller is willing to sell\") */\n      tag_123\n      jumpi\n      mload(0x40)\n      0x08c379a000000000000000000000000000000000000000000000000000000000\n      dup2\n      mstore\n      0x04\n      add\n      tag_124\n      swap1\n      tag_125\n      jump\t// in\n    tag_124:\n      mload(0x40)\n      dup1\n      swap2\n      sub\n      swap1\n      revert\n    tag_123:\n        /* \"smart_contracts/Stocks.sol\":3668:3676  buyCount */\n      dup1\n        /* \"smart_contracts/Stocks.sol\":3624:3676  stockholders[sellerStockholder].sellPrice * buyCount */\n      0xffffffff\n      and\n        /* \"smart_contracts/Stocks.sol\":3624:3636  stockholders */\n      0x03\n        /* \"smart_contracts/Stocks.sol\":3624:3655  stockholders[sellerStockholder] */\n      0x00\n        /* \"smart_contracts/Stocks.sol\":3637:3654  sellerStockholder */\n      dup5\n        /* \"smart_contracts/Stocks.sol\":3624:3655  stockholders[sellerStockholder] */\n      0xffffffffffffffffffffffffffffffffffffffff\n      and\n      0xffffffffffffffffffffffffffffffffffffffff\n      and\n      dup2\n      mstore\n      0x20\n      add\n      swap1\n      dup2\n      mstore\n      0x20\n      add\n      0x00\n      keccak256\n        /* \"smart_contracts/Stocks.sol\":3624:3665  stockholders[sellerStockholder].sellPrice */\n      0x01\n      add\n      sload\n        /* \"smart_contracts/Stocks.sol\":3624:3676  stockholders[sellerStockholder].sellPrice * buyCount */\n      tag_126\n      swap2\n      swap1\n      tag_127\n      jump\t// in\n    tag_126:\n        /* \"smart_contracts/Stocks.sol\":3611:3620  msg.value */\n      callvalue\n        /* \"smart_contracts/Stocks.sol\":3611:3676  msg.value >= stockholders[sellerStockholder].sellPrice * buyCount */\n      lt\n      iszero\n        /* \"smart_contracts/Stocks.sol\":3603:3723  require(msg.value >= stockholders[sellerStockholder].sellPrice * buyCount, \"You didn't send enough money to buy stocks\") */\n      tag_128\n      jumpi\n      mload(0x40)\n      0x08c379a000000000000000000000000000000000000000000000000000000000\n      dup2\n      mstore\n      0x04\n      add\n      tag_129\n      swap1\n      tag_130\n      jump\t// in\n    tag_129:\n      mload(0x40)\n      dup1\n      swap2\n      sub\n      swap1\n      revert\n    tag_128:\n        /* \"smart_contracts/Stocks.sol\":3734:3758  uint256 transactionValue */\n      0x00\n        /* \"smart_contracts/Stocks.sol\":3805:3813  buyCount */\n      dup2\n        /* \"smart_contracts/Stocks.sol\":3761:3813  stockholders[sellerStockholder].sellPrice * buyCount */\n      0xffffffff\n      and\n        /* \"smart_contracts/Stocks.sol\":3761:3773  stockholders */\n      0x03\n        /* \"smart_contracts/Stocks.sol\":3761:3792  stockholders[sellerStockholder] */\n      0x00\n        /* \"smart_contracts/Stocks.sol\":3774:3791  sellerStockholder */\n      dup6\n        /* \"smart_contracts/Stocks.sol\":3761:3792  stockholders[sellerStockholder] */\n      0xffffffffffffffffffffffffffffffffffffffff\n      and\n      0xffffffffffffffffffffffffffffffffffffffff\n      and\n      dup2\n      mstore\n      0x20\n      add\n      swap1\n      dup2\n      mstore\n      0x20\n      add\n      0x00\n      keccak256\n        /* \"smart_contracts/Stocks.sol\":3761:3802  stockholders[sellerStockholder].sellPrice */\n      0x01\n      add\n      sload\n        /* \"smart_contracts/Stocks.sol\":3761:3813  stockholders[sellerStockholder].sellPrice * buyCount */\n      tag_131\n      swap2\n      swap1\n      tag_127\n      jump\t// in\n    tag_131:\n        /* \"smart_contracts/Stocks.sol\":3734:3813  uint256 transactionValue = stockholders[sellerStockholder].sellPrice * buyCount */\n      swap1\n      pop\n        /* \"smart_contracts/Stocks.sol\":3869:3877  buyCount */\n      dup2\n        /* \"smart_contracts/Stocks.sol\":3824:3836  stockholders */\n      0x03\n        /* \"smart_contracts/Stocks.sol\":3824:3855  stockholders[sellerStockholder] */\n      0x00\n        /* \"smart_contracts/Stocks.sol\":3837:3854  sellerStockholder */\n      dup6\n        /* \"smart_contracts/Stocks.sol\":3824:3855  stockholders[sellerStockholder] */\n      0xffffffffffffffffffffffffffffffffffffffff\n      and\n      0xffffffffffffffffffffffffffffffffffffffff\n      and\n      dup2\n      mstore\n      0x20\n      add\n      swap1\n      dup2\n      mstore\n      0x20\n      add\n      0x00\n      keccak256\n        /* \"smart_contracts/Stocks.sol\":3824:3865  stockholders[sellerStockholder].sellCount */\n      0x02\n      add\n      0x00\n        /* \"smart_contracts/Stocks.sol\":3824:3877  stockholders[sellerStockholder].sellCount -= buyCount */\n      dup3\n      dup3\n      dup3\n      swap1\n      sload\n      swap1\n      0x0100\n      exp\n      swap1\n      div\n      0xffffffff\n      and\n      tag_132\n      swap2\n      swap1\n      tag_133\n      jump\t// in\n    tag_132:\n      swap3\n      pop\n      0x0100\n      exp\n      dup2\n      sload\n      dup2\n      0xffffffff\n      mul\n      not\n      and\n      swap1\n      dup4\n      0xffffffff\n      and\n      mul\n      or\n      swap1\n      sstore\n      pop\n        /* \"smart_contracts/Stocks.sol\":3935:3943  buyCount */\n      dup2\n        /* \"smart_contracts/Stocks.sol\":3888:3900  stockholders */\n      0x03\n        /* \"smart_contracts/Stocks.sol\":3888:3919  stockholders[sellerStockholder] */\n      0x00\n        /* \"smart_contracts/Stocks.sol\":3901:3918  sellerStockholder */\n      dup6\n        /* \"smart_contracts/Stocks.sol\":3888:3919  stockholders[sellerStockholder] */\n      0xffffffffffffffffffffffffffffffffffffffff\n      and\n      0xffffffffffffffffffffffffffffffffffffffff\n      and\n      dup2\n      mstore\n      0x20\n      add\n      swap1\n      dup2\n      mstore\n      0x20\n      add\n      0x00\n      keccak256\n        /* \"smart_contracts/Stocks.sol\":3888:3931  stockholders[sellerStockholder].stocksCount */\n      0x00\n      add\n      0x00\n        /* \"smart_contracts/Stocks.sol\":3888:3943  stockholders[sellerStockholder].stocksCount -= buyCount */\n      dup3\n      dup3\n      dup3\n      swap1\n      sload\n      swap1\n      0x0100\n      exp\n      swap1\n      div\n      0xffffffff\n      and\n      tag_134\n      swap2\n      swap1\n      tag_133\n      jump\t// in\n    tag_134:\n      swap3\n      pop\n      0x0100\n      exp\n      dup2\n      sload\n      dup2\n      0xffffffff\n      mul\n      not\n      and\n      swap1\n      dup4\n      0xffffffff\n      and\n      mul\n      or\n      swap1\n      sstore\n      pop\n        /* \"smart_contracts/Stocks.sol\":4005:4006  0 */\n      0x00\n        /* \"smart_contracts/Stocks.sol\":3958:3970  stockholders */\n      0x03\n        /* \"smart_contracts/Stocks.sol\":3958:3989  stockholders[sellerStockholder] */\n      0x00\n        /* \"smart_contracts/Stocks.sol\":3971:3988  sellerStockholder */\n      dup6\n        /* \"smart_contracts/Stocks.sol\":3958:3989  stockholders[sellerStockholder] */\n      0xffffffffffffffffffffffffffffffffffffffff\n      and\n      0xffffffffffffffffffffffffffffffffffffffff\n      and\n      dup2\n      mstore\n      0x20\n      add\n      swap1\n      dup2\n      mstore\n      0x20\n      add\n      0x00\n      keccak256\n        /* \"smart_contracts/Stocks.sol\":3958:4001  stockholders[sellerStockholder].stocksCount */\n      0x00\n      add\n      0x00\n      swap1\n      sload\n      swap1\n      0x0100\n      exp\n      swap1\n      div\n      0xffffffff\n      and\n        /* \"smart_contracts/Stocks.sol\":3958:4006  stockholders[sellerStockholder].stocksCount == 0 */\n      0xffffffff\n      and\n      eq\n        /* \"smart_contracts/Stocks.sol\":3954:4532  if (stockholders[sellerStockholder].stocksCount == 0) {\r... */\n      iszero\n      tag_135\n      jumpi\n        /* \"smart_contracts/Stocks.sol\":4083:4104  uint stockholderIndex */\n      0x00\n        /* \"smart_contracts/Stocks.sol\":4128:4134  uint i */\n      dup1\n        /* \"smart_contracts/Stocks.sol\":4123:4326  for (uint i = 0; i < stockholderList.length; i++)\r... */\n    tag_136:\n        /* \"smart_contracts/Stocks.sol\":4144:4159  stockholderList */\n      0x04\n        /* \"smart_contracts/Stocks.sol\":4144:4166  stockholderList.length */\n      dup1\n      sload\n      swap1\n      pop\n        /* \"smart_contracts/Stocks.sol\":4140:4141  i */\n      dup2\n        /* \"smart_contracts/Stocks.sol\":4140:4166  i < stockholderList.length */\n      lt\n        /* \"smart_contracts/Stocks.sol\":4123:4326  for (uint i = 0; i < stockholderList.length; i++)\r... */\n      iszero\n      tag_137\n      jumpi\n        /* \"smart_contracts/Stocks.sol\":4216:4233  sellerStockholder */\n      dup5\n        /* \"smart_contracts/Stocks.sol\":4194:4233  stockholderList[i] == sellerStockholder */\n      0xffffffffffffffffffffffffffffffffffffffff\n      and\n        /* \"smart_contracts/Stocks.sol\":4194:4209  stockholderList */\n      0x04\n        /* \"smart_contracts/Stocks.sol\":4210:4211  i */\n      dup3\n        /* \"smart_contracts/Stocks.sol\":4194:4212  stockholderList[i] */\n      dup2\n      sload\n      dup2\n      lt\n      tag_139\n      jumpi\n      tag_140\n      tag_141\n      jump\t// in\n    tag_140:\n    tag_139:\n      swap1\n      0x00\n      mstore\n      keccak256(0x00, 0x20)\n      add\n      0x00\n      swap1\n      sload\n      swap1\n      0x0100\n      exp\n      swap1\n      div\n      0xffffffffffffffffffffffffffffffffffffffff\n      and\n        /* \"smart_contracts/Stocks.sol\":4194:4233  stockholderList[i] == sellerStockholder */\n      0xffffffffffffffffffffffffffffffffffffffff\n      and\n      eq\n        /* \"smart_contracts/Stocks.sol\":4190:4326  if (stockholderList[i] == sellerStockholder) {\r... */\n      iszero\n      tag_143\n      jumpi\n        /* \"smart_contracts/Stocks.sol\":4277:4278  i */\n      dup1\n        /* \"smart_contracts/Stocks.sol\":4258:4278  stockholderIndex = i */\n      swap2\n      pop\n        /* \"smart_contracts/Stocks.sol\":4301:4306  break */\n      jump(tag_137)\n        /* \"smart_contracts/Stocks.sol\":4190:4326  if (stockholderList[i] == sellerStockholder) {\r... */\n    tag_143:\n        /* \"smart_contracts/Stocks.sol\":4168:4171  i++ */\n      dup1\n      dup1\n      tag_144\n      swap1\n      tag_145\n      jump\t// in\n    tag_144:\n      swap2\n      pop\n      pop\n        /* \"smart_contracts/Stocks.sol\":4123:4326  for (uint i = 0; i < stockholderList.length; i++)\r... */\n      jump(tag_136)\n    tag_137:\n      pop\n        /* \"smart_contracts/Stocks.sol\":4376:4391  stockholderList */\n      0x04\n        /* \"smart_contracts/Stocks.sol\":4417:4418  1 */\n      0x01\n        /* \"smart_contracts/Stocks.sol\":4392:4407  stockholderList */\n      0x04\n        /* \"smart_contracts/Stocks.sol\":4392:4414  stockholderList.length */\n      dup1\n      sload\n      swap1\n      pop\n        /* \"smart_contracts/Stocks.sol\":4392:4418  stockholderList.length - 1 */\n      tag_146\n      swap2\n      swap1\n      tag_147\n      jump\t// in\n    tag_146:\n        /* \"smart_contracts/Stocks.sol\":4376:4419  stockholderList[stockholderList.length - 1] */\n      dup2\n      sload\n      dup2\n      lt\n      tag_148\n      jumpi\n      tag_149\n      tag_141\n      jump\t// in\n    tag_149:\n    tag_148:\n      swap1\n      0x00\n      mstore\n      keccak256(0x00, 0x20)\n      add\n      0x00\n      swap1\n      sload\n      swap1\n      0x0100\n      exp\n      swap1\n      div\n      0xffffffffffffffffffffffffffffffffffffffff\n      and\n        /* \"smart_contracts/Stocks.sol\":4340:4355  stockholderList */\n      0x04\n        /* \"smart_contracts/Stocks.sol\":4356:4372  stockholderIndex */\n      dup3\n        /* \"smart_contracts/Stocks.sol\":4340:4373  stockholderList[stockholderIndex] */\n      dup2\n      sload\n      dup2\n      lt\n      tag_151\n      jumpi\n      tag_152\n      tag_141\n      jump\t// in\n    tag_152:\n    tag_151:\n      swap1\n      0x00\n      mstore\n      keccak256(0x00, 0x20)\n      add\n      0x00\n        /* \"smart_contracts/Stocks.sol\":4340:4419  stockholderList[stockholderIndex] = stockholderList[stockholderList.length - 1] */\n      0x0100\n      exp\n      dup2\n      sload\n      dup2\n      0xffffffffffffffffffffffffffffffffffffffff\n      mul\n      not\n      and\n      swap1\n      dup4\n      0xffffffffffffffffffffffffffffffffffffffff\n      and\n      mul\n      or\n      swap1\n      sstore\n      pop\n        /* \"smart_contracts/Stocks.sol\":4441:4456  stockholderList */\n      0x04\n        /* \"smart_contracts/Stocks.sol\":4482:4483  1 */\n      0x01\n        /* \"smart_contracts/Stocks.sol\":4457:4472  stockholderList */\n      0x04\n        /* \"smart_contracts/Stocks.sol\":4457:4479  stockholderList.length */\n      dup1\n      sload\n      swap1\n      pop\n        /* \"smart_contracts/Stocks.sol\":4457:4483  stockholderList.length - 1 */\n      tag_154\n      swap2\n      swap1\n      tag_147\n      jump\t// in\n    tag_154:\n        /* \"smart_contracts/Stocks.sol\":4441:4484  stockholderList[stockholderList.length - 1] */\n      dup2\n      sload\n      dup2\n      lt\n      tag_155\n      jumpi\n      tag_156\n      tag_141\n      jump\t// in\n    tag_156:\n    tag_155:\n      swap1\n      0x00\n      mstore\n      keccak256(0x00, 0x20)\n      add\n      0x00\n        /* \"smart_contracts/Stocks.sol\":4434:4484  delete stockholderList[stockholderList.length - 1] */\n      0x0100\n      exp\n      dup2\n      sload\n      swap1\n      0xffffffffffffffffffffffffffffffffffffffff\n      mul\n      not\n      and\n      swap1\n      sstore\n        /* \"smart_contracts/Stocks.sol\":4499:4514  stockholderList */\n      0x04\n        /* \"smart_contracts/Stocks.sol\":4499:4520  stockholderList.pop() */\n      dup1\n      sload\n      dup1\n      tag_158\n      jumpi\n      tag_159\n      tag_160\n      jump\t// in\n    tag_159:\n    tag_158:\n      0x01\n      swap1\n      sub\n      dup2\n      dup2\n      swap1\n      0x00\n      mstore\n      keccak256(0x00, 0x20)\n      add\n      exp(0x0100, 0x00)\n      dup2\n      sload\n      swap1\n      0xffffffffffffffffffffffffffffffffffffffff\n      mul\n      not\n      and\n      swap1\n      sstore\n      swap1\n      sstore\n        /* \"smart_contracts/Stocks.sol\":4008:4532  {\r... */\n      pop\n        /* \"smart_contracts/Stocks.sol\":3954:4532  if (stockholders[sellerStockholder].stocksCount == 0) {\r... */\n    tag_135:\n        /* \"smart_contracts/Stocks.sol\":4586:4587  0 */\n      0x00\n        /* \"smart_contracts/Stocks.sol\":4546:4558  stockholders */\n      0x03\n        /* \"smart_contracts/Stocks.sol\":4546:4570  stockholders[msg.sender] */\n      0x00\n        /* \"smart_contracts/Stocks.sol\":4559:4569  msg.sender */\n      caller\n        /* \"smart_contracts/Stocks.sol\":4546:4570  stockholders[msg.sender] */\n      0xffffffffffffffffffffffffffffffffffffffff\n      and\n      0xffffffffffffffffffffffffffffffffffffffff\n      and\n      dup2\n      mstore\n      0x20\n      add\n      swap1\n      dup2\n      mstore\n      0x20\n      add\n      0x00\n      keccak256\n        /* \"smart_contracts/Stocks.sol\":4546:4582  stockholders[msg.sender].stocksCount */\n      0x00\n      add\n      0x00\n      swap1\n      sload\n      swap1\n      0x0100\n      exp\n      swap1\n      div\n      0xffffffff\n      and\n        /* \"smart_contracts/Stocks.sol\":4546:4587  stockholders[msg.sender].stocksCount == 0 */\n      0xffffffff\n      and\n      eq\n        /* \"smart_contracts/Stocks.sol\":4542:4634  if (stockholders[msg.sender].stocksCount == 0)\r... */\n      iszero\n      tag_162\n      jumpi\n        /* \"smart_contracts/Stocks.sol\":4602:4617  stockholderList */\n      0x04\n        /* \"smart_contracts/Stocks.sol\":4623:4633  msg.sender */\n      caller\n        /* \"smart_contracts/Stocks.sol\":4602:4634  stockholderList.push(msg.sender) */\n      swap1\n      dup1\n      0x01\n      dup2\n      sload\n      add\n      dup1\n      dup3\n      sstore\n      dup1\n      swap2\n      pop\n      pop\n      0x01\n      swap1\n      sub\n      swap1\n      0x00\n      mstore\n      keccak256(0x00, 0x20)\n      add\n      0x00\n      swap1\n      swap2\n      swap1\n      swap2\n      swap1\n      swap2\n      0x0100\n      exp\n      dup2\n      sload\n      dup2\n      0xffffffffffffffffffffffffffffffffffffffff\n      mul\n      not\n      and\n      swap1\n      dup4\n      0xffffffffffffffffffffffffffffffffffffffff\n      and\n      mul\n      or\n      swap1\n      sstore\n      pop\n        /* \"smart_contracts/Stocks.sol\":4542:4634  if (stockholders[msg.sender].stocksCount == 0)\r... */\n    tag_162:\n        /* \"smart_contracts/Stocks.sol\":4685:4693  buyCount */\n      dup2\n        /* \"smart_contracts/Stocks.sol\":4645:4657  stockholders */\n      0x03\n        /* \"smart_contracts/Stocks.sol\":4645:4669  stockholders[msg.sender] */\n      0x00\n        /* \"smart_contracts/Stocks.sol\":4658:4668  msg.sender */\n      caller\n        /* \"smart_contracts/Stocks.sol\":4645:4669  stockholders[msg.sender] */\n      0xffffffffffffffffffffffffffffffffffffffff\n      and\n      0xffffffffffffffffffffffffffffffffffffffff\n      and\n      dup2\n      mstore\n      0x20\n      add\n      swap1\n      dup2\n      mstore\n      0x20\n      add\n      0x00\n      keccak256\n        /* \"smart_contracts/Stocks.sol\":4645:4681  stockholders[msg.sender].stocksCount */\n      0x00\n      add\n      0x00\n        /* \"smart_contracts/Stocks.sol\":4645:4693  stockholders[msg.sender].stocksCount += buyCount */\n      dup3\n      dup3\n      dup3\n      swap1\n      sload\n      swap1\n      0x0100\n      exp\n      swap1\n      div\n      0xffffffff\n      and\n      tag_164\n      swap2\n      swap1\n      tag_117\n      jump\t// in\n    tag_164:\n      swap3\n      pop\n      0x0100\n      exp\n      dup2\n      sload\n      dup2\n      0xffffffff\n      mul\n      not\n      and\n      swap1\n      dup4\n      0xffffffff\n      and\n      mul\n      or\n      swap1\n      sstore\n      pop\n        /* \"smart_contracts/Stocks.sol\":4737:4741  this */\n      address\n        /* \"smart_contracts/Stocks.sol\":4708:4742  sellerStockholder != address(this) */\n      0xffffffffffffffffffffffffffffffffffffffff\n      and\n        /* \"smart_contracts/Stocks.sol\":4708:4725  sellerStockholder */\n      dup4\n        /* \"smart_contracts/Stocks.sol\":4708:4742  sellerStockholder != address(this) */\n      0xffffffffffffffffffffffffffffffffffffffff\n      and\n      eq\n        /* \"smart_contracts/Stocks.sol\":4704:4801  if (sellerStockholder != address(this))\r... */\n      tag_165\n      jumpi\n        /* \"smart_contracts/Stocks.sol\":4757:4774  sellerStockholder */\n      dup3\n        /* \"smart_contracts/Stocks.sol\":4757:4783  sellerStockholder.transfer */\n      0xffffffffffffffffffffffffffffffffffffffff\n      and\n        /* \"smart_contracts/Stocks.sol\":4757:4801  sellerStockholder.transfer(transactionValue) */\n      0x08fc\n        /* \"smart_contracts/Stocks.sol\":4784:4800  transactionValue */\n      dup3\n        /* \"smart_contracts/Stocks.sol\":4757:4801  sellerStockholder.transfer(transactionValue) */\n      swap1\n      dup2\n      iszero\n      mul\n      swap1\n      mload(0x40)\n      0x00\n      mload(0x40)\n      dup1\n      dup4\n      sub\n      dup2\n      dup6\n      dup9\n      dup9\n      call\n      swap4\n      pop\n      pop\n      pop\n      pop\n      iszero\n      dup1\n      iszero\n      tag_167\n      jumpi\n      returndatasize\n      0x00\n      dup1\n      returndatacopy\n      revert(0x00, returndatasize)\n    tag_167:\n      pop\n        /* \"smart_contracts/Stocks.sol\":4704:4801  if (sellerStockholder != address(this))\r... */\n    tag_165:\n        /* \"smart_contracts/Stocks.sol\":4820:4830  msg.sender */\n      caller\n        /* \"smart_contracts/Stocks.sol\":4812:4840  payable(msg.sender).transfer */\n      0xffffffffffffffffffffffffffffffffffffffff\n      and\n        /* \"smart_contracts/Stocks.sol\":4812:4870  payable(msg.sender).transfer(msg.value - transactionValue) */\n      0x08fc\n        /* \"smart_contracts/Stocks.sol\":4853:4869  transactionValue */\n      dup3\n        /* \"smart_contracts/Stocks.sol\":4841:4850  msg.value */\n      callvalue\n        /* \"smart_contracts/Stocks.sol\":4841:4869  msg.value - transactionValue */\n      tag_168\n      swap2\n      swap1\n      tag_147\n      jump\t// in\n    tag_168:\n        /* \"smart_contracts/Stocks.sol\":4812:4870  payable(msg.sender).transfer(msg.value - transactionValue) */\n      swap1\n      dup2\n      iszero\n      mul\n      swap1\n      mload(0x40)\n      0x00\n      mload(0x40)\n      dup1\n      dup4\n      sub\n      dup2\n      dup6\n      dup9\n      dup9\n      call\n      swap4\n      pop\n      pop\n      pop\n      pop\n      iszero\n      dup1\n      iszero\n      tag_170\n      jumpi\n      returndatasize\n      0x00\n      dup1\n      returndatacopy\n      revert(0x00, returndatasize)\n    tag_170:\n      pop\n        /* \"smart_contracts/Stocks.sol\":3456:4878  {\r... */\n      pop\n        /* \"smart_contracts/Stocks.sol\":3370:4878  function buyStocks(address payable sellerStockholder, uint32 buyCount) public payable {\r... */\n      pop\n      pop\n      jump\t// out\n        /* \"smart_contracts/Stocks.sol\":672:723  mapping(uint256 => uint32) public dividendProposals */\n    tag_38:\n      mstore(0x20, 0x05)\n      dup1\n      0x00\n      mstore\n      keccak256(0x00, 0x40)\n      0x00\n      swap2\n      pop\n      sload\n      swap1\n      0x0100\n      exp\n      swap1\n      div\n      0xffffffff\n      and\n      dup2\n      jump\t// out\n        /* \"smart_contracts/Stocks.sol\":580:631  mapping(address => Stockholder) public stockholders */\n    tag_45:\n      mstore(0x20, 0x03)\n      dup1\n      0x00\n      mstore\n      keccak256(0x00, 0x40)\n      0x00\n      swap2\n      pop\n      swap1\n      pop\n      dup1\n      0x00\n      add\n      0x00\n      swap1\n      sload\n      swap1\n      0x0100\n      exp\n      swap1\n      div\n      0xffffffff\n      and\n      swap1\n      dup1\n      0x01\n      add\n      sload\n      swap1\n      dup1\n      0x02\n      add\n      0x00\n      swap1\n      sload\n      swap1\n      0x0100\n      exp\n      swap1\n      div\n      0xffffffff\n      and\n      swap1\n      dup1\n      0x02\n      add\n      0x04\n      swap1\n      sload\n      swap1\n      0x0100\n      exp\n      swap1\n      div\n      0xff\n      and\n      swap1\n      pop\n      dup5\n      jump\t// out\n        /* \"smart_contracts/Stocks.sol\":298:353  uint public constant minTimeToMakeProposals = 1 minutes */\n    tag_50:\n        /* \"smart_contracts/Stocks.sol\":344:353  1 minutes */\n      0x3c\n        /* \"smart_contracts/Stocks.sol\":298:353  uint public constant minTimeToMakeProposals = 1 minutes */\n      dup2\n      jump\t// out\n        /* \"smart_contracts/Stocks.sol\":2114:2371  function withdraw(address payable targetAddress) public isDirector {\r... */\n    tag_57:\n        /* \"smart_contracts/Stocks.sol\":1647:1655  director */\n      0x00\n      dup1\n      sload\n      swap1\n      0x0100\n      exp\n      swap1\n      div\n      0xffffffffffffffffffffffffffffffffffffffff\n      and\n        /* \"smart_contracts/Stocks.sol\":1633:1655  msg.sender == director */\n      0xffffffffffffffffffffffffffffffffffffffff\n      and\n        /* \"smart_contracts/Stocks.sol\":1633:1643  msg.sender */\n      caller\n        /* \"smart_contracts/Stocks.sol\":1633:1655  msg.sender == director */\n      0xffffffffffffffffffffffffffffffffffffffff\n      and\n      eq\n        /* \"smart_contracts/Stocks.sol\":1625:1682  require(msg.sender == director, \"Caller is not director\") */\n      tag_172\n      jumpi\n      mload(0x40)\n      0x08c379a000000000000000000000000000000000000000000000000000000000\n      dup2\n      mstore\n      0x04\n      add\n      tag_173\n      swap1\n      tag_174\n      jump\t// in\n    tag_173:\n      mload(0x40)\n      dup1\n      swap2\n      sub\n      swap1\n      revert\n    tag_172:\n        /* \"smart_contracts/Stocks.sol\":2201:2210  isMeeting */\n      0x02\n      0x00\n      swap1\n      sload\n      swap1\n      0x0100\n      exp\n      swap1\n      div\n      0xff\n      and\n        /* \"smart_contracts/Stocks.sol\":2200:2210  !isMeeting */\n      iszero\n        /* \"smart_contracts/Stocks.sol\":2192:2307  require(!isMeeting, \"You can't withdraw funds during the meeting, because it can make dividends impossible to pay\") */\n      tag_176\n      jumpi\n      mload(0x40)\n      0x08c379a000000000000000000000000000000000000000000000000000000000\n      dup2\n      mstore\n      0x04\n      add\n      tag_177\n      swap1\n      tag_178\n      jump\t// in\n    tag_177:\n      mload(0x40)\n      dup1\n      swap2\n      sub\n      swap1\n      revert\n    tag_176:\n        /* \"smart_contracts/Stocks.sol\":2318:2331  targetAddress */\n      dup1\n        /* \"smart_contracts/Stocks.sol\":2318:2340  targetAddress.transfer */\n      0xffffffffffffffffffffffffffffffffffffffff\n      and\n        /* \"smart_contracts/Stocks.sol\":2318:2363  targetAddress.transfer(address(this).balance) */\n      0x08fc\n        /* \"smart_contracts/Stocks.sol\":2341:2362  address(this).balance */\n      selfbalance\n        /* \"smart_contracts/Stocks.sol\":2318:2363  targetAddress.transfer(address(this).balance) */\n      swap1\n      dup2\n      iszero\n      mul\n      swap1\n      mload(0x40)\n      0x00\n      mload(0x40)\n      dup1\n      dup4\n      sub\n      dup2\n      dup6\n      dup9\n      dup9\n      call\n      swap4\n      pop\n      pop\n      pop\n      pop\n      iszero\n      dup1\n      iszero\n      tag_180\n      jumpi\n      returndatasize\n      0x00\n      dup1\n      returndatacopy\n      revert(0x00, returndatasize)\n    tag_180:\n      pop\n        /* \"smart_contracts/Stocks.sol\":2114:2371  function withdraw(address payable targetAddress) public isDirector {\r... */\n      pop\n      jump\t// out\n        /* \"smart_contracts/Stocks.sol\":414:437  address public director */\n    tag_60:\n      0x00\n      dup1\n      sload\n      swap1\n      0x0100\n      exp\n      swap1\n      div\n      0xffffffffffffffffffffffffffffffffffffffff\n      and\n      dup2\n      jump\t// out\n        /* \"smart_contracts/Stocks.sol\":239:291  uint public constant timeBetweenMeetings = 2 minutes */\n    tag_65:\n        /* \"smart_contracts/Stocks.sol\":282:291  2 minutes */\n      0x78\n        /* \"smart_contracts/Stocks.sol\":239:291  uint public constant timeBetweenMeetings = 2 minutes */\n      dup2\n      jump\t// out\n        /* \"smart_contracts/Stocks.sol\":3005:3362  function companySellOrder(uint256 sellPrice, uint32 sellCount) public isDirector {\r... */\n    tag_70:\n        /* \"smart_contracts/Stocks.sol\":1647:1655  director */\n      0x00\n      dup1\n      sload\n      swap1\n      0x0100\n      exp\n      swap1\n      div\n      0xffffffffffffffffffffffffffffffffffffffff\n      and\n        /* \"smart_contracts/Stocks.sol\":1633:1655  msg.sender == director */\n      0xffffffffffffffffffffffffffffffffffffffff\n      and\n        /* \"smart_contracts/Stocks.sol\":1633:1643  msg.sender */\n      caller\n        /* \"smart_contracts/Stocks.sol\":1633:1655  msg.sender == director */\n      0xffffffffffffffffffffffffffffffffffffffff\n      and\n      eq\n        /* \"smart_contracts/Stocks.sol\":1625:1682  require(msg.sender == director, \"Caller is not director\") */\n      tag_182\n      jumpi\n      mload(0x40)\n      0x08c379a000000000000000000000000000000000000000000000000000000000\n      dup2\n      mstore\n      0x04\n      add\n      tag_183\n      swap1\n      tag_174\n      jump\t// in\n    tag_183:\n      mload(0x40)\n      dup1\n      swap2\n      sub\n      swap1\n      revert\n    tag_182:\n        /* \"smart_contracts/Stocks.sol\":3148:3157  sellCount */\n      dup1\n        /* \"smart_contracts/Stocks.sol\":3105:3157  stockholders[address(this)].stocksCount >= sellCount */\n      0xffffffff\n      and\n        /* \"smart_contracts/Stocks.sol\":3105:3117  stockholders */\n      0x03\n        /* \"smart_contracts/Stocks.sol\":3105:3132  stockholders[address(this)] */\n      0x00\n        /* \"smart_contracts/Stocks.sol\":3126:3130  this */\n      address\n        /* \"smart_contracts/Stocks.sol\":3105:3132  stockholders[address(this)] */\n      0xffffffffffffffffffffffffffffffffffffffff\n      and\n      0xffffffffffffffffffffffffffffffffffffffff\n      and\n      dup2\n      mstore\n      0x20\n      add\n      swap1\n      dup2\n      mstore\n      0x20\n      add\n      0x00\n      keccak256\n        /* \"smart_contracts/Stocks.sol\":3105:3144  stockholders[address(this)].stocksCount */\n      0x00\n      add\n      0x00\n      swap1\n      sload\n      swap1\n      0x0100\n      exp\n      swap1\n      div\n      0xffffffff\n      and\n        /* \"smart_contracts/Stocks.sol\":3105:3157  stockholders[address(this)].stocksCount >= sellCount */\n      0xffffffff\n      and\n      lt\n      iszero\n        /* \"smart_contracts/Stocks.sol\":3097:3234  require(stockholders[address(this)].stocksCount >= sellCount, \"You are trying to create sell order for more stocks than the company has\") */\n      tag_185\n      jumpi\n      mload(0x40)\n      0x08c379a000000000000000000000000000000000000000000000000000000000\n      dup2\n      mstore\n      0x04\n      add\n      tag_186\n      swap1\n      tag_187\n      jump\t// in\n    tag_186:\n      mload(0x40)\n      dup1\n      swap2\n      sub\n      swap1\n      revert\n    tag_185:\n        /* \"smart_contracts/Stocks.sol\":3285:3294  sellPrice */\n      dup2\n        /* \"smart_contracts/Stocks.sol\":3245:3257  stockholders */\n      0x03\n        /* \"smart_contracts/Stocks.sol\":3245:3272  stockholders[address(this)] */\n      0x00\n        /* \"smart_contracts/Stocks.sol\":3266:3270  this */\n      address\n        /* \"smart_contracts/Stocks.sol\":3245:3272  stockholders[address(this)] */\n      0xffffffffffffffffffffffffffffffffffffffff\n      and\n      0xffffffffffffffffffffffffffffffffffffffff\n      and\n      dup2\n      mstore\n      0x20\n      add\n      swap1\n      dup2\n      mstore\n      0x20\n      add\n      0x00\n      keccak256\n        /* \"smart_contracts/Stocks.sol\":3245:3282  stockholders[address(this)].sellPrice */\n      0x01\n      add\n        /* \"smart_contracts/Stocks.sol\":3245:3294  stockholders[address(this)].sellPrice = sellPrice */\n      dup2\n      swap1\n      sstore\n      pop\n        /* \"smart_contracts/Stocks.sol\":3345:3354  sellCount */\n      dup1\n        /* \"smart_contracts/Stocks.sol\":3305:3317  stockholders */\n      0x03\n        /* \"smart_contracts/Stocks.sol\":3305:3332  stockholders[address(this)] */\n      0x00\n        /* \"smart_contracts/Stocks.sol\":3326:3330  this */\n      address\n        /* \"smart_contracts/Stocks.sol\":3305:3332  stockholders[address(this)] */\n      0xffffffffffffffffffffffffffffffffffffffff\n      and\n      0xffffffffffffffffffffffffffffffffffffffff\n      and\n      dup2\n      mstore\n      0x20\n      add\n      swap1\n      dup2\n      mstore\n      0x20\n      add\n      0x00\n      keccak256\n        /* \"smart_contracts/Stocks.sol\":3305:3342  stockholders[address(this)].sellCount */\n      0x02\n      add\n      0x00\n        /* \"smart_contracts/Stocks.sol\":3305:3354  stockholders[address(this)].sellCount = sellCount */\n      0x0100\n      exp\n      dup2\n      sload\n      dup2\n      0xffffffff\n      mul\n      not\n      and\n      swap1\n      dup4\n      0xffffffff\n      and\n      mul\n      or\n      swap1\n      sstore\n      pop\n        /* \"smart_contracts/Stocks.sol\":3005:3362  function companySellOrder(uint256 sellPrice, uint32 sellCount) public isDirector {\r... */\n      pop\n      pop\n      jump\t// out\n        /* \"smart_contracts/Stocks.sol\":360:403  uint public constant timeToVote = 1 minutes */\n    tag_73:\n        /* \"smart_contracts/Stocks.sol\":394:403  1 minutes */\n      0x3c\n        /* \"smart_contracts/Stocks.sol\":360:403  uint public constant timeToVote = 1 minutes */\n      dup2\n      jump\t// out\n        /* \"smart_contracts/Stocks.sol\":5148:5890  function makeDividendsProposal(uint256 dividendSize) public isStockholder {\r... */\n    tag_78:\n        /* \"smart_contracts/Stocks.sol\":1794:1795  0 */\n      0x00\n        /* \"smart_contracts/Stocks.sol\":1754:1766  stockholders */\n      0x03\n        /* \"smart_contracts/Stocks.sol\":1754:1778  stockholders[msg.sender] */\n      0x00\n        /* \"smart_contracts/Stocks.sol\":1767:1777  msg.sender */\n      caller\n        /* \"smart_contracts/Stocks.sol\":1754:1778  stockholders[msg.sender] */\n      0xffffffffffffffffffffffffffffffffffffffff\n      and\n      0xffffffffffffffffffffffffffffffffffffffff\n      and\n      dup2\n      mstore\n      0x20\n      add\n      swap1\n      dup2\n      mstore\n      0x20\n      add\n      0x00\n      keccak256\n        /* \"smart_contracts/Stocks.sol\":1754:1790  stockholders[msg.sender].stocksCount */\n      0x00\n      add\n      0x00\n      swap1\n      sload\n      swap1\n      0x0100\n      exp\n      swap1\n      div\n      0xffffffff\n      and\n        /* \"smart_contracts/Stocks.sol\":1754:1795  stockholders[msg.sender].stocksCount != 0 */\n      0xffffffff\n      and\n      eq\n      iszero\n        /* \"smart_contracts/Stocks.sol\":1746:1825  require(stockholders[msg.sender].stocksCount != 0, \"Caller is not stockholder\") */\n      tag_189\n      jumpi\n      mload(0x40)\n      0x08c379a000000000000000000000000000000000000000000000000000000000\n      dup2\n      mstore\n      0x04\n      add\n      tag_190\n      swap1\n      tag_96\n      jump\t// in\n    tag_190:\n      mload(0x40)\n      dup1\n      swap2\n      sub\n      swap1\n      revert\n    tag_189:\n        /* \"smart_contracts/Stocks.sol\":5281:5296  block.timestamp */\n      timestamp\n        /* \"smart_contracts/Stocks.sol\":282:291  2 minutes */\n      0x78\n        /* \"smart_contracts/Stocks.sol\":5241:5256  lastMeetingTime */\n      sload(0x01)\n        /* \"smart_contracts/Stocks.sol\":5241:5278  lastMeetingTime + timeBetweenMeetings */\n      tag_192\n      swap2\n      swap1\n      tag_105\n      jump\t// in\n    tag_192:\n        /* \"smart_contracts/Stocks.sol\":5241:5296  lastMeetingTime + timeBetweenMeetings > block.timestamp */\n      gt\n        /* \"smart_contracts/Stocks.sol\":5233:5325  require(lastMeetingTime + timeBetweenMeetings > block.timestamp, \"Meeting time hasn't come\") */\n      tag_193\n      jumpi\n      mload(0x40)\n      0x08c379a000000000000000000000000000000000000000000000000000000000\n      dup2\n      mstore\n      0x04\n      add\n      tag_194\n      swap1\n      tag_195\n      jump\t// in\n    tag_194:\n      mload(0x40)\n      dup1\n      swap2\n      sub\n      swap1\n      revert\n    tag_193:\n        /* \"smart_contracts/Stocks.sol\":5374:5395  address(this).balance */\n      selfbalance\n        /* \"smart_contracts/Stocks.sol\":5359:5370  stocksCount */\n      0x00\n      0x14\n      swap1\n      sload\n      swap1\n      0x0100\n      exp\n      swap1\n      div\n      0xffffffff\n      and\n        /* \"smart_contracts/Stocks.sol\":5344:5370  dividendSize * stocksCount */\n      0xffffffff\n      and\n        /* \"smart_contracts/Stocks.sol\":5344:5356  dividendSize */\n      dup3\n        /* \"smart_contracts/Stocks.sol\":5344:5370  dividendSize * stocksCount */\n      tag_196\n      swap2\n      swap1\n      tag_127\n      jump\t// in\n    tag_196:\n        /* \"smart_contracts/Stocks.sol\":5344:5395  dividendSize * stocksCount <= address(this).balance */\n      gt\n      iszero\n        /* \"smart_contracts/Stocks.sol\":5336:5461  require(dividendSize * stocksCount <= address(this).balance, \"Company doesn't have enough money to pay that large dividends\") */\n      tag_197\n      jumpi\n      mload(0x40)\n      0x08c379a000000000000000000000000000000000000000000000000000000000\n      dup2\n      mstore\n      0x04\n      add\n      tag_198\n      swap1\n      tag_199\n      jump\t// in\n    tag_198:\n      mload(0x40)\n      dup1\n      swap2\n      sub\n      swap1\n      revert\n    tag_197:\n        /* \"smart_contracts/Stocks.sol\":5546:5561  block.timestamp */\n      timestamp\n        /* \"smart_contracts/Stocks.sol\":344:353  1 minutes */\n      0x3c\n        /* \"smart_contracts/Stocks.sol\":282:291  2 minutes */\n      0x78\n        /* \"smart_contracts/Stocks.sol\":5480:5495  lastMeetingTime */\n      sload(0x01)\n        /* \"smart_contracts/Stocks.sol\":5480:5517  lastMeetingTime + timeBetweenMeetings */\n      tag_200\n      swap2\n      swap1\n      tag_105\n      jump\t// in\n    tag_200:\n        /* \"smart_contracts/Stocks.sol\":5480:5542  lastMeetingTime + timeBetweenMeetings + minTimeToMakeProposals */\n      tag_201\n      swap2\n      swap1\n      tag_105\n      jump\t// in\n    tag_201:\n        /* \"smart_contracts/Stocks.sol\":5480:5561  lastMeetingTime + timeBetweenMeetings + minTimeToMakeProposals <= block.timestamp */\n      gt\n      iszero\n        /* \"smart_contracts/Stocks.sol\":5472:5606  require(lastMeetingTime + timeBetweenMeetings + minTimeToMakeProposals <= block.timestamp, \"Proposal time for this meeting has ended\") */\n      tag_202\n      jumpi\n      mload(0x40)\n      0x08c379a000000000000000000000000000000000000000000000000000000000\n      dup2\n      mstore\n      0x04\n      add\n      tag_203\n      swap1\n      tag_204\n      jump\t// in\n    tag_203:\n      mload(0x40)\n      dup1\n      swap2\n      sub\n      swap1\n      revert\n    tag_202:\n        /* \"smart_contracts/Stocks.sol\":5629:5633  true */\n      0x01\n        /* \"smart_contracts/Stocks.sol\":5617:5626  isMeeting */\n      0x02\n      0x00\n        /* \"smart_contracts/Stocks.sol\":5617:5633  isMeeting = true */\n      0x0100\n      exp\n      dup2\n      sload\n      dup2\n      0xff\n      mul\n      not\n      and\n      swap1\n      dup4\n      iszero\n      iszero\n      mul\n      or\n      swap1\n      sstore\n      pop\n        /* \"smart_contracts/Stocks.sol\":5830:5831  1 */\n      0x01\n        /* \"smart_contracts/Stocks.sol\":5796:5813  dividendProposals */\n      0x05\n        /* \"smart_contracts/Stocks.sol\":5796:5827  dividendProposals[dividendSize] */\n      0x00\n        /* \"smart_contracts/Stocks.sol\":5814:5826  dividendSize */\n      dup4\n        /* \"smart_contracts/Stocks.sol\":5796:5827  dividendProposals[dividendSize] */\n      dup2\n      mstore\n      0x20\n      add\n      swap1\n      dup2\n      mstore\n      0x20\n      add\n      0x00\n      keccak256\n      0x00\n        /* \"smart_contracts/Stocks.sol\":5796:5831  dividendProposals[dividendSize] = 1 */\n      0x0100\n      exp\n      dup2\n      sload\n      dup2\n      0xffffffff\n      mul\n      not\n      and\n      swap1\n      dup4\n      0xffffffff\n      and\n      mul\n      or\n      swap1\n      sstore\n      pop\n        /* \"smart_contracts/Stocks.sol\":5842:5863  proposedDividendSizes */\n      0x06\n        /* \"smart_contracts/Stocks.sol\":5869:5881  dividendSize */\n      dup2\n        /* \"smart_contracts/Stocks.sol\":5842:5882  proposedDividendSizes.push(dividendSize) */\n      swap1\n      dup1\n      0x01\n      dup2\n      sload\n      add\n      dup1\n      dup3\n      sstore\n      dup1\n      swap2\n      pop\n      pop\n      0x01\n      swap1\n      sub\n      swap1\n      0x00\n      mstore\n      keccak256(0x00, 0x20)\n      add\n      0x00\n      swap1\n      swap2\n      swap1\n      swap2\n      swap1\n      swap2\n      pop\n      sstore\n        /* \"smart_contracts/Stocks.sol\":5148:5890  function makeDividendsProposal(uint256 dividendSize) public isStockholder {\r... */\n      pop\n      jump\t// out\n        /* \"smart_contracts/Stocks.sol\":444:469  uint32 public stocksCount */\n    tag_81:\n      0x00\n      0x14\n      swap1\n      sload\n      swap1\n      0x0100\n      exp\n      swap1\n      div\n      0xffffffff\n      and\n      dup2\n      jump\t// out\n        /* \"smart_contracts/Stocks.sol\":2070:2106  function deposit() public payable {} */\n    tag_84:\n      jump\t// out\n        /* \"smart_contracts/Stocks.sol\":6561:7566  function payDividends() public isStockholder {\r... */\n    tag_87:\n        /* \"smart_contracts/Stocks.sol\":1794:1795  0 */\n      0x00\n        /* \"smart_contracts/Stocks.sol\":1754:1766  stockholders */\n      0x03\n        /* \"smart_contracts/Stocks.sol\":1754:1778  stockholders[msg.sender] */\n      0x00\n        /* \"smart_contracts/Stocks.sol\":1767:1777  msg.sender */\n      caller\n        /* \"smart_contracts/Stocks.sol\":1754:1778  stockholders[msg.sender] */\n      0xffffffffffffffffffffffffffffffffffffffff\n      and\n      0xffffffffffffffffffffffffffffffffffffffff\n      and\n      dup2\n      mstore\n      0x20\n      add\n      swap1\n      dup2\n      mstore\n      0x20\n      add\n      0x00\n      keccak256\n        /* \"smart_contracts/Stocks.sol\":1754:1790  stockholders[msg.sender].stocksCount */\n      0x00\n      add\n      0x00\n      swap1\n      sload\n      swap1\n      0x0100\n      exp\n      swap1\n      div\n      0xffffffff\n      and\n        /* \"smart_contracts/Stocks.sol\":1754:1795  stockholders[msg.sender].stocksCount != 0 */\n      0xffffffff\n      and\n      eq\n      iszero\n        /* \"smart_contracts/Stocks.sol\":1746:1825  require(stockholders[msg.sender].stocksCount != 0, \"Caller is not stockholder\") */\n      tag_208\n      jumpi\n      mload(0x40)\n      0x08c379a000000000000000000000000000000000000000000000000000000000\n      dup2\n      mstore\n      0x04\n      add\n      tag_209\n      swap1\n      tag_96\n      jump\t// in\n    tag_209:\n      mload(0x40)\n      dup1\n      swap2\n      sub\n      swap1\n      revert\n    tag_208:\n        /* \"smart_contracts/Stocks.sol\":6703:6718  block.timestamp */\n      timestamp\n        /* \"smart_contracts/Stocks.sol\":394:403  1 minutes */\n      0x3c\n        /* \"smart_contracts/Stocks.sol\":344:353  1 minutes */\n      dup1\n        /* \"smart_contracts/Stocks.sol\":282:291  2 minutes */\n      0x78\n        /* \"smart_contracts/Stocks.sol\":6625:6640  lastMeetingTime */\n      sload(0x01)\n        /* \"smart_contracts/Stocks.sol\":6625:6662  lastMeetingTime + timeBetweenMeetings */\n      tag_211\n      swap2\n      swap1\n      tag_105\n      jump\t// in\n    tag_211:\n        /* \"smart_contracts/Stocks.sol\":6625:6687  lastMeetingTime + timeBetweenMeetings + minTimeToMakeProposals */\n      tag_212\n      swap2\n      swap1\n      tag_105\n      jump\t// in\n    tag_212:\n        /* \"smart_contracts/Stocks.sol\":6625:6700  lastMeetingTime + timeBetweenMeetings + minTimeToMakeProposals + timeToVote */\n      tag_213\n      swap2\n      swap1\n      tag_105\n      jump\t// in\n    tag_213:\n        /* \"smart_contracts/Stocks.sol\":6625:6718  lastMeetingTime + timeBetweenMeetings + minTimeToMakeProposals + timeToVote > block.timestamp */\n      gt\n        /* \"smart_contracts/Stocks.sol\":6617:6756  require(lastMeetingTime + timeBetweenMeetings + minTimeToMakeProposals + timeToVote > block.timestamp, \"Dividends paying time hasn't come\") */\n      tag_214\n      jumpi\n      mload(0x40)\n      0x08c379a000000000000000000000000000000000000000000000000000000000\n      dup2\n      mstore\n      0x04\n      add\n      tag_215\n      swap1\n      tag_216\n      jump\t// in\n    tag_215:\n      mload(0x40)\n      dup1\n      swap2\n      sub\n      swap1\n      revert\n    tag_214:\n        /* \"smart_contracts/Stocks.sol\":6775:6784  isMeeting */\n      0x02\n      0x00\n      swap1\n      sload\n      swap1\n      0x0100\n      exp\n      swap1\n      div\n      0xff\n      and\n        /* \"smart_contracts/Stocks.sol\":6767:6839  require(isMeeting, \"Dividends can only be paid at the end of a meeting\") */\n      tag_217\n      jumpi\n      mload(0x40)\n      0x08c379a000000000000000000000000000000000000000000000000000000000\n      dup2\n      mstore\n      0x04\n      add\n      tag_218\n      swap1\n      tag_219\n      jump\t// in\n    tag_218:\n      mload(0x40)\n      dup1\n      swap2\n      sub\n      swap1\n      revert\n    tag_217:\n        /* \"smart_contracts/Stocks.sol\":6850:6866  uint32 max_votes */\n      0x00\n        /* \"smart_contracts/Stocks.sol\":6881:6909  uint256 most_voted_dividends */\n      dup1\n        /* \"smart_contracts/Stocks.sol\":6929:6935  uint i */\n      0x00\n        /* \"smart_contracts/Stocks.sol\":6924:7288  for (uint i = 0; i < proposedDividendSizes.length; i++) {\r... */\n    tag_220:\n        /* \"smart_contracts/Stocks.sol\":6945:6966  proposedDividendSizes */\n      0x06\n        /* \"smart_contracts/Stocks.sol\":6945:6973  proposedDividendSizes.length */\n      dup1\n      sload\n      swap1\n      pop\n        /* \"smart_contracts/Stocks.sol\":6941:6942  i */\n      dup2\n        /* \"smart_contracts/Stocks.sol\":6941:6973  i < proposedDividendSizes.length */\n      lt\n        /* \"smart_contracts/Stocks.sol\":6924:7288  for (uint i = 0; i < proposedDividendSizes.length; i++) {\r... */\n      iszero\n      tag_221\n      jumpi\n        /* \"smart_contracts/Stocks.sol\":7045:7054  max_votes */\n      dup3\n        /* \"smart_contracts/Stocks.sol\":6999:7054  dividendProposals[proposedDividendSizes[i]] > max_votes */\n      0xffffffff\n      and\n        /* \"smart_contracts/Stocks.sol\":6999:7016  dividendProposals */\n      0x05\n        /* \"smart_contracts/Stocks.sol\":6999:7042  dividendProposals[proposedDividendSizes[i]] */\n      0x00\n        /* \"smart_contracts/Stocks.sol\":7017:7038  proposedDividendSizes */\n      0x06\n        /* \"smart_contracts/Stocks.sol\":7039:7040  i */\n      dup5\n        /* \"smart_contracts/Stocks.sol\":7017:7041  proposedDividendSizes[i] */\n      dup2\n      sload\n      dup2\n      lt\n      tag_223\n      jumpi\n      tag_224\n      tag_141\n      jump\t// in\n    tag_224:\n    tag_223:\n      swap1\n      0x00\n      mstore\n      keccak256(0x00, 0x20)\n      add\n      sload\n        /* \"smart_contracts/Stocks.sol\":6999:7042  dividendProposals[proposedDividendSizes[i]] */\n      dup2\n      mstore\n      0x20\n      add\n      swap1\n      dup2\n      mstore\n      0x20\n      add\n      0x00\n      keccak256\n      0x00\n      swap1\n      sload\n      swap1\n      0x0100\n      exp\n      swap1\n      div\n      0xffffffff\n      and\n        /* \"smart_contracts/Stocks.sol\":6999:7054  dividendProposals[proposedDividendSizes[i]] > max_votes */\n      0xffffffff\n      and\n      gt\n        /* \"smart_contracts/Stocks.sol\":6995:7212  if (dividendProposals[proposedDividendSizes[i]] > max_votes) {\r... */\n      iszero\n      tag_226\n      jumpi\n        /* \"smart_contracts/Stocks.sol\":7087:7104  dividendProposals */\n      0x05\n        /* \"smart_contracts/Stocks.sol\":7087:7130  dividendProposals[proposedDividendSizes[i]] */\n      0x00\n        /* \"smart_contracts/Stocks.sol\":7105:7126  proposedDividendSizes */\n      0x06\n        /* \"smart_contracts/Stocks.sol\":7127:7128  i */\n      dup4\n        /* \"smart_contracts/Stocks.sol\":7105:7129  proposedDividendSizes[i] */\n      dup2\n      sload\n      dup2\n      lt\n      tag_227\n      jumpi\n      tag_228\n      tag_141\n      jump\t// in\n    tag_228:\n    tag_227:\n      swap1\n      0x00\n      mstore\n      keccak256(0x00, 0x20)\n      add\n      sload\n        /* \"smart_contracts/Stocks.sol\":7087:7130  dividendProposals[proposedDividendSizes[i]] */\n      dup2\n      mstore\n      0x20\n      add\n      swap1\n      dup2\n      mstore\n      0x20\n      add\n      0x00\n      keccak256\n      0x00\n      swap1\n      sload\n      swap1\n      0x0100\n      exp\n      swap1\n      div\n      0xffffffff\n      and\n        /* \"smart_contracts/Stocks.sol\":7075:7130  max_votes = dividendProposals[proposedDividendSizes[i]] */\n      swap3\n      pop\n        /* \"smart_contracts/Stocks.sol\":7172:7193  proposedDividendSizes */\n      0x06\n        /* \"smart_contracts/Stocks.sol\":7194:7195  i */\n      dup2\n        /* \"smart_contracts/Stocks.sol\":7172:7196  proposedDividendSizes[i] */\n      dup2\n      sload\n      dup2\n      lt\n      tag_230\n      jumpi\n      tag_231\n      tag_141\n      jump\t// in\n    tag_231:\n    tag_230:\n      swap1\n      0x00\n      mstore\n      keccak256(0x00, 0x20)\n      add\n      sload\n        /* \"smart_contracts/Stocks.sol\":7149:7196  most_voted_dividends = proposedDividendSizes[i] */\n      swap2\n      pop\n        /* \"smart_contracts/Stocks.sol\":6995:7212  if (dividendProposals[proposedDividendSizes[i]] > max_votes) {\r... */\n    tag_226:\n        /* \"smart_contracts/Stocks.sol\":7233:7250  dividendProposals */\n      0x05\n        /* \"smart_contracts/Stocks.sol\":7233:7276  dividendProposals[proposedDividendSizes[i]] */\n      0x00\n        /* \"smart_contracts/Stocks.sol\":7251:7272  proposedDividendSizes */\n      0x06\n        /* \"smart_contracts/Stocks.sol\":7273:7274  i */\n      dup4\n        /* \"smart_contracts/Stocks.sol\":7251:7275  proposedDividendSizes[i] */\n      dup2\n      sload\n      dup2\n      lt\n      tag_233\n      jumpi\n      tag_234\n      tag_141\n      jump\t// in\n    tag_234:\n    tag_233:\n      swap1\n      0x00\n      mstore\n      keccak256(0x00, 0x20)\n      add\n      sload\n        /* \"smart_contracts/Stocks.sol\":7233:7276  dividendProposals[proposedDividendSizes[i]] */\n      dup2\n      mstore\n      0x20\n      add\n      swap1\n      dup2\n      mstore\n      0x20\n      add\n      0x00\n      keccak256\n      0x00\n        /* \"smart_contracts/Stocks.sol\":7226:7276  delete dividendProposals[proposedDividendSizes[i]] */\n      0x0100\n      exp\n      dup2\n      sload\n      swap1\n      0xffffffff\n      mul\n      not\n      and\n      swap1\n      sstore\n        /* \"smart_contracts/Stocks.sol\":6975:6978  i++ */\n      dup1\n      dup1\n      tag_236\n      swap1\n      tag_145\n      jump\t// in\n    tag_236:\n      swap2\n      pop\n      pop\n        /* \"smart_contracts/Stocks.sol\":6924:7288  for (uint i = 0; i < proposedDividendSizes.length; i++) {\r... */\n      jump(tag_220)\n    tag_221:\n      pop\n        /* \"smart_contracts/Stocks.sol\":7306:7327  proposedDividendSizes */\n      0x06\n      0x00\n        /* \"smart_contracts/Stocks.sol\":7299:7327  delete proposedDividendSizes */\n      tag_237\n      swap2\n      swap1\n      tag_238\n      jump\t// in\n    tag_237:\n        /* \"smart_contracts/Stocks.sol\":7343:7349  uint i */\n      0x00\n        /* \"smart_contracts/Stocks.sol\":7338:7531  for (uint i = 0; i < stockholderList.length; i++) {\r... */\n    tag_239:\n        /* \"smart_contracts/Stocks.sol\":7359:7374  stockholderList */\n      0x04\n        /* \"smart_contracts/Stocks.sol\":7359:7381  stockholderList.length */\n      dup1\n      sload\n      swap1\n      pop\n        /* \"smart_contracts/Stocks.sol\":7355:7356  i */\n      dup2\n        /* \"smart_contracts/Stocks.sol\":7355:7381  i < stockholderList.length */\n      lt\n        /* \"smart_contracts/Stocks.sol\":7338:7531  for (uint i = 0; i < stockholderList.length; i++) {\r... */\n      iszero\n      tag_240\n      jumpi\n        /* \"smart_contracts/Stocks.sol\":7437:7441  this */\n      address\n        /* \"smart_contracts/Stocks.sol\":7407:7442  stockholderList[i] != address(this) */\n      0xffffffffffffffffffffffffffffffffffffffff\n      and\n        /* \"smart_contracts/Stocks.sol\":7407:7422  stockholderList */\n      0x04\n        /* \"smart_contracts/Stocks.sol\":7423:7424  i */\n      dup3\n        /* \"smart_contracts/Stocks.sol\":7407:7425  stockholderList[i] */\n      dup2\n      sload\n      dup2\n      lt\n      tag_242\n      jumpi\n      tag_243\n      tag_141\n      jump\t// in\n    tag_243:\n    tag_242:\n      swap1\n      0x00\n      mstore\n      keccak256(0x00, 0x20)\n      add\n      0x00\n      swap1\n      sload\n      swap1\n      0x0100\n      exp\n      swap1\n      div\n      0xffffffffffffffffffffffffffffffffffffffff\n      and\n        /* \"smart_contracts/Stocks.sol\":7407:7442  stockholderList[i] != address(this) */\n      0xffffffffffffffffffffffffffffffffffffffff\n      and\n      eq\n        /* \"smart_contracts/Stocks.sol\":7403:7519  if (stockholderList[i] != address(this))\r... */\n      tag_245\n      jumpi\n        /* \"smart_contracts/Stocks.sol\":7469:7484  stockholderList */\n      0x04\n        /* \"smart_contracts/Stocks.sol\":7485:7486  i */\n      dup2\n        /* \"smart_contracts/Stocks.sol\":7469:7487  stockholderList[i] */\n      dup2\n      sload\n      dup2\n      lt\n      tag_246\n      jumpi\n      tag_247\n      tag_141\n      jump\t// in\n    tag_247:\n    tag_246:\n      swap1\n      0x00\n      mstore\n      keccak256(0x00, 0x20)\n      add\n      0x00\n      swap1\n      sload\n      swap1\n      0x0100\n      exp\n      swap1\n      div\n      0xffffffffffffffffffffffffffffffffffffffff\n      and\n        /* \"smart_contracts/Stocks.sol\":7461:7497  payable(stockholderList[i]).transfer */\n      0xffffffffffffffffffffffffffffffffffffffff\n      and\n        /* \"smart_contracts/Stocks.sol\":7461:7519  payable(stockholderList[i]).transfer(most_voted_dividends) */\n      0x08fc\n        /* \"smart_contracts/Stocks.sol\":7498:7518  most_voted_dividends */\n      dup4\n        /* \"smart_contracts/Stocks.sol\":7461:7519  payable(stockholderList[i]).transfer(most_voted_dividends) */\n      swap1\n      dup2\n      iszero\n      mul\n      swap1\n      mload(0x40)\n      0x00\n      mload(0x40)\n      dup1\n      dup4\n      sub\n      dup2\n      dup6\n      dup9\n      dup9\n      call\n      swap4\n      pop\n      pop\n      pop\n      pop\n      iszero\n      dup1\n      iszero\n      tag_250\n      jumpi\n      returndatasize\n      0x00\n      dup1\n      returndatacopy\n      revert(0x00, returndatasize)\n    tag_250:\n      pop\n        /* \"smart_contracts/Stocks.sol\":7403:7519  if (stockholderList[i] != address(this))\r... */\n    tag_245:\n        /* \"smart_contracts/Stocks.sol\":7383:7386  i++ */\n      dup1\n      dup1\n      tag_251\n      swap1\n      tag_145\n      jump\t// in\n    tag_251:\n      swap2\n      pop\n      pop\n        /* \"smart_contracts/Stocks.sol\":7338:7531  for (uint i = 0; i < stockholderList.length; i++) {\r... */\n      jump(tag_239)\n    tag_240:\n      pop\n        /* \"smart_contracts/Stocks.sol\":7553:7558  false */\n      0x00\n        /* \"smart_contracts/Stocks.sol\":7541:7550  isMeeting */\n      0x02\n      0x00\n        /* \"smart_contracts/Stocks.sol\":7541:7558  isMeeting = false */\n      0x0100\n      exp\n      dup2\n      sload\n      dup2\n      0xff\n      mul\n      not\n      and\n      swap1\n      dup4\n      iszero\n      iszero\n      mul\n      or\n      swap1\n      sstore\n      pop\n        /* \"smart_contracts/Stocks.sol\":6606:7566  {\r... */\n      pop\n      pop\n        /* \"smart_contracts/Stocks.sol\":6561:7566  function payDividends() public isStockholder {\r... */\n      jump\t// out\n        /* \"smart_contracts/Stocks.sol\":2379:2666  function withdraw(address payable targetAddress, uint256 amount) public isDirector notLargerThanBalance(amount) {\r... */\n    tag_92:\n        /* \"smart_contracts/Stocks.sol\":1647:1655  director */\n      0x00\n      dup1\n      sload\n      swap1\n      0x0100\n      exp\n      swap1\n      div\n      0xffffffffffffffffffffffffffffffffffffffff\n      and\n        /* \"smart_contracts/Stocks.sol\":1633:1655  msg.sender == director */\n      0xffffffffffffffffffffffffffffffffffffffff\n      and\n        /* \"smart_contracts/Stocks.sol\":1633:1643  msg.sender */\n      caller\n        /* \"smart_contracts/Stocks.sol\":1633:1655  msg.sender == director */\n      0xffffffffffffffffffffffffffffffffffffffff\n      and\n      eq\n        /* \"smart_contracts/Stocks.sol\":1625:1682  require(msg.sender == director, \"Caller is not director\") */\n      tag_253\n      jumpi\n      mload(0x40)\n      0x08c379a000000000000000000000000000000000000000000000000000000000\n      dup2\n      mstore\n      0x04\n      add\n      tag_254\n      swap1\n      tag_174\n      jump\t// in\n    tag_254:\n      mload(0x40)\n      dup1\n      swap2\n      sub\n      swap1\n      revert\n    tag_253:\n        /* \"smart_contracts/Stocks.sol\":2483:2489  amount */\n      dup1\n        /* \"smart_contracts/Stocks.sol\":1943:1949  amount */\n      dup1\n        /* \"smart_contracts/Stocks.sol\":1918:1939  address(this).balance */\n      selfbalance\n        /* \"smart_contracts/Stocks.sol\":1918:1949  address(this).balance >= amount */\n      lt\n      iszero\n        /* \"smart_contracts/Stocks.sol\":1910:1983  require(address(this).balance >= amount, \"Amount is larger than balance\") */\n      tag_256\n      jumpi\n      mload(0x40)\n      0x08c379a000000000000000000000000000000000000000000000000000000000\n      dup2\n      mstore\n      0x04\n      add\n      tag_257\n      swap1\n      tag_258\n      jump\t// in\n    tag_257:\n      mload(0x40)\n      dup1\n      swap2\n      sub\n      swap1\n      revert\n    tag_256:\n        /* \"smart_contracts/Stocks.sol\":2511:2520  isMeeting */\n      0x02\n      0x00\n      swap1\n      sload\n      swap1\n      0x0100\n      exp\n      swap1\n      div\n      0xff\n      and\n        /* \"smart_contracts/Stocks.sol\":2510:2520  !isMeeting */\n      iszero\n        /* \"smart_contracts/Stocks.sol\":2502:2617  require(!isMeeting, \"You can't withdraw funds during the meeting, because it can make dividends impossible to pay\") */\n      tag_260\n      jumpi\n      mload(0x40)\n      0x08c379a000000000000000000000000000000000000000000000000000000000\n      dup2\n      mstore\n      0x04\n      add\n      tag_261\n      swap1\n      tag_178\n      jump\t// in\n    tag_261:\n      mload(0x40)\n      dup1\n      swap2\n      sub\n      swap1\n      revert\n    tag_260:\n        /* \"smart_contracts/Stocks.sol\":2628:2641  targetAddress */\n      dup3\n        /* \"smart_contracts/Stocks.sol\":2628:2650  targetAddress.transfer */\n      0xffffffffffffffffffffffffffffffffffffffff\n      and\n        /* \"smart_contracts/Stocks.sol\":2628:2658  targetAddress.transfer(amount) */\n      0x08fc\n        /* \"smart_contracts/Stocks.sol\":2651:2657  amount */\n      dup4\n        /* \"smart_contracts/Stocks.sol\":2628:2658  targetAddress.transfer(amount) */\n      swap1\n      dup2\n      iszero\n      mul\n      swap1\n      mload(0x40)\n      0x00\n      mload(0x40)\n      dup1\n      dup4\n      sub\n      dup2\n      dup6\n      dup9\n      dup9\n      call\n      swap4\n      pop\n      pop\n      pop\n      pop\n      iszero\n      dup1\n      iszero\n      tag_263\n      jumpi\n      returndatasize\n      0x00\n      dup1\n      returndatacopy\n      revert(0x00, returndatasize)\n    tag_263:\n      pop\n        /* \"smart_contracts/Stocks.sol\":1693:1694  _ */\n      pop\n        /* \"smart_contracts/Stocks.sol\":2379:2666  function withdraw(address payable targetAddress, uint256 amount) public isDirector notLargerThanBalance(amount) {\r... */\n      pop\n      pop\n      jump\t// out\n    tag_238:\n      pop\n      dup1\n      sload\n      0x00\n      dup3\n      sstore\n      swap1\n      0x00\n      mstore\n      keccak256(0x00, 0x20)\n      swap1\n      dup2\n      add\n      swap1\n      tag_265\n      swap2\n      swap1\n      tag_266\n      jump\t// in\n    tag_265:\n      pop\n      jump\t// out\n    tag_266:\n    tag_267:\n      dup1\n      dup3\n      gt\n      iszero\n      tag_268\n      jumpi\n      0x00\n      dup2\n      0x00\n      swap1\n      sstore\n      pop\n      0x01\n      add\n      jump(tag_267)\n    tag_268:\n      pop\n      swap1\n      jump\t// out\n        /* \"#utility.yul\":7:146   */\n    tag_270:\n        /* \"#utility.yul\":53:58   */\n      0x00\n        /* \"#utility.yul\":91:97   */\n      dup2\n        /* \"#utility.yul\":78:98   */\n      calldataload\n        /* \"#utility.yul\":69:98   */\n      swap1\n      pop\n        /* \"#utility.yul\":107:140   */\n      tag_272\n        /* \"#utility.yul\":134:139   */\n      dup2\n        /* \"#utility.yul\":107:140   */\n      tag_273\n      jump\t// in\n    tag_272:\n        /* \"#utility.yul\":7:146   */\n      swap3\n      swap2\n      pop\n      pop\n      jump\t// out\n        /* \"#utility.yul\":152:307   */\n    tag_274:\n        /* \"#utility.yul\":206:211   */\n      0x00\n        /* \"#utility.yul\":244:250   */\n      dup2\n        /* \"#utility.yul\":231:251   */\n      calldataload\n        /* \"#utility.yul\":222:251   */\n      swap1\n      pop\n        /* \"#utility.yul\":260:301   */\n      tag_276\n        /* \"#utility.yul\":295:300   */\n      dup2\n        /* \"#utility.yul\":260:301   */\n      tag_277\n      jump\t// in\n    tag_276:\n        /* \"#utility.yul\":152:307   */\n      swap3\n      swap2\n      pop\n      pop\n      jump\t// out\n        /* \"#utility.yul\":313:452   */\n    tag_278:\n        /* \"#utility.yul\":359:364   */\n      0x00\n        /* \"#utility.yul\":397:403   */\n      dup2\n        /* \"#utility.yul\":384:404   */\n      calldataload\n        /* \"#utility.yul\":375:404   */\n      swap1\n      pop\n        /* \"#utility.yul\":413:446   */\n      tag_280\n        /* \"#utility.yul\":440:445   */\n      dup2\n        /* \"#utility.yul\":413:446   */\n      tag_281\n      jump\t// in\n    tag_280:\n        /* \"#utility.yul\":313:452   */\n      swap3\n      swap2\n      pop\n      pop\n      jump\t// out\n        /* \"#utility.yul\":458:595   */\n    tag_282:\n        /* \"#utility.yul\":503:508   */\n      0x00\n        /* \"#utility.yul\":541:547   */\n      dup2\n        /* \"#utility.yul\":528:548   */\n      calldataload\n        /* \"#utility.yul\":519:548   */\n      swap1\n      pop\n        /* \"#utility.yul\":557:589   */\n      tag_284\n        /* \"#utility.yul\":583:588   */\n      dup2\n        /* \"#utility.yul\":557:589   */\n      tag_285\n      jump\t// in\n    tag_284:\n        /* \"#utility.yul\":458:595   */\n      swap3\n      swap2\n      pop\n      pop\n      jump\t// out\n        /* \"#utility.yul\":601:930   */\n    tag_44:\n        /* \"#utility.yul\":660:666   */\n      0x00\n        /* \"#utility.yul\":709:711   */\n      0x20\n        /* \"#utility.yul\":697:706   */\n      dup3\n        /* \"#utility.yul\":688:695   */\n      dup5\n        /* \"#utility.yul\":684:707   */\n      sub\n        /* \"#utility.yul\":680:712   */\n      slt\n        /* \"#utility.yul\":677:796   */\n      iszero\n      tag_287\n      jumpi\n        /* \"#utility.yul\":715:794   */\n      tag_288\n      tag_289\n      jump\t// in\n    tag_288:\n        /* \"#utility.yul\":677:796   */\n    tag_287:\n        /* \"#utility.yul\":835:836   */\n      0x00\n        /* \"#utility.yul\":860:913   */\n      tag_290\n        /* \"#utility.yul\":905:912   */\n      dup5\n        /* \"#utility.yul\":896:902   */\n      dup3\n        /* \"#utility.yul\":885:894   */\n      dup6\n        /* \"#utility.yul\":881:903   */\n      add\n        /* \"#utility.yul\":860:913   */\n      tag_270\n      jump\t// in\n    tag_290:\n        /* \"#utility.yul\":850:913   */\n      swap2\n      pop\n        /* \"#utility.yul\":806:923   */\n      pop\n        /* \"#utility.yul\":601:930   */\n      swap3\n      swap2\n      pop\n      pop\n      jump\t// out\n        /* \"#utility.yul\":936:1281   */\n    tag_56:\n        /* \"#utility.yul\":1003:1009   */\n      0x00\n        /* \"#utility.yul\":1052:1054   */\n      0x20\n        /* \"#utility.yul\":1040:1049   */\n      dup3\n        /* \"#utility.yul\":1031:1038   */\n      dup5\n        /* \"#utility.yul\":1027:1050   */\n      sub\n        /* \"#utility.yul\":1023:1055   */\n      slt\n        /* \"#utility.yul\":1020:1139   */\n      iszero\n      tag_292\n      jumpi\n        /* \"#utility.yul\":1058:1137   */\n      tag_293\n      tag_289\n      jump\t// in\n    tag_293:\n        /* \"#utility.yul\":1020:1139   */\n    tag_292:\n        /* \"#utility.yul\":1178:1179   */\n      0x00\n        /* \"#utility.yul\":1203:1264   */\n      tag_294\n        /* \"#utility.yul\":1256:1263   */\n      dup5\n        /* \"#utility.yul\":1247:1253   */\n      dup3\n        /* \"#utility.yul\":1236:1245   */\n      dup6\n        /* \"#utility.yul\":1232:1254   */\n      add\n        /* \"#utility.yul\":1203:1264   */\n      tag_274\n      jump\t// in\n    tag_294:\n        /* \"#utility.yul\":1193:1264   */\n      swap2\n      pop\n        /* \"#utility.yul\":1149:1274   */\n      pop\n        /* \"#utility.yul\":936:1281   */\n      swap3\n      swap2\n      pop\n      pop\n      jump\t// out\n        /* \"#utility.yul\":1287:1777   */\n    tag_91:\n        /* \"#utility.yul\":1363:1369   */\n      0x00\n        /* \"#utility.yul\":1371:1377   */\n      dup1\n        /* \"#utility.yul\":1420:1422   */\n      0x40\n        /* \"#utility.yul\":1408:1417   */\n      dup4\n        /* \"#utility.yul\":1399:1406   */\n      dup6\n        /* \"#utility.yul\":1395:1418   */\n      sub\n        /* \"#utility.yul\":1391:1423   */\n      slt\n        /* \"#utility.yul\":1388:1507   */\n      iszero\n      tag_296\n      jumpi\n        /* \"#utility.yul\":1426:1505   */\n      tag_297\n      tag_289\n      jump\t// in\n    tag_297:\n        /* \"#utility.yul\":1388:1507   */\n    tag_296:\n        /* \"#utility.yul\":1546:1547   */\n      0x00\n        /* \"#utility.yul\":1571:1632   */\n      tag_298\n        /* \"#utility.yul\":1624:1631   */\n      dup6\n        /* \"#utility.yul\":1615:1621   */\n      dup3\n        /* \"#utility.yul\":1604:1613   */\n      dup7\n        /* \"#utility.yul\":1600:1622   */\n      add\n        /* \"#utility.yul\":1571:1632   */\n      tag_274\n      jump\t// in\n    tag_298:\n        /* \"#utility.yul\":1561:1632   */\n      swap3\n      pop\n        /* \"#utility.yul\":1517:1642   */\n      pop\n        /* \"#utility.yul\":1681:1683   */\n      0x20\n        /* \"#utility.yul\":1707:1760   */\n      tag_299\n        /* \"#utility.yul\":1752:1759   */\n      dup6\n        /* \"#utility.yul\":1743:1749   */\n      dup3\n        /* \"#utility.yul\":1732:1741   */\n      dup7\n        /* \"#utility.yul\":1728:1750   */\n      add\n        /* \"#utility.yul\":1707:1760   */\n      tag_278\n      jump\t// in\n    tag_299:\n        /* \"#utility.yul\":1697:1760   */\n      swap2\n      pop\n        /* \"#utility.yul\":1652:1770   */\n      pop\n        /* \"#utility.yul\":1287:1777   */\n      swap3\n      pop\n      swap3\n      swap1\n      pop\n      jump\t// out\n        /* \"#utility.yul\":1783:2271   */\n    tag_33:\n        /* \"#utility.yul\":1858:1864   */\n      0x00\n        /* \"#utility.yul\":1866:1872   */\n      dup1\n        /* \"#utility.yul\":1915:1917   */\n      0x40\n        /* \"#utility.yul\":1903:1912   */\n      dup4\n        /* \"#utility.yul\":1894:1901   */\n      dup6\n        /* \"#utility.yul\":1890:1913   */\n      sub\n        /* \"#utility.yul\":1886:1918   */\n      slt\n        /* \"#utility.yul\":1883:2002   */\n      iszero\n      tag_301\n      jumpi\n        /* \"#utility.yul\":1921:2000   */\n      tag_302\n      tag_289\n      jump\t// in\n    tag_302:\n        /* \"#utility.yul\":1883:2002   */\n    tag_301:\n        /* \"#utility.yul\":2041:2042   */\n      0x00\n        /* \"#utility.yul\":2066:2127   */\n      tag_303\n        /* \"#utility.yul\":2119:2126   */\n      dup6\n        /* \"#utility.yul\":2110:2116   */\n      dup3\n        /* \"#utility.yul\":2099:2108   */\n      dup7\n        /* \"#utility.yul\":2095:2117   */\n      add\n        /* \"#utility.yul\":2066:2127   */\n      tag_274\n      jump\t// in\n    tag_303:\n        /* \"#utility.yul\":2056:2127   */\n      swap3\n      pop\n        /* \"#utility.yul\":2012:2137   */\n      pop\n        /* \"#utility.yul\":2176:2178   */\n      0x20\n        /* \"#utility.yul\":2202:2254   */\n      tag_304\n        /* \"#utility.yul\":2246:2253   */\n      dup6\n        /* \"#utility.yul\":2237:2243   */\n      dup3\n        /* \"#utility.yul\":2226:2235   */\n      dup7\n        /* \"#utility.yul\":2222:2244   */\n      add\n        /* \"#utility.yul\":2202:2254   */\n      tag_282\n      jump\t// in\n    tag_304:\n        /* \"#utility.yul\":2192:2254   */\n      swap2\n      pop\n        /* \"#utility.yul\":2147:2264   */\n      pop\n        /* \"#utility.yul\":1783:2271   */\n      swap3\n      pop\n      swap3\n      swap1\n      pop\n      jump\t// out\n        /* \"#utility.yul\":2277:2606   */\n    tag_24:\n        /* \"#utility.yul\":2336:2342   */\n      0x00\n        /* \"#utility.yul\":2385:2387   */\n      0x20\n        /* \"#utility.yul\":2373:2382   */\n      dup3\n        /* \"#utility.yul\":2364:2371   */\n      dup5\n        /* \"#utility.yul\":2360:2383   */\n      sub\n        /* \"#utility.yul\":2356:2388   */\n      slt\n        /* \"#utility.yul\":2353:2472   */\n      iszero\n      tag_306\n      jumpi\n        /* \"#utility.yul\":2391:2470   */\n      tag_307\n      tag_289\n      jump\t// in\n    tag_307:\n        /* \"#utility.yul\":2353:2472   */\n    tag_306:\n        /* \"#utility.yul\":2511:2512   */\n      0x00\n        /* \"#utility.yul\":2536:2589   */\n      tag_308\n        /* \"#utility.yul\":2581:2588   */\n      dup5\n        /* \"#utility.yul\":2572:2578   */\n      dup3\n        /* \"#utility.yul\":2561:2570   */\n      dup6\n        /* \"#utility.yul\":2557:2579   */\n      add\n        /* \"#utility.yul\":2536:2589   */\n      tag_278\n      jump\t// in\n    tag_308:\n        /* \"#utility.yul\":2526:2589   */\n      swap2\n      pop\n        /* \"#utility.yul\":2482:2599   */\n      pop\n        /* \"#utility.yul\":2277:2606   */\n      swap3\n      swap2\n      pop\n      pop\n      jump\t// out\n        /* \"#utility.yul\":2612:3084   */\n    tag_29:\n        /* \"#utility.yul\":2679:2685   */\n      0x00\n        /* \"#utility.yul\":2687:2693   */\n      dup1\n        /* \"#utility.yul\":2736:2738   */\n      0x40\n        /* \"#utility.yul\":2724:2733   */\n      dup4\n        /* \"#utility.yul\":2715:2722   */\n      dup6\n        /* \"#utility.yul\":2711:2734   */\n      sub\n        /* \"#utility.yul\":2707:2739   */\n      slt\n        /* \"#utility.yul\":2704:2823   */\n      iszero\n      tag_310\n      jumpi\n        /* \"#utility.yul\":2742:2821   */\n      tag_311\n      tag_289\n      jump\t// in\n    tag_311:\n        /* \"#utility.yul\":2704:2823   */\n    tag_310:\n        /* \"#utility.yul\":2862:2863   */\n      0x00\n        /* \"#utility.yul\":2887:2940   */\n      tag_312\n        /* \"#utility.yul\":2932:2939   */\n      dup6\n        /* \"#utility.yul\":2923:2929   */\n      dup3\n        /* \"#utility.yul\":2912:2921   */\n      dup7\n        /* \"#utility.yul\":2908:2930   */\n      add\n        /* \"#utility.yul\":2887:2940   */\n      tag_278\n      jump\t// in\n    tag_312:\n        /* \"#utility.yul\":2877:2940   */\n      swap3\n      pop\n        /* \"#utility.yul\":2833:2950   */\n      pop\n        /* \"#utility.yul\":2989:2991   */\n      0x20\n        /* \"#utility.yul\":3015:3067   */\n      tag_313\n        /* \"#utility.yul\":3059:3066   */\n      dup6\n        /* \"#utility.yul\":3050:3056   */\n      dup3\n        /* \"#utility.yul\":3039:3048   */\n      dup7\n        /* \"#utility.yul\":3035:3057   */\n      add\n        /* \"#utility.yul\":3015:3067   */\n      tag_282\n      jump\t// in\n    tag_313:\n        /* \"#utility.yul\":3005:3067   */\n      swap2\n      pop\n        /* \"#utility.yul\":2960:3077   */\n      pop\n        /* \"#utility.yul\":2612:3084   */\n      swap3\n      pop\n      swap3\n      swap1\n      pop\n      jump\t// out\n        /* \"#utility.yul\":3090:3208   */\n    tag_314:\n        /* \"#utility.yul\":3177:3201   */\n      tag_316\n        /* \"#utility.yul\":3195:3200   */\n      dup2\n        /* \"#utility.yul\":3177:3201   */\n      tag_317\n      jump\t// in\n    tag_316:\n        /* \"#utility.yul\":3172:3175   */\n      dup3\n        /* \"#utility.yul\":3165:3202   */\n      mstore\n        /* \"#utility.yul\":3090:3208   */\n      pop\n      pop\n      jump\t// out\n        /* \"#utility.yul\":3214:3323   */\n    tag_318:\n        /* \"#utility.yul\":3295:3316   */\n      tag_320\n        /* \"#utility.yul\":3310:3315   */\n      dup2\n        /* \"#utility.yul\":3295:3316   */\n      tag_321\n      jump\t// in\n    tag_320:\n        /* \"#utility.yul\":3290:3293   */\n      dup3\n        /* \"#utility.yul\":3283:3317   */\n      mstore\n        /* \"#utility.yul\":3214:3323   */\n      pop\n      pop\n      jump\t// out\n        /* \"#utility.yul\":3329:3695   */\n    tag_322:\n        /* \"#utility.yul\":3471:3474   */\n      0x00\n        /* \"#utility.yul\":3492:3559   */\n      tag_324\n        /* \"#utility.yul\":3556:3558   */\n      0x5c\n        /* \"#utility.yul\":3551:3554   */\n      dup4\n        /* \"#utility.yul\":3492:3559   */\n      tag_325\n      jump\t// in\n    tag_324:\n        /* \"#utility.yul\":3485:3559   */\n      swap2\n      pop\n        /* \"#utility.yul\":3568:3661   */\n      tag_326\n        /* \"#utility.yul\":3657:3660   */\n      dup3\n        /* \"#utility.yul\":3568:3661   */\n      tag_327\n      jump\t// in\n    tag_326:\n        /* \"#utility.yul\":3686:3688   */\n      0x60\n        /* \"#utility.yul\":3681:3684   */\n      dup3\n        /* \"#utility.yul\":3677:3689   */\n      add\n        /* \"#utility.yul\":3670:3689   */\n      swap1\n      pop\n        /* \"#utility.yul\":3329:3695   */\n      swap2\n      swap1\n      pop\n      jump\t// out\n        /* \"#utility.yul\":3701:4067   */\n    tag_328:\n        /* \"#utility.yul\":3843:3846   */\n      0x00\n        /* \"#utility.yul\":3864:3931   */\n      tag_330\n        /* \"#utility.yul\":3928:3930   */\n      0x28\n        /* \"#utility.yul\":3923:3926   */\n      dup4\n        /* \"#utility.yul\":3864:3931   */\n      tag_325\n      jump\t// in\n    tag_330:\n        /* \"#utility.yul\":3857:3931   */\n      swap2\n      pop\n        /* \"#utility.yul\":3940:4033   */\n      tag_331\n        /* \"#utility.yul\":4029:4032   */\n      dup3\n        /* \"#utility.yul\":3940:4033   */\n      tag_332\n      jump\t// in\n    tag_331:\n        /* \"#utility.yul\":4058:4060   */\n      0x40\n        /* \"#utility.yul\":4053:4056   */\n      dup3\n        /* \"#utility.yul\":4049:4061   */\n      add\n        /* \"#utility.yul\":4042:4061   */\n      swap1\n      pop\n        /* \"#utility.yul\":3701:4067   */\n      swap2\n      swap1\n      pop\n      jump\t// out\n        /* \"#utility.yul\":4073:4439   */\n    tag_333:\n        /* \"#utility.yul\":4215:4218   */\n      0x00\n        /* \"#utility.yul\":4236:4303   */\n      tag_335\n        /* \"#utility.yul\":4300:4302   */\n      0x17\n        /* \"#utility.yul\":4295:4298   */\n      dup4\n        /* \"#utility.yul\":4236:4303   */\n      tag_325\n      jump\t// in\n    tag_335:\n        /* \"#utility.yul\":4229:4303   */\n      swap2\n      pop\n        /* \"#utility.yul\":4312:4405   */\n      tag_336\n        /* \"#utility.yul\":4401:4404   */\n      dup3\n        /* \"#utility.yul\":4312:4405   */\n      tag_337\n      jump\t// in\n    tag_336:\n        /* \"#utility.yul\":4430:4432   */\n      0x20\n        /* \"#utility.yul\":4425:4428   */\n      dup3\n        /* \"#utility.yul\":4421:4433   */\n      add\n        /* \"#utility.yul\":4414:4433   */\n      swap1\n      pop\n        /* \"#utility.yul\":4073:4439   */\n      swap2\n      swap1\n      pop\n      jump\t// out\n        /* \"#utility.yul\":4445:4811   */\n    tag_338:\n        /* \"#utility.yul\":4587:4590   */\n      0x00\n        /* \"#utility.yul\":4608:4675   */\n      tag_340\n        /* \"#utility.yul\":4672:4674   */\n      0x19\n        /* \"#utility.yul\":4667:4670   */\n      dup4\n        /* \"#utility.yul\":4608:4675   */\n      tag_325\n      jump\t// in\n    tag_340:\n        /* \"#utility.yul\":4601:4675   */\n      swap2\n      pop\n        /* \"#utility.yul\":4684:4777   */\n      tag_341\n        /* \"#utility.yul\":4773:4776   */\n      dup3\n        /* \"#utility.yul\":4684:4777   */\n      tag_342\n      jump\t// in\n    tag_341:\n        /* \"#utility.yul\":4802:4804   */\n      0x20\n        /* \"#utility.yul\":4797:4800   */\n      dup3\n        /* \"#utility.yul\":4793:4805   */\n      add\n        /* \"#utility.yul\":4786:4805   */\n      swap1\n      pop\n        /* \"#utility.yul\":4445:4811   */\n      swap2\n      swap1\n      pop\n      jump\t// out\n        /* \"#utility.yul\":4817:5183   */\n    tag_343:\n        /* \"#utility.yul\":4959:4962   */\n      0x00\n        /* \"#utility.yul\":4980:5047   */\n      tag_345\n        /* \"#utility.yul\":5044:5046   */\n      0x3b\n        /* \"#utility.yul\":5039:5042   */\n      dup4\n        /* \"#utility.yul\":4980:5047   */\n      tag_325\n      jump\t// in\n    tag_345:\n        /* \"#utility.yul\":4973:5047   */\n      swap2\n      pop\n        /* \"#utility.yul\":5056:5149   */\n      tag_346\n        /* \"#utility.yul\":5145:5148   */\n      dup3\n        /* \"#utility.yul\":5056:5149   */\n      tag_347\n      jump\t// in\n    tag_346:\n        /* \"#utility.yul\":5174:5176   */\n      0x40\n        /* \"#utility.yul\":5169:5172   */\n      dup3\n        /* \"#utility.yul\":5165:5177   */\n      add\n        /* \"#utility.yul\":5158:5177   */\n      swap1\n      pop\n        /* \"#utility.yul\":4817:5183   */\n      swap2\n      swap1\n      pop\n      jump\t// out\n        /* \"#utility.yul\":5189:5555   */\n    tag_348:\n        /* \"#utility.yul\":5331:5334   */\n      0x00\n        /* \"#utility.yul\":5352:5419   */\n      tag_350\n        /* \"#utility.yul\":5416:5418   */\n      0x29\n        /* \"#utility.yul\":5411:5414   */\n      dup4\n        /* \"#utility.yul\":5352:5419   */\n      tag_325\n      jump\t// in\n    tag_350:\n        /* \"#utility.yul\":5345:5419   */\n      swap2\n      pop\n        /* \"#utility.yul\":5428:5521   */\n      tag_351\n        /* \"#utility.yul\":5517:5520   */\n      dup3\n        /* \"#utility.yul\":5428:5521   */\n      tag_352\n      jump\t// in\n    tag_351:\n        /* \"#utility.yul\":5546:5548   */\n      0x40\n        /* \"#utility.yul\":5541:5544   */\n      dup3\n        /* \"#utility.yul\":5537:5549   */\n      add\n        /* \"#utility.yul\":5530:5549   */\n      swap1\n      pop\n        /* \"#utility.yul\":5189:5555   */\n      swap2\n      swap1\n      pop\n      jump\t// out\n        /* \"#utility.yul\":5561:5927   */\n    tag_353:\n        /* \"#utility.yul\":5703:5706   */\n      0x00\n        /* \"#utility.yul\":5724:5791   */\n      tag_355\n        /* \"#utility.yul\":5788:5790   */\n      0x32\n        /* \"#utility.yul\":5783:5786   */\n      dup4\n        /* \"#utility.yul\":5724:5791   */\n      tag_325\n      jump\t// in\n    tag_355:\n        /* \"#utility.yul\":5717:5791   */\n      swap2\n      pop\n        /* \"#utility.yul\":5800:5893   */\n      tag_356\n        /* \"#utility.yul\":5889:5892   */\n      dup3\n        /* \"#utility.yul\":5800:5893   */\n      tag_357\n      jump\t// in\n    tag_356:\n        /* \"#utility.yul\":5918:5920   */\n      0x40\n        /* \"#utility.yul\":5913:5916   */\n      dup3\n        /* \"#utility.yul\":5909:5921   */\n      add\n        /* \"#utility.yul\":5902:5921   */\n      swap1\n      pop\n        /* \"#utility.yul\":5561:5927   */\n      swap2\n      swap1\n      pop\n      jump\t// out\n        /* \"#utility.yul\":5933:6299   */\n    tag_358:\n        /* \"#utility.yul\":6075:6078   */\n      0x00\n        /* \"#utility.yul\":6096:6163   */\n      tag_360\n        /* \"#utility.yul\":6160:6162   */\n      0x21\n        /* \"#utility.yul\":6155:6158   */\n      dup4\n        /* \"#utility.yul\":6096:6163   */\n      tag_325\n      jump\t// in\n    tag_360:\n        /* \"#utility.yul\":6089:6163   */\n      swap2\n      pop\n        /* \"#utility.yul\":6172:6265   */\n      tag_361\n        /* \"#utility.yul\":6261:6264   */\n      dup3\n        /* \"#utility.yul\":6172:6265   */\n      tag_362\n      jump\t// in\n    tag_361:\n        /* \"#utility.yul\":6290:6292   */\n      0x40\n        /* \"#utility.yul\":6285:6288   */\n      dup3\n        /* \"#utility.yul\":6281:6293   */\n      add\n        /* \"#utility.yul\":6274:6293   */\n      swap1\n      pop\n        /* \"#utility.yul\":5933:6299   */\n      swap2\n      swap1\n      pop\n      jump\t// out\n        /* \"#utility.yul\":6305:6671   */\n    tag_363:\n        /* \"#utility.yul\":6447:6450   */\n      0x00\n        /* \"#utility.yul\":6468:6535   */\n      tag_365\n        /* \"#utility.yul\":6532:6534   */\n      0x26\n        /* \"#utility.yul\":6527:6530   */\n      dup4\n        /* \"#utility.yul\":6468:6535   */\n      tag_325\n      jump\t// in\n    tag_365:\n        /* \"#utility.yul\":6461:6535   */\n      swap2\n      pop\n        /* \"#utility.yul\":6544:6637   */\n      tag_366\n        /* \"#utility.yul\":6633:6636   */\n      dup3\n        /* \"#utility.yul\":6544:6637   */\n      tag_367\n      jump\t// in\n    tag_366:\n        /* \"#utility.yul\":6662:6664   */\n      0x40\n        /* \"#utility.yul\":6657:6660   */\n      dup3\n        /* \"#utility.yul\":6653:6665   */\n      add\n        /* \"#utility.yul\":6646:6665   */\n      swap1\n      pop\n        /* \"#utility.yul\":6305:6671   */\n      swap2\n      swap1\n      pop\n      jump\t// out\n        /* \"#utility.yul\":6677:7043   */\n    tag_368:\n        /* \"#utility.yul\":6819:6822   */\n      0x00\n        /* \"#utility.yul\":6840:6907   */\n      tag_370\n        /* \"#utility.yul\":6904:6906   */\n      0x41\n        /* \"#utility.yul\":6899:6902   */\n      dup4\n        /* \"#utility.yul\":6840:6907   */\n      tag_325\n      jump\t// in\n    tag_370:\n        /* \"#utility.yul\":6833:6907   */\n      swap2\n      pop\n        /* \"#utility.yul\":6916:7009   */\n      tag_371\n        /* \"#utility.yul\":7005:7008   */\n      dup3\n        /* \"#utility.yul\":6916:7009   */\n      tag_372\n      jump\t// in\n    tag_371:\n        /* \"#utility.yul\":7034:7036   */\n      0x60\n        /* \"#utility.yul\":7029:7032   */\n      dup3\n        /* \"#utility.yul\":7025:7037   */\n      add\n        /* \"#utility.yul\":7018:7037   */\n      swap1\n      pop\n        /* \"#utility.yul\":6677:7043   */\n      swap2\n      swap1\n      pop\n      jump\t// out\n        /* \"#utility.yul\":7049:7415   */\n    tag_373:\n        /* \"#utility.yul\":7191:7194   */\n      0x00\n        /* \"#utility.yul\":7212:7279   */\n      tag_375\n        /* \"#utility.yul\":7276:7278   */\n      0x2a\n        /* \"#utility.yul\":7271:7274   */\n      dup4\n        /* \"#utility.yul\":7212:7279   */\n      tag_325\n      jump\t// in\n    tag_375:\n        /* \"#utility.yul\":7205:7279   */\n      swap2\n      pop\n        /* \"#utility.yul\":7288:7381   */\n      tag_376\n        /* \"#utility.yul\":7377:7380   */\n      dup3\n        /* \"#utility.yul\":7288:7381   */\n      tag_377\n      jump\t// in\n    tag_376:\n        /* \"#utility.yul\":7406:7408   */\n      0x40\n        /* \"#utility.yul\":7401:7404   */\n      dup3\n        /* \"#utility.yul\":7397:7409   */\n      add\n        /* \"#utility.yul\":7390:7409   */\n      swap1\n      pop\n        /* \"#utility.yul\":7049:7415   */\n      swap2\n      swap1\n      pop\n      jump\t// out\n        /* \"#utility.yul\":7421:7787   */\n    tag_378:\n        /* \"#utility.yul\":7563:7566   */\n      0x00\n        /* \"#utility.yul\":7584:7651   */\n      tag_380\n        /* \"#utility.yul\":7648:7650   */\n      0x18\n        /* \"#utility.yul\":7643:7646   */\n      dup4\n        /* \"#utility.yul\":7584:7651   */\n      tag_325\n      jump\t// in\n    tag_380:\n        /* \"#utility.yul\":7577:7651   */\n      swap2\n      pop\n        /* \"#utility.yul\":7660:7753   */\n      tag_381\n        /* \"#utility.yul\":7749:7752   */\n      dup3\n        /* \"#utility.yul\":7660:7753   */\n      tag_382\n      jump\t// in\n    tag_381:\n        /* \"#utility.yul\":7778:7780   */\n      0x20\n        /* \"#utility.yul\":7773:7776   */\n      dup3\n        /* \"#utility.yul\":7769:7781   */\n      add\n        /* \"#utility.yul\":7762:7781   */\n      swap1\n      pop\n        /* \"#utility.yul\":7421:7787   */\n      swap2\n      swap1\n      pop\n      jump\t// out\n        /* \"#utility.yul\":7793:8159   */\n    tag_383:\n        /* \"#utility.yul\":7935:7938   */\n      0x00\n        /* \"#utility.yul\":7956:8023   */\n      tag_385\n        /* \"#utility.yul\":8020:8022   */\n      0x16\n        /* \"#utility.yul\":8015:8018   */\n      dup4\n        /* \"#utility.yul\":7956:8023   */\n      tag_325\n      jump\t// in\n    tag_385:\n        /* \"#utility.yul\":7949:8023   */\n      swap2\n      pop\n        /* \"#utility.yul\":8032:8125   */\n      tag_386\n        /* \"#utility.yul\":8121:8124   */\n      dup3\n        /* \"#utility.yul\":8032:8125   */\n      tag_387\n      jump\t// in\n    tag_386:\n        /* \"#utility.yul\":8150:8152   */\n      0x20\n        /* \"#utility.yul\":8145:8148   */\n      dup3\n        /* \"#utility.yul\":8141:8153   */\n      add\n        /* \"#utility.yul\":8134:8153   */\n      swap1\n      pop\n        /* \"#utility.yul\":7793:8159   */\n      swap2\n      swap1\n      pop\n      jump\t// out\n        /* \"#utility.yul\":8165:8531   */\n    tag_388:\n        /* \"#utility.yul\":8307:8310   */\n      0x00\n        /* \"#utility.yul\":8328:8395   */\n      tag_390\n        /* \"#utility.yul\":8392:8394   */\n      0x1d\n        /* \"#utility.yul\":8387:8390   */\n      dup4\n        /* \"#utility.yul\":8328:8395   */\n      tag_325\n      jump\t// in\n    tag_390:\n        /* \"#utility.yul\":8321:8395   */\n      swap2\n      pop\n        /* \"#utility.yul\":8404:8497   */\n      tag_391\n        /* \"#utility.yul\":8493:8496   */\n      dup3\n        /* \"#utility.yul\":8404:8497   */\n      tag_392\n      jump\t// in\n    tag_391:\n        /* \"#utility.yul\":8522:8524   */\n      0x20\n        /* \"#utility.yul\":8517:8520   */\n      dup3\n        /* \"#utility.yul\":8513:8525   */\n      add\n        /* \"#utility.yul\":8506:8525   */\n      swap1\n      pop\n        /* \"#utility.yul\":8165:8531   */\n      swap2\n      swap1\n      pop\n      jump\t// out\n        /* \"#utility.yul\":8537:8903   */\n    tag_393:\n        /* \"#utility.yul\":8679:8682   */\n      0x00\n        /* \"#utility.yul\":8700:8767   */\n      tag_395\n        /* \"#utility.yul\":8764:8766   */\n      0x3d\n        /* \"#utility.yul\":8759:8762   */\n      dup4\n        /* \"#utility.yul\":8700:8767   */\n      tag_325\n      jump\t// in\n    tag_395:\n        /* \"#utility.yul\":8693:8767   */\n      swap2\n      pop\n        /* \"#utility.yul\":8776:8869   */\n      tag_396\n        /* \"#utility.yul\":8865:8868   */\n      dup3\n        /* \"#utility.yul\":8776:8869   */\n      tag_397\n      jump\t// in\n    tag_396:\n        /* \"#utility.yul\":8894:8896   */\n      0x40\n        /* \"#utility.yul\":8889:8892   */\n      dup3\n        /* \"#utility.yul\":8885:8897   */\n      add\n        /* \"#utility.yul\":8878:8897   */\n      swap1\n      pop\n        /* \"#utility.yul\":8537:8903   */\n      swap2\n      swap1\n      pop\n      jump\t// out\n        /* \"#utility.yul\":8909:9275   */\n    tag_398:\n        /* \"#utility.yul\":9051:9054   */\n      0x00\n        /* \"#utility.yul\":9072:9139   */\n      tag_400\n        /* \"#utility.yul\":9136:9138   */\n      0x16\n        /* \"#utility.yul\":9131:9134   */\n      dup4\n        /* \"#utility.yul\":9072:9139   */\n      tag_325\n      jump\t// in\n    tag_400:\n        /* \"#utility.yul\":9065:9139   */\n      swap2\n      pop\n        /* \"#utility.yul\":9148:9241   */\n      tag_401\n        /* \"#utility.yul\":9237:9240   */\n      dup3\n        /* \"#utility.yul\":9148:9241   */\n      tag_402\n      jump\t// in\n    tag_401:\n        /* \"#utility.yul\":9266:9268   */\n      0x20\n        /* \"#utility.yul\":9261:9264   */\n      dup3\n        /* \"#utility.yul\":9257:9269   */\n      add\n        /* \"#utility.yul\":9250:9269   */\n      swap1\n      pop\n        /* \"#utility.yul\":8909:9275   */\n      swap2\n      swap1\n      pop\n      jump\t// out\n        /* \"#utility.yul\":9281:9647   */\n    tag_403:\n        /* \"#utility.yul\":9423:9426   */\n      0x00\n        /* \"#utility.yul\":9444:9511   */\n      tag_405\n        /* \"#utility.yul\":9508:9510   */\n      0x48\n        /* \"#utility.yul\":9503:9506   */\n      dup4\n        /* \"#utility.yul\":9444:9511   */\n      tag_325\n      jump\t// in\n    tag_405:\n        /* \"#utility.yul\":9437:9511   */\n      swap2\n      pop\n        /* \"#utility.yul\":9520:9613   */\n      tag_406\n        /* \"#utility.yul\":9609:9612   */\n      dup3\n        /* \"#utility.yul\":9520:9613   */\n      tag_407\n      jump\t// in\n    tag_406:\n        /* \"#utility.yul\":9638:9640   */\n      0x60\n        /* \"#utility.yul\":9633:9636   */\n      dup3\n        /* \"#utility.yul\":9629:9641   */\n      add\n        /* \"#utility.yul\":9622:9641   */\n      swap1\n      pop\n        /* \"#utility.yul\":9281:9647   */\n      swap2\n      swap1\n      pop\n      jump\t// out\n        /* \"#utility.yul\":9653:9771   */\n    tag_408:\n        /* \"#utility.yul\":9740:9764   */\n      tag_410\n        /* \"#utility.yul\":9758:9763   */\n      dup2\n        /* \"#utility.yul\":9740:9764   */\n      tag_411\n      jump\t// in\n    tag_410:\n        /* \"#utility.yul\":9735:9738   */\n      dup3\n        /* \"#utility.yul\":9728:9765   */\n      mstore\n        /* \"#utility.yul\":9653:9771   */\n      pop\n      pop\n      jump\t// out\n        /* \"#utility.yul\":9777:9892   */\n    tag_412:\n        /* \"#utility.yul\":9862:9885   */\n      tag_414\n        /* \"#utility.yul\":9879:9884   */\n      dup2\n        /* \"#utility.yul\":9862:9885   */\n      tag_415\n      jump\t// in\n    tag_414:\n        /* \"#utility.yul\":9857:9860   */\n      dup3\n        /* \"#utility.yul\":9850:9886   */\n      mstore\n        /* \"#utility.yul\":9777:9892   */\n      pop\n      pop\n      jump\t// out\n        /* \"#utility.yul\":9898:10120   */\n    tag_62:\n        /* \"#utility.yul\":9991:9995   */\n      0x00\n        /* \"#utility.yul\":10029:10031   */\n      0x20\n        /* \"#utility.yul\":10018:10027   */\n      dup3\n        /* \"#utility.yul\":10014:10032   */\n      add\n        /* \"#utility.yul\":10006:10032   */\n      swap1\n      pop\n        /* \"#utility.yul\":10042:10113   */\n      tag_417\n        /* \"#utility.yul\":10110:10111   */\n      0x00\n        /* \"#utility.yul\":10099:10108   */\n      dup4\n        /* \"#utility.yul\":10095:10112   */\n      add\n        /* \"#utility.yul\":10086:10092   */\n      dup5\n        /* \"#utility.yul\":10042:10113   */\n      tag_314\n      jump\t// in\n    tag_417:\n        /* \"#utility.yul\":9898:10120   */\n      swap3\n      swap2\n      pop\n      pop\n      jump\t// out\n        /* \"#utility.yul\":10126:10545   */\n    tag_178:\n        /* \"#utility.yul\":10292:10296   */\n      0x00\n        /* \"#utility.yul\":10330:10332   */\n      0x20\n        /* \"#utility.yul\":10319:10328   */\n      dup3\n        /* \"#utility.yul\":10315:10333   */\n      add\n        /* \"#utility.yul\":10307:10333   */\n      swap1\n      pop\n        /* \"#utility.yul\":10379:10388   */\n      dup2\n        /* \"#utility.yul\":10373:10377   */\n      dup2\n        /* \"#utility.yul\":10369:10389   */\n      sub\n        /* \"#utility.yul\":10365:10366   */\n      0x00\n        /* \"#utility.yul\":10354:10363   */\n      dup4\n        /* \"#utility.yul\":10350:10367   */\n      add\n        /* \"#utility.yul\":10343:10390   */\n      mstore\n        /* \"#utility.yul\":10407:10538   */\n      tag_419\n        /* \"#utility.yul\":10533:10537   */\n      dup2\n        /* \"#utility.yul\":10407:10538   */\n      tag_322\n      jump\t// in\n    tag_419:\n        /* \"#utility.yul\":10399:10538   */\n      swap1\n      pop\n        /* \"#utility.yul\":10126:10545   */\n      swap2\n      swap1\n      pop\n      jump\t// out\n        /* \"#utility.yul\":10551:10970   */\n    tag_204:\n        /* \"#utility.yul\":10717:10721   */\n      0x00\n        /* \"#utility.yul\":10755:10757   */\n      0x20\n        /* \"#utility.yul\":10744:10753   */\n      dup3\n        /* \"#utility.yul\":10740:10758   */\n      add\n        /* \"#utility.yul\":10732:10758   */\n      swap1\n      pop\n        /* \"#utility.yul\":10804:10813   */\n      dup2\n        /* \"#utility.yul\":10798:10802   */\n      dup2\n        /* \"#utility.yul\":10794:10814   */\n      sub\n        /* \"#utility.yul\":10790:10791   */\n      0x00\n        /* \"#utility.yul\":10779:10788   */\n      dup4\n        /* \"#utility.yul\":10775:10792   */\n      add\n        /* \"#utility.yul\":10768:10815   */\n      mstore\n        /* \"#utility.yul\":10832:10963   */\n      tag_421\n        /* \"#utility.yul\":10958:10962   */\n      dup2\n        /* \"#utility.yul\":10832:10963   */\n      tag_328\n      jump\t// in\n    tag_421:\n        /* \"#utility.yul\":10824:10963   */\n      swap1\n      pop\n        /* \"#utility.yul\":10551:10970   */\n      swap2\n      swap1\n      pop\n      jump\t// out\n        /* \"#utility.yul\":10976:11395   */\n    tag_109:\n        /* \"#utility.yul\":11142:11146   */\n      0x00\n        /* \"#utility.yul\":11180:11182   */\n      0x20\n        /* \"#utility.yul\":11169:11178   */\n      dup3\n        /* \"#utility.yul\":11165:11183   */\n      add\n        /* \"#utility.yul\":11157:11183   */\n      swap1\n      pop\n        /* \"#utility.yul\":11229:11238   */\n      dup2\n        /* \"#utility.yul\":11223:11227   */\n      dup2\n        /* \"#utility.yul\":11219:11239   */\n      sub\n        /* \"#utility.yul\":11215:11216   */\n      0x00\n        /* \"#utility.yul\":11204:11213   */\n      dup4\n        /* \"#utility.yul\":11200:11217   */\n      add\n        /* \"#utility.yul\":11193:11240   */\n      mstore\n        /* \"#utility.yul\":11257:11388   */\n      tag_423\n        /* \"#utility.yul\":11383:11387   */\n      dup2\n        /* \"#utility.yul\":11257:11388   */\n      tag_333\n      jump\t// in\n    tag_423:\n        /* \"#utility.yul\":11249:11388   */\n      swap1\n      pop\n        /* \"#utility.yul\":10976:11395   */\n      swap2\n      swap1\n      pop\n      jump\t// out\n        /* \"#utility.yul\":11401:11820   */\n    tag_96:\n        /* \"#utility.yul\":11567:11571   */\n      0x00\n        /* \"#utility.yul\":11605:11607   */\n      0x20\n        /* \"#utility.yul\":11594:11603   */\n      dup3\n        /* \"#utility.yul\":11590:11608   */\n      add\n        /* \"#utility.yul\":11582:11608   */\n      swap1\n      pop\n        /* \"#utility.yul\":11654:11663   */\n      dup2\n        /* \"#utility.yul\":11648:11652   */\n      dup2\n        /* \"#utility.yul\":11644:11664   */\n      sub\n        /* \"#utility.yul\":11640:11641   */\n      0x00\n        /* \"#utility.yul\":11629:11638   */\n      dup4\n        /* \"#utility.yul\":11625:11642   */\n      add\n        /* \"#utility.yul\":11618:11665   */\n      mstore\n        /* \"#utility.yul\":11682:11813   */\n      tag_425\n        /* \"#utility.yul\":11808:11812   */\n      dup2\n        /* \"#utility.yul\":11682:11813   */\n      tag_338\n      jump\t// in\n    tag_425:\n        /* \"#utility.yul\":11674:11813   */\n      swap1\n      pop\n        /* \"#utility.yul\":11401:11820   */\n      swap2\n      swap1\n      pop\n      jump\t// out\n        /* \"#utility.yul\":11826:12245   */\n    tag_125:\n        /* \"#utility.yul\":11992:11996   */\n      0x00\n        /* \"#utility.yul\":12030:12032   */\n      0x20\n        /* \"#utility.yul\":12019:12028   */\n      dup3\n        /* \"#utility.yul\":12015:12033   */\n      add\n        /* \"#utility.yul\":12007:12033   */\n      swap1\n      pop\n        /* \"#utility.yul\":12079:12088   */\n      dup2\n        /* \"#utility.yul\":12073:12077   */\n      dup2\n        /* \"#utility.yul\":12069:12089   */\n      sub\n        /* \"#utility.yul\":12065:12066   */\n      0x00\n        /* \"#utility.yul\":12054:12063   */\n      dup4\n        /* \"#utility.yul\":12050:12067   */\n      add\n        /* \"#utility.yul\":12043:12090   */\n      mstore\n        /* \"#utility.yul\":12107:12238   */\n      tag_427\n        /* \"#utility.yul\":12233:12237   */\n      dup2\n        /* \"#utility.yul\":12107:12238   */\n      tag_343\n      jump\t// in\n    tag_427:\n        /* \"#utility.yul\":12099:12238   */\n      swap1\n      pop\n        /* \"#utility.yul\":11826:12245   */\n      swap2\n      swap1\n      pop\n      jump\t// out\n        /* \"#utility.yul\":12251:12670   */\n    tag_103:\n        /* \"#utility.yul\":12417:12421   */\n      0x00\n        /* \"#utility.yul\":12455:12457   */\n      0x20\n        /* \"#utility.yul\":12444:12453   */\n      dup3\n        /* \"#utility.yul\":12440:12458   */\n      add\n        /* \"#utility.yul\":12432:12458   */\n      swap1\n      pop\n        /* \"#utility.yul\":12504:12513   */\n      dup2\n        /* \"#utility.yul\":12498:12502   */\n      dup2\n        /* \"#utility.yul\":12494:12514   */\n      sub\n        /* \"#utility.yul\":12490:12491   */\n      0x00\n        /* \"#utility.yul\":12479:12488   */\n      dup4\n        /* \"#utility.yul\":12475:12492   */\n      add\n        /* \"#utility.yul\":12468:12515   */\n      mstore\n        /* \"#utility.yul\":12532:12663   */\n      tag_429\n        /* \"#utility.yul\":12658:12662   */\n      dup2\n        /* \"#utility.yul\":12532:12663   */\n      tag_348\n      jump\t// in\n    tag_429:\n        /* \"#utility.yul\":12524:12663   */\n      swap1\n      pop\n        /* \"#utility.yul\":12251:12670   */\n      swap2\n      swap1\n      pop\n      jump\t// out\n        /* \"#utility.yul\":12676:13095   */\n    tag_219:\n        /* \"#utility.yul\":12842:12846   */\n      0x00\n        /* \"#utility.yul\":12880:12882   */\n      0x20\n        /* \"#utility.yul\":12869:12878   */\n      dup3\n        /* \"#utility.yul\":12865:12883   */\n      add\n        /* \"#utility.yul\":12857:12883   */\n      swap1\n      pop\n        /* \"#utility.yul\":12929:12938   */\n      dup2\n        /* \"#utility.yul\":12923:12927   */\n      dup2\n        /* \"#utility.yul\":12919:12939   */\n      sub\n        /* \"#utility.yul\":12915:12916   */\n      0x00\n        /* \"#utility.yul\":12904:12913   */\n      dup4\n        /* \"#utility.yul\":12900:12917   */\n      add\n        /* \"#utility.yul\":12893:12940   */\n      mstore\n        /* \"#utility.yul\":12957:13088   */\n      tag_431\n        /* \"#utility.yul\":13083:13087   */\n      dup2\n        /* \"#utility.yul\":12957:13088   */\n      tag_353\n      jump\t// in\n    tag_431:\n        /* \"#utility.yul\":12949:13088   */\n      swap1\n      pop\n        /* \"#utility.yul\":12676:13095   */\n      swap2\n      swap1\n      pop\n      jump\t// out\n        /* \"#utility.yul\":13101:13520   */\n    tag_216:\n        /* \"#utility.yul\":13267:13271   */\n      0x00\n        /* \"#utility.yul\":13305:13307   */\n      0x20\n        /* \"#utility.yul\":13294:13303   */\n      dup3\n        /* \"#utility.yul\":13290:13308   */\n      add\n        /* \"#utility.yul\":13282:13308   */\n      swap1\n      pop\n        /* \"#utility.yul\":13354:13363   */\n      dup2\n        /* \"#utility.yul\":13348:13352   */\n      dup2\n        /* \"#utility.yul\":13344:13364   */\n      sub\n        /* \"#utility.yul\":13340:13341   */\n      0x00\n        /* \"#utility.yul\":13329:13338   */\n      dup4\n        /* \"#utility.yul\":13325:13342   */\n      add\n        /* \"#utility.yul\":13318:13365   */\n      mstore\n        /* \"#utility.yul\":13382:13513   */\n      tag_433\n        /* \"#utility.yul\":13508:13512   */\n      dup2\n        /* \"#utility.yul\":13382:13513   */\n      tag_358\n      jump\t// in\n    tag_433:\n        /* \"#utility.yul\":13374:13513   */\n      swap1\n      pop\n        /* \"#utility.yul\":13101:13520   */\n      swap2\n      swap1\n      pop\n      jump\t// out\n        /* \"#utility.yul\":13526:13945   */\n    tag_115:\n        /* \"#utility.yul\":13692:13696   */\n      0x00\n        /* \"#utility.yul\":13730:13732   */\n      0x20\n        /* \"#utility.yul\":13719:13728   */\n      dup3\n        /* \"#utility.yul\":13715:13733   */\n      add\n        /* \"#utility.yul\":13707:13733   */\n      swap1\n      pop\n        /* \"#utility.yul\":13779:13788   */\n      dup2\n        /* \"#utility.yul\":13773:13777   */\n      dup2\n        /* \"#utility.yul\":13769:13789   */\n      sub\n        /* \"#utility.yul\":13765:13766   */\n      0x00\n        /* \"#utility.yul\":13754:13763   */\n      dup4\n        /* \"#utility.yul\":13750:13767   */\n      add\n        /* \"#utility.yul\":13743:13790   */\n      mstore\n        /* \"#utility.yul\":13807:13938   */\n      tag_435\n        /* \"#utility.yul\":13933:13937   */\n      dup2\n        /* \"#utility.yul\":13807:13938   */\n      tag_363\n      jump\t// in\n    tag_435:\n        /* \"#utility.yul\":13799:13938   */\n      swap1\n      pop\n        /* \"#utility.yul\":13526:13945   */\n      swap2\n      swap1\n      pop\n      jump\t// out\n        /* \"#utility.yul\":13951:14370   */\n    tag_121:\n        /* \"#utility.yul\":14117:14121   */\n      0x00\n        /* \"#utility.yul\":14155:14157   */\n      0x20\n        /* \"#utility.yul\":14144:14153   */\n      dup3\n        /* \"#utility.yul\":14140:14158   */\n      add\n        /* \"#utility.yul\":14132:14158   */\n      swap1\n      pop\n        /* \"#utility.yul\":14204:14213   */\n      dup2\n        /* \"#utility.yul\":14198:14202   */\n      dup2\n        /* \"#utility.yul\":14194:14214   */\n      sub\n        /* \"#utility.yul\":14190:14191   */\n      0x00\n        /* \"#utility.yul\":14179:14188   */\n      dup4\n        /* \"#utility.yul\":14175:14192   */\n      add\n        /* \"#utility.yul\":14168:14215   */\n      mstore\n        /* \"#utility.yul\":14232:14363   */\n      tag_437\n        /* \"#utility.yul\":14358:14362   */\n      dup2\n        /* \"#utility.yul\":14232:14363   */\n      tag_368\n      jump\t// in\n    tag_437:\n        /* \"#utility.yul\":14224:14363   */\n      swap1\n      pop\n        /* \"#utility.yul\":13951:14370   */\n      swap2\n      swap1\n      pop\n      jump\t// out\n        /* \"#utility.yul\":14376:14795   */\n    tag_130:\n        /* \"#utility.yul\":14542:14546   */\n      0x00\n        /* \"#utility.yul\":14580:14582   */\n      0x20\n        /* \"#utility.yul\":14569:14578   */\n      dup3\n        /* \"#utility.yul\":14565:14583   */\n      add\n        /* \"#utility.yul\":14557:14583   */\n      swap1\n      pop\n        /* \"#utility.yul\":14629:14638   */\n      dup2\n        /* \"#utility.yul\":14623:14627   */\n      dup2\n        /* \"#utility.yul\":14619:14639   */\n      sub\n        /* \"#utility.yul\":14615:14616   */\n      0x00\n        /* \"#utility.yul\":14604:14613   */\n      dup4\n        /* \"#utility.yul\":14600:14617   */\n      add\n        /* \"#utility.yul\":14593:14640   */\n      mstore\n        /* \"#utility.yul\":14657:14788   */\n      tag_439\n        /* \"#utility.yul\":14783:14787   */\n      dup2\n        /* \"#utility.yul\":14657:14788   */\n      tag_373\n      jump\t// in\n    tag_439:\n        /* \"#utility.yul\":14649:14788   */\n      swap1\n      pop\n        /* \"#utility.yul\":14376:14795   */\n      swap2\n      swap1\n      pop\n      jump\t// out\n        /* \"#utility.yul\":14801:15220   */\n    tag_195:\n        /* \"#utility.yul\":14967:14971   */\n      0x00\n        /* \"#utility.yul\":15005:15007   */\n      0x20\n        /* \"#utility.yul\":14994:15003   */\n      dup3\n        /* \"#utility.yul\":14990:15008   */\n      add\n        /* \"#utility.yul\":14982:15008   */\n      swap1\n      pop\n        /* \"#utility.yul\":15054:15063   */\n      dup2\n        /* \"#utility.yul\":15048:15052   */\n      dup2\n        /* \"#utility.yul\":15044:15064   */\n      sub\n        /* \"#utility.yul\":15040:15041   */\n      0x00\n        /* \"#utility.yul\":15029:15038   */\n      dup4\n        /* \"#utility.yul\":15025:15042   */\n      add\n        /* \"#utility.yul\":15018:15065   */\n      mstore\n        /* \"#utility.yul\":15082:15213   */\n      tag_441\n        /* \"#utility.yul\":15208:15212   */\n      dup2\n        /* \"#utility.yul\":15082:15213   */\n      tag_378\n      jump\t// in\n    tag_441:\n        /* \"#utility.yul\":15074:15213   */\n      swap1\n      pop\n        /* \"#utility.yul\":14801:15220   */\n      swap2\n      swap1\n      pop\n      jump\t// out\n        /* \"#utility.yul\":15226:15645   */\n    tag_174:\n        /* \"#utility.yul\":15392:15396   */\n      0x00\n        /* \"#utility.yul\":15430:15432   */\n      0x20\n        /* \"#utility.yul\":15419:15428   */\n      dup3\n        /* \"#utility.yul\":15415:15433   */\n      add\n        /* \"#utility.yul\":15407:15433   */\n      swap1\n      pop\n        /* \"#utility.yul\":15479:15488   */\n      dup2\n        /* \"#utility.yul\":15473:15477   */\n      dup2\n        /* \"#utility.yul\":15469:15489   */\n      sub\n        /* \"#utility.yul\":15465:15466   */\n      0x00\n        /* \"#utility.yul\":15454:15463   */\n      dup4\n        /* \"#utility.yul\":15450:15467   */\n      add\n        /* \"#utility.yul\":15443:15490   */\n      mstore\n        /* \"#utility.yul\":15507:15638   */\n      tag_443\n        /* \"#utility.yul\":15633:15637   */\n      dup2\n        /* \"#utility.yul\":15507:15638   */\n      tag_383\n      jump\t// in\n    tag_443:\n        /* \"#utility.yul\":15499:15638   */\n      swap1\n      pop\n        /* \"#utility.yul\":15226:15645   */\n      swap2\n      swap1\n      pop\n      jump\t// out\n        /* \"#utility.yul\":15651:16070   */\n    tag_258:\n        /* \"#utility.yul\":15817:15821   */\n      0x00\n        /* \"#utility.yul\":15855:15857   */\n      0x20\n        /* \"#utility.yul\":15844:15853   */\n      dup3\n        /* \"#utility.yul\":15840:15858   */\n      add\n        /* \"#utility.yul\":15832:15858   */\n      swap1\n      pop\n        /* \"#utility.yul\":15904:15913   */\n      dup2\n        /* \"#utility.yul\":15898:15902   */\n      dup2\n        /* \"#utility.yul\":15894:15914   */\n      sub\n        /* \"#utility.yul\":15890:15891   */\n      0x00\n        /* \"#utility.yul\":15879:15888   */\n      dup4\n        /* \"#utility.yul\":15875:15892   */\n      add\n        /* \"#utility.yul\":15868:15915   */\n      mstore\n        /* \"#utility.yul\":15932:16063   */\n      tag_445\n        /* \"#utility.yul\":16058:16062   */\n      dup2\n        /* \"#utility.yul\":15932:16063   */\n      tag_388\n      jump\t// in\n    tag_445:\n        /* \"#utility.yul\":15924:16063   */\n      swap1\n      pop\n        /* \"#utility.yul\":15651:16070   */\n      swap2\n      swap1\n      pop\n      jump\t// out\n        /* \"#utility.yul\":16076:16495   */\n    tag_199:\n        /* \"#utility.yul\":16242:16246   */\n      0x00\n        /* \"#utility.yul\":16280:16282   */\n      0x20\n        /* \"#utility.yul\":16269:16278   */\n      dup3\n        /* \"#utility.yul\":16265:16283   */\n      add\n        /* \"#utility.yul\":16257:16283   */\n      swap1\n      pop\n        /* \"#utility.yul\":16329:16338   */\n      dup2\n        /* \"#utility.yul\":16323:16327   */\n      dup2\n        /* \"#utility.yul\":16319:16339   */\n      sub\n        /* \"#utility.yul\":16315:16316   */\n      0x00\n        /* \"#utility.yul\":16304:16313   */\n      dup4\n        /* \"#utility.yul\":16300:16317   */\n      add\n        /* \"#utility.yul\":16293:16340   */\n      mstore\n        /* \"#utility.yul\":16357:16488   */\n      tag_447\n        /* \"#utility.yul\":16483:16487   */\n      dup2\n        /* \"#utility.yul\":16357:16488   */\n      tag_393\n      jump\t// in\n    tag_447:\n        /* \"#utility.yul\":16349:16488   */\n      swap1\n      pop\n        /* \"#utility.yul\":16076:16495   */\n      swap2\n      swap1\n      pop\n      jump\t// out\n        /* \"#utility.yul\":16501:16920   */\n    tag_100:\n        /* \"#utility.yul\":16667:16671   */\n      0x00\n        /* \"#utility.yul\":16705:16707   */\n      0x20\n        /* \"#utility.yul\":16694:16703   */\n      dup3\n        /* \"#utility.yul\":16690:16708   */\n      add\n        /* \"#utility.yul\":16682:16708   */\n      swap1\n      pop\n        /* \"#utility.yul\":16754:16763   */\n      dup2\n        /* \"#utility.yul\":16748:16752   */\n      dup2\n        /* \"#utility.yul\":16744:16764   */\n      sub\n        /* \"#utility.yul\":16740:16741   */\n      0x00\n        /* \"#utility.yul\":16729:16738   */\n      dup4\n        /* \"#utility.yul\":16725:16742   */\n      add\n        /* \"#utility.yul\":16718:16765   */\n      mstore\n        /* \"#utility.yul\":16782:16913   */\n      tag_449\n        /* \"#utility.yul\":16908:16912   */\n      dup2\n        /* \"#utility.yul\":16782:16913   */\n      tag_398\n      jump\t// in\n    tag_449:\n        /* \"#utility.yul\":16774:16913   */\n      swap1\n      pop\n        /* \"#utility.yul\":16501:16920   */\n      swap2\n      swap1\n      pop\n      jump\t// out\n        /* \"#utility.yul\":16926:17345   */\n    tag_187:\n        /* \"#utility.yul\":17092:17096   */\n      0x00\n        /* \"#utility.yul\":17130:17132   */\n      0x20\n        /* \"#utility.yul\":17119:17128   */\n      dup3\n        /* \"#utility.yul\":17115:17133   */\n      add\n        /* \"#utility.yul\":17107:17133   */\n      swap1\n      pop\n        /* \"#utility.yul\":17179:17188   */\n      dup2\n        /* \"#utility.yul\":17173:17177   */\n      dup2\n        /* \"#utility.yul\":17169:17189   */\n      sub\n        /* \"#utility.yul\":17165:17166   */\n      0x00\n        /* \"#utility.yul\":17154:17163   */\n      dup4\n        /* \"#utility.yul\":17150:17167   */\n      add\n        /* \"#utility.yul\":17143:17190   */\n      mstore\n        /* \"#utility.yul\":17207:17338   */\n      tag_451\n        /* \"#utility.yul\":17333:17337   */\n      dup2\n        /* \"#utility.yul\":17207:17338   */\n      tag_403\n      jump\t// in\n    tag_451:\n        /* \"#utility.yul\":17199:17338   */\n      swap1\n      pop\n        /* \"#utility.yul\":16926:17345   */\n      swap2\n      swap1\n      pop\n      jump\t// out\n        /* \"#utility.yul\":17351:17573   */\n    tag_52:\n        /* \"#utility.yul\":17444:17448   */\n      0x00\n        /* \"#utility.yul\":17482:17484   */\n      0x20\n        /* \"#utility.yul\":17471:17480   */\n      dup3\n        /* \"#utility.yul\":17467:17485   */\n      add\n        /* \"#utility.yul\":17459:17485   */\n      swap1\n      pop\n        /* \"#utility.yul\":17495:17566   */\n      tag_453\n        /* \"#utility.yul\":17563:17564   */\n      0x00\n        /* \"#utility.yul\":17552:17561   */\n      dup4\n        /* \"#utility.yul\":17548:17565   */\n      add\n        /* \"#utility.yul\":17539:17545   */\n      dup5\n        /* \"#utility.yul\":17495:17566   */\n      tag_408\n      jump\t// in\n    tag_453:\n        /* \"#utility.yul\":17351:17573   */\n      swap3\n      swap2\n      pop\n      pop\n      jump\t// out\n        /* \"#utility.yul\":17579:17797   */\n    tag_40:\n        /* \"#utility.yul\":17670:17674   */\n      0x00\n        /* \"#utility.yul\":17708:17710   */\n      0x20\n        /* \"#utility.yul\":17697:17706   */\n      dup3\n        /* \"#utility.yul\":17693:17711   */\n      add\n        /* \"#utility.yul\":17685:17711   */\n      swap1\n      pop\n        /* \"#utility.yul\":17721:17790   */\n      tag_455\n        /* \"#utility.yul\":17787:17788   */\n      0x00\n        /* \"#utility.yul\":17776:17785   */\n      dup4\n        /* \"#utility.yul\":17772:17789   */\n      add\n        /* \"#utility.yul\":17763:17769   */\n      dup5\n        /* \"#utility.yul\":17721:17790   */\n      tag_412\n      jump\t// in\n    tag_455:\n        /* \"#utility.yul\":17579:17797   */\n      swap3\n      swap2\n      pop\n      pop\n      jump\t// out\n        /* \"#utility.yul\":17803:18336   */\n    tag_47:\n        /* \"#utility.yul\":17970:17974   */\n      0x00\n        /* \"#utility.yul\":18008:18011   */\n      0x80\n        /* \"#utility.yul\":17997:18006   */\n      dup3\n        /* \"#utility.yul\":17993:18012   */\n      add\n        /* \"#utility.yul\":17985:18012   */\n      swap1\n      pop\n        /* \"#utility.yul\":18022:18091   */\n      tag_457\n        /* \"#utility.yul\":18088:18089   */\n      0x00\n        /* \"#utility.yul\":18077:18086   */\n      dup4\n        /* \"#utility.yul\":18073:18090   */\n      add\n        /* \"#utility.yul\":18064:18070   */\n      dup8\n        /* \"#utility.yul\":18022:18091   */\n      tag_412\n      jump\t// in\n    tag_457:\n        /* \"#utility.yul\":18101:18173   */\n      tag_458\n        /* \"#utility.yul\":18169:18171   */\n      0x20\n        /* \"#utility.yul\":18158:18167   */\n      dup4\n        /* \"#utility.yul\":18154:18172   */\n      add\n        /* \"#utility.yul\":18145:18151   */\n      dup7\n        /* \"#utility.yul\":18101:18173   */\n      tag_408\n      jump\t// in\n    tag_458:\n        /* \"#utility.yul\":18183:18253   */\n      tag_459\n        /* \"#utility.yul\":18249:18251   */\n      0x40\n        /* \"#utility.yul\":18238:18247   */\n      dup4\n        /* \"#utility.yul\":18234:18252   */\n      add\n        /* \"#utility.yul\":18225:18231   */\n      dup6\n        /* \"#utility.yul\":18183:18253   */\n      tag_412\n      jump\t// in\n    tag_459:\n        /* \"#utility.yul\":18263:18329   */\n      tag_460\n        /* \"#utility.yul\":18325:18327   */\n      0x60\n        /* \"#utility.yul\":18314:18323   */\n      dup4\n        /* \"#utility.yul\":18310:18328   */\n      add\n        /* \"#utility.yul\":18301:18307   */\n      dup5\n        /* \"#utility.yul\":18263:18329   */\n      tag_318\n      jump\t// in\n    tag_460:\n        /* \"#utility.yul\":17803:18336   */\n      swap6\n      swap5\n      pop\n      pop\n      pop\n      pop\n      pop\n      jump\t// out\n        /* \"#utility.yul\":18423:18592   */\n    tag_325:\n        /* \"#utility.yul\":18507:18518   */\n      0x00\n        /* \"#utility.yul\":18541:18547   */\n      dup3\n        /* \"#utility.yul\":18536:18539   */\n      dup3\n        /* \"#utility.yul\":18529:18548   */\n      mstore\n        /* \"#utility.yul\":18581:18585   */\n      0x20\n        /* \"#utility.yul\":18576:18579   */\n      dup3\n        /* \"#utility.yul\":18572:18586   */\n      add\n        /* \"#utility.yul\":18557:18586   */\n      swap1\n      pop\n        /* \"#utility.yul\":18423:18592   */\n      swap3\n      swap2\n      pop\n      pop\n      jump\t// out\n        /* \"#utility.yul\":18598:18903   */\n    tag_105:\n        /* \"#utility.yul\":18638:18641   */\n      0x00\n        /* \"#utility.yul\":18657:18677   */\n      tag_465\n        /* \"#utility.yul\":18675:18676   */\n      dup3\n        /* \"#utility.yul\":18657:18677   */\n      tag_411\n      jump\t// in\n    tag_465:\n        /* \"#utility.yul\":18652:18677   */\n      swap2\n      pop\n        /* \"#utility.yul\":18691:18711   */\n      tag_466\n        /* \"#utility.yul\":18709:18710   */\n      dup4\n        /* \"#utility.yul\":18691:18711   */\n      tag_411\n      jump\t// in\n    tag_466:\n        /* \"#utility.yul\":18686:18711   */\n      swap3\n      pop\n        /* \"#utility.yul\":18845:18846   */\n      dup3\n        /* \"#utility.yul\":18777:18843   */\n      0xffffffffffffffffffffffffffffffffffffffffffffffffffffffffffffffff\n        /* \"#utility.yul\":18773:18847   */\n      sub\n        /* \"#utility.yul\":18770:18771   */\n      dup3\n        /* \"#utility.yul\":18767:18848   */\n      gt\n        /* \"#utility.yul\":18764:18871   */\n      iszero\n      tag_467\n      jumpi\n        /* \"#utility.yul\":18851:18869   */\n      tag_468\n      tag_469\n      jump\t// in\n    tag_468:\n        /* \"#utility.yul\":18764:18871   */\n    tag_467:\n        /* \"#utility.yul\":18895:18896   */\n      dup3\n        /* \"#utility.yul\":18892:18893   */\n      dup3\n        /* \"#utility.yul\":18888:18897   */\n      add\n        /* \"#utility.yul\":18881:18897   */\n      swap1\n      pop\n        /* \"#utility.yul\":18598:18903   */\n      swap3\n      swap2\n      pop\n      pop\n      jump\t// out\n        /* \"#utility.yul\":18909:19155   */\n    tag_117:\n        /* \"#utility.yul\":18948:18951   */\n      0x00\n        /* \"#utility.yul\":18967:18986   */\n      tag_471\n        /* \"#utility.yul\":18984:18985   */\n      dup3\n        /* \"#utility.yul\":18967:18986   */\n      tag_415\n      jump\t// in\n    tag_471:\n        /* \"#utility.yul\":18962:18986   */\n      swap2\n      pop\n        /* \"#utility.yul\":19000:19019   */\n      tag_472\n        /* \"#utility.yul\":19017:19018   */\n      dup4\n        /* \"#utility.yul\":19000:19019   */\n      tag_415\n      jump\t// in\n    tag_472:\n        /* \"#utility.yul\":18995:19019   */\n      swap3\n      pop\n        /* \"#utility.yul\":19097:19098   */\n      dup3\n        /* \"#utility.yul\":19085:19095   */\n      0xffffffff\n        /* \"#utility.yul\":19081:19099   */\n      sub\n        /* \"#utility.yul\":19078:19079   */\n      dup3\n        /* \"#utility.yul\":19075:19100   */\n      gt\n        /* \"#utility.yul\":19072:19123   */\n      iszero\n      tag_473\n      jumpi\n        /* \"#utility.yul\":19103:19121   */\n      tag_474\n      tag_469\n      jump\t// in\n    tag_474:\n        /* \"#utility.yul\":19072:19123   */\n    tag_473:\n        /* \"#utility.yul\":19147:19148   */\n      dup3\n        /* \"#utility.yul\":19144:19145   */\n      dup3\n        /* \"#utility.yul\":19140:19149   */\n      add\n        /* \"#utility.yul\":19133:19149   */\n      swap1\n      pop\n        /* \"#utility.yul\":18909:19155   */\n      swap3\n      swap2\n      pop\n      pop\n      jump\t// out\n        /* \"#utility.yul\":19161:19509   */\n    tag_127:\n        /* \"#utility.yul\":19201:19208   */\n      0x00\n        /* \"#utility.yul\":19224:19244   */\n      tag_476\n        /* \"#utility.yul\":19242:19243   */\n      dup3\n        /* \"#utility.yul\":19224:19244   */\n      tag_411\n      jump\t// in\n    tag_476:\n        /* \"#utility.yul\":19219:19244   */\n      swap2\n      pop\n        /* \"#utility.yul\":19258:19278   */\n      tag_477\n        /* \"#utility.yul\":19276:19277   */\n      dup4\n        /* \"#utility.yul\":19258:19278   */\n      tag_411\n      jump\t// in\n    tag_477:\n        /* \"#utility.yul\":19253:19278   */\n      swap3\n      pop\n        /* \"#utility.yul\":19446:19447   */\n      dup2\n        /* \"#utility.yul\":19378:19444   */\n      0xffffffffffffffffffffffffffffffffffffffffffffffffffffffffffffffff\n        /* \"#utility.yul\":19374:19448   */\n      div\n        /* \"#utility.yul\":19371:19372   */\n      dup4\n        /* \"#utility.yul\":19368:19449   */\n      gt\n        /* \"#utility.yul\":19363:19364   */\n      dup3\n        /* \"#utility.yul\":19356:19365   */\n      iszero\n        /* \"#utility.yul\":19349:19366   */\n      iszero\n        /* \"#utility.yul\":19345:19450   */\n      and\n        /* \"#utility.yul\":19342:19473   */\n      iszero\n      tag_478\n      jumpi\n        /* \"#utility.yul\":19453:19471   */\n      tag_479\n      tag_469\n      jump\t// in\n    tag_479:\n        /* \"#utility.yul\":19342:19473   */\n    tag_478:\n        /* \"#utility.yul\":19501:19502   */\n      dup3\n        /* \"#utility.yul\":19498:19499   */\n      dup3\n        /* \"#utility.yul\":19494:19503   */\n      mul\n        /* \"#utility.yul\":19483:19503   */\n      swap1\n      pop\n        /* \"#utility.yul\":19161:19509   */\n      swap3\n      swap2\n      pop\n      pop\n      jump\t// out\n        /* \"#utility.yul\":19515:19706   */\n    tag_147:\n        /* \"#utility.yul\":19555:19559   */\n      0x00\n        /* \"#utility.yul\":19575:19595   */\n      tag_481\n        /* \"#utility.yul\":19593:19594   */\n      dup3\n        /* \"#utility.yul\":19575:19595   */\n      tag_411\n      jump\t// in\n    tag_481:\n        /* \"#utility.yul\":19570:19595   */\n      swap2\n      pop\n        /* \"#utility.yul\":19609:19629   */\n      tag_482\n        /* \"#utility.yul\":19627:19628   */\n      dup4\n        /* \"#utility.yul\":19609:19629   */\n      tag_411\n      jump\t// in\n    tag_482:\n        /* \"#utility.yul\":19604:19629   */\n      swap3\n      pop\n        /* \"#utility.yul\":19648:19649   */\n      dup3\n        /* \"#utility.yul\":19645:19646   */\n      dup3\n        /* \"#utility.yul\":19642:19650   */\n      lt\n        /* \"#utility.yul\":19639:19673   */\n      iszero\n      tag_483\n      jumpi\n        /* \"#utility.yul\":19653:19671   */\n      tag_484\n      tag_469\n      jump\t// in\n    tag_484:\n        /* \"#utility.yul\":19639:19673   */\n    tag_483:\n        /* \"#utility.yul\":19698:19699   */\n      dup3\n        /* \"#utility.yul\":19695:19696   */\n      dup3\n        /* \"#utility.yul\":19691:19700   */\n      sub\n        /* \"#utility.yul\":19683:19700   */\n      swap1\n      pop\n        /* \"#utility.yul\":19515:19706   */\n      swap3\n      swap2\n      pop\n      pop\n      jump\t// out\n        /* \"#utility.yul\":19712:19900   */\n    tag_133:\n        /* \"#utility.yul\":19751:19755   */\n      0x00\n        /* \"#utility.yul\":19771:19790   */\n      tag_486\n        /* \"#utility.yul\":19788:19789   */\n      dup3\n        /* \"#utility.yul\":19771:19790   */\n      tag_415\n      jump\t// in\n    tag_486:\n        /* \"#utility.yul\":19766:19790   */\n      swap2\n      pop\n        /* \"#utility.yul\":19804:19823   */\n      tag_487\n        /* \"#utility.yul\":19821:19822   */\n      dup4\n        /* \"#utility.yul\":19804:19823   */\n      tag_415\n      jump\t// in\n    tag_487:\n        /* \"#utility.yul\":19799:19823   */\n      swap3\n      pop\n        /* \"#utility.yul\":19842:19843   */\n      dup3\n        /* \"#utility.yul\":19839:19840   */\n      dup3\n        /* \"#utility.yul\":19836:19844   */\n      lt\n        /* \"#utility.yul\":19833:19867   */\n      iszero\n      tag_488\n      jumpi\n        /* \"#utility.yul\":19847:19865   */\n      tag_489\n      tag_469\n      jump\t// in\n    tag_489:\n        /* \"#utility.yul\":19833:19867   */\n    tag_488:\n        /* \"#utility.yul\":19892:19893   */\n      dup3\n        /* \"#utility.yul\":19889:19890   */\n      dup3\n        /* \"#utility.yul\":19885:19894   */\n      sub\n        /* \"#utility.yul\":19877:19894   */\n      swap1\n      pop\n        /* \"#utility.yul\":19712:19900   */\n      swap3\n      swap2\n      pop\n      pop\n      jump\t// out\n        /* \"#utility.yul\":19906:20002   */\n    tag_317:\n        /* \"#utility.yul\":19943:19950   */\n      0x00\n        /* \"#utility.yul\":19972:19996   */\n      tag_491\n        /* \"#utility.yul\":19990:19995   */\n      dup3\n        /* \"#utility.yul\":19972:19996   */\n      tag_492\n      jump\t// in\n    tag_491:\n        /* \"#utility.yul\":19961:19996   */\n      swap1\n      pop\n        /* \"#utility.yul\":19906:20002   */\n      swap2\n      swap1\n      pop\n      jump\t// out\n        /* \"#utility.yul\":20008:20112   */\n    tag_493:\n        /* \"#utility.yul\":20053:20060   */\n      0x00\n        /* \"#utility.yul\":20082:20106   */\n      tag_495\n        /* \"#utility.yul\":20100:20105   */\n      dup3\n        /* \"#utility.yul\":20082:20106   */\n      tag_492\n      jump\t// in\n    tag_495:\n        /* \"#utility.yul\":20071:20106   */\n      swap1\n      pop\n        /* \"#utility.yul\":20008:20112   */\n      swap2\n      swap1\n      pop\n      jump\t// out\n        /* \"#utility.yul\":20118:20208   */\n    tag_321:\n        /* \"#utility.yul\":20152:20159   */\n      0x00\n        /* \"#utility.yul\":20195:20200   */\n      dup2\n        /* \"#utility.yul\":20188:20201   */\n      iszero\n        /* \"#utility.yul\":20181:20202   */\n      iszero\n        /* \"#utility.yul\":20170:20202   */\n      swap1\n      pop\n        /* \"#utility.yul\":20118:20208   */\n      swap2\n      swap1\n      pop\n      jump\t// out\n        /* \"#utility.yul\":20214:20340   */\n    tag_492:\n        /* \"#utility.yul\":20251:20258   */\n      0x00\n        /* \"#utility.yul\":20291:20333   */\n      0xffffffffffffffffffffffffffffffffffffffff\n        /* \"#utility.yul\":20284:20289   */\n      dup3\n        /* \"#utility.yul\":20280:20334   */\n      and\n        /* \"#utility.yul\":20269:20334   */\n      swap1\n      pop\n        /* \"#utility.yul\":20214:20340   */\n      swap2\n      swap1\n      pop\n      jump\t// out\n        /* \"#utility.yul\":20346:20423   */\n    tag_411:\n        /* \"#utility.yul\":20383:20390   */\n      0x00\n        /* \"#utility.yul\":20412:20417   */\n      dup2\n        /* \"#utility.yul\":20401:20417   */\n      swap1\n      pop\n        /* \"#utility.yul\":20346:20423   */\n      swap2\n      swap1\n      pop\n      jump\t// out\n        /* \"#utility.yul\":20429:20522   */\n    tag_415:\n        /* \"#utility.yul\":20465:20472   */\n      0x00\n        /* \"#utility.yul\":20505:20515   */\n      0xffffffff\n        /* \"#utility.yul\":20498:20503   */\n      dup3\n        /* \"#utility.yul\":20494:20516   */\n      and\n        /* \"#utility.yul\":20483:20516   */\n      swap1\n      pop\n        /* \"#utility.yul\":20429:20522   */\n      swap2\n      swap1\n      pop\n      jump\t// out\n        /* \"#utility.yul\":20528:20761   */\n    tag_145:\n        /* \"#utility.yul\":20567:20570   */\n      0x00\n        /* \"#utility.yul\":20590:20614   */\n      tag_501\n        /* \"#utility.yul\":20608:20613   */\n      dup3\n        /* \"#utility.yul\":20590:20614   */\n      tag_411\n      jump\t// in\n    tag_501:\n        /* \"#utility.yul\":20581:20614   */\n      swap2\n      pop\n        /* \"#utility.yul\":20636:20702   */\n      0xffffffffffffffffffffffffffffffffffffffffffffffffffffffffffffffff\n        /* \"#utility.yul\":20629:20634   */\n      dup3\n        /* \"#utility.yul\":20626:20703   */\n      eq\n        /* \"#utility.yul\":20623:20726   */\n      iszero\n      tag_502\n      jumpi\n        /* \"#utility.yul\":20706:20724   */\n      tag_503\n      tag_469\n      jump\t// in\n    tag_503:\n        /* \"#utility.yul\":20623:20726   */\n    tag_502:\n        /* \"#utility.yul\":20753:20754   */\n      0x01\n        /* \"#utility.yul\":20746:20751   */\n      dup3\n        /* \"#utility.yul\":20742:20755   */\n      add\n        /* \"#utility.yul\":20735:20755   */\n      swap1\n      pop\n        /* \"#utility.yul\":20528:20761   */\n      swap2\n      swap1\n      pop\n      jump\t// out\n        /* \"#utility.yul\":20767:20947   */\n    tag_469:\n        /* \"#utility.yul\":20815:20892   */\n      0x4e487b7100000000000000000000000000000000000000000000000000000000\n        /* \"#utility.yul\":20812:20813   */\n      0x00\n        /* \"#utility.yul\":20805:20893   */\n      mstore\n        /* \"#utility.yul\":20912:20916   */\n      0x11\n        /* \"#utility.yul\":20909:20910   */\n      0x04\n        /* \"#utility.yul\":20902:20917   */\n      mstore\n        /* \"#utility.yul\":20936:20940   */\n      0x24\n        /* \"#utility.yul\":20933:20934   */\n      0x00\n        /* \"#utility.yul\":20926:20941   */\n      revert\n        /* \"#utility.yul\":20953:21133   */\n    tag_160:\n        /* \"#utility.yul\":21001:21078   */\n      0x4e487b7100000000000000000000000000000000000000000000000000000000\n        /* \"#utility.yul\":20998:20999   */\n      0x00\n        /* \"#utility.yul\":20991:21079   */\n      mstore\n        /* \"#utility.yul\":21098:21102   */\n      0x31\n        /* \"#utility.yul\":21095:21096   */\n      0x04\n        /* \"#utility.yul\":21088:21103   */\n      mstore\n        /* \"#utility.yul\":21122:21126   */\n      0x24\n        /* \"#utility.yul\":21119:21120   */\n      0x00\n        /* \"#utility.yul\":21112:21127   */\n      revert\n        /* \"#utility.yul\":21139:21319   */\n    tag_141:\n        /* \"#utility.yul\":21187:21264   */\n      0x4e487b7100000000000000000000000000000000000000000000000000000000\n        /* \"#utility.yul\":21184:21185   */\n      0x00\n        /* \"#utility.yul\":21177:21265   */\n      mstore\n        /* \"#utility.yul\":21284:21288   */\n      0x32\n        /* \"#utility.yul\":21281:21282   */\n      0x04\n        /* \"#utility.yul\":21274:21289   */\n      mstore\n        /* \"#utility.yul\":21308:21312   */\n      0x24\n        /* \"#utility.yul\":21305:21306   */\n      0x00\n        /* \"#utility.yul\":21298:21313   */\n      revert\n        /* \"#utility.yul\":21448:21565   */\n    tag_289:\n        /* \"#utility.yul\":21557:21558   */\n      0x00\n        /* \"#utility.yul\":21554:21555   */\n      dup1\n        /* \"#utility.yul\":21547:21559   */\n      revert\n        /* \"#utility.yul\":21571:21887   */\n    tag_327:\n        /* \"#utility.yul\":21711:21745   */\n      0x596f752063616e27742077697468647261772066756e647320647572696e6720\n        /* \"#utility.yul\":21707:21708   */\n      0x00\n        /* \"#utility.yul\":21699:21705   */\n      dup3\n        /* \"#utility.yul\":21695:21709   */\n      add\n        /* \"#utility.yul\":21688:21746   */\n      mstore\n        /* \"#utility.yul\":21780:21814   */\n      0x746865206d656574696e672c20626563617573652069742063616e206d616b65\n        /* \"#utility.yul\":21775:21777   */\n      0x20\n        /* \"#utility.yul\":21767:21773   */\n      dup3\n        /* \"#utility.yul\":21763:21778   */\n      add\n        /* \"#utility.yul\":21756:21815   */\n      mstore\n        /* \"#utility.yul\":21849:21879   */\n      0x206469766964656e647320696d706f737369626c6520746f2070617900000000\n        /* \"#utility.yul\":21844:21846   */\n      0x40\n        /* \"#utility.yul\":21836:21842   */\n      dup3\n        /* \"#utility.yul\":21832:21847   */\n      add\n        /* \"#utility.yul\":21825:21880   */\n      mstore\n        /* \"#utility.yul\":21571:21887   */\n      pop\n      jump\t// out\n        /* \"#utility.yul\":21893:22120   */\n    tag_332:\n        /* \"#utility.yul\":22033:22067   */\n      0x50726f706f73616c2074696d6520666f722074686973206d656574696e672068\n        /* \"#utility.yul\":22029:22030   */\n      0x00\n        /* \"#utility.yul\":22021:22027   */\n      dup3\n        /* \"#utility.yul\":22017:22031   */\n      add\n        /* \"#utility.yul\":22010:22068   */\n      mstore\n        /* \"#utility.yul\":22102:22112   */\n      0x617320656e646564000000000000000000000000000000000000000000000000\n        /* \"#utility.yul\":22097:22099   */\n      0x20\n        /* \"#utility.yul\":22089:22095   */\n      dup3\n        /* \"#utility.yul\":22085:22100   */\n      add\n        /* \"#utility.yul\":22078:22113   */\n      mstore\n        /* \"#utility.yul\":21893:22120   */\n      pop\n      jump\t// out\n        /* \"#utility.yul\":22126:22299   */\n    tag_337:\n        /* \"#utility.yul\":22266:22291   */\n      0x566f74696e672074696d65206861736e277420636f6d65000000000000000000\n        /* \"#utility.yul\":22262:22263   */\n      0x00\n        /* \"#utility.yul\":22254:22260   */\n      dup3\n        /* \"#utility.yul\":22250:22264   */\n      add\n        /* \"#utility.yul\":22243:22292   */\n      mstore\n        /* \"#utility.yul\":22126:22299   */\n      pop\n      jump\t// out\n        /* \"#utility.yul\":22305:22480   */\n    tag_342:\n        /* \"#utility.yul\":22445:22472   */\n      0x43616c6c6572206973206e6f742073746f636b686f6c64657200000000000000\n        /* \"#utility.yul\":22441:22442   */\n      0x00\n        /* \"#utility.yul\":22433:22439   */\n      dup3\n        /* \"#utility.yul\":22429:22443   */\n      add\n        /* \"#utility.yul\":22422:22473   */\n      mstore\n        /* \"#utility.yul\":22305:22480   */\n      pop\n      jump\t// out\n        /* \"#utility.yul\":22486:22732   */\n    tag_347:\n        /* \"#utility.yul\":22626:22660   */\n      0x417474656d7074656420746f20627579206d6f72652073746f636b7320746861\n        /* \"#utility.yul\":22622:22623   */\n      0x00\n        /* \"#utility.yul\":22614:22620   */\n      dup3\n        /* \"#utility.yul\":22610:22624   */\n      add\n        /* \"#utility.yul\":22603:22661   */\n      mstore\n        /* \"#utility.yul\":22695:22724   */\n      0x6e2073656c6c65722069732077696c6c696e6720746f2073656c6c0000000000\n        /* \"#utility.yul\":22690:22692   */\n      0x20\n        /* \"#utility.yul\":22682:22688   */\n      dup3\n        /* \"#utility.yul\":22678:22693   */\n      add\n        /* \"#utility.yul\":22671:22725   */\n      mstore\n        /* \"#utility.yul\":22486:22732   */\n      pop\n      jump\t// out\n        /* \"#utility.yul\":22738:22966   */\n    tag_352:\n        /* \"#utility.yul\":22878:22912   */\n      0x54686973206469766964656e6420616d6f756e74206861736e2774206265656e\n        /* \"#utility.yul\":22874:22875   */\n      0x00\n        /* \"#utility.yul\":22866:22872   */\n      dup3\n        /* \"#utility.yul\":22862:22876   */\n      add\n        /* \"#utility.yul\":22855:22913   */\n      mstore\n        /* \"#utility.yul\":22947:22958   */\n      0x2070726f706f7365640000000000000000000000000000000000000000000000\n        /* \"#utility.yul\":22942:22944   */\n      0x20\n        /* \"#utility.yul\":22934:22940   */\n      dup3\n        /* \"#utility.yul\":22930:22945   */\n      add\n        /* \"#utility.yul\":22923:22959   */\n      mstore\n        /* \"#utility.yul\":22738:22966   */\n      pop\n      jump\t// out\n        /* \"#utility.yul\":22972:23209   */\n    tag_357:\n        /* \"#utility.yul\":23112:23146   */\n      0x4469766964656e64732063616e206f6e6c792062652070616964206174207468\n        /* \"#utility.yul\":23108:23109   */\n      0x00\n        /* \"#utility.yul\":23100:23106   */\n      dup3\n        /* \"#utility.yul\":23096:23110   */\n      add\n        /* \"#utility.yul\":23089:23147   */\n      mstore\n        /* \"#utility.yul\":23181:23201   */\n      0x6520656e64206f662061206d656574696e670000000000000000000000000000\n        /* \"#utility.yul\":23176:23178   */\n      0x20\n        /* \"#utility.yul\":23168:23174   */\n      dup3\n        /* \"#utility.yul\":23164:23179   */\n      add\n        /* \"#utility.yul\":23157:23202   */\n      mstore\n        /* \"#utility.yul\":22972:23209   */\n      pop\n      jump\t// out\n        /* \"#utility.yul\":23215:23435   */\n    tag_362:\n        /* \"#utility.yul\":23355:23389   */\n      0x4469766964656e647320706179696e672074696d65206861736e277420636f6d\n        /* \"#utility.yul\":23351:23352   */\n      0x00\n        /* \"#utility.yul\":23343:23349   */\n      dup3\n        /* \"#utility.yul\":23339:23353   */\n      add\n        /* \"#utility.yul\":23332:23390   */\n      mstore\n        /* \"#utility.yul\":23424:23427   */\n      0x6500000000000000000000000000000000000000000000000000000000000000\n        /* \"#utility.yul\":23419:23421   */\n      0x20\n        /* \"#utility.yul\":23411:23417   */\n      dup3\n        /* \"#utility.yul\":23407:23422   */\n      add\n        /* \"#utility.yul\":23400:23428   */\n      mstore\n        /* \"#utility.yul\":23215:23435   */\n      pop\n      jump\t// out\n        /* \"#utility.yul\":23441:23666   */\n    tag_367:\n        /* \"#utility.yul\":23581:23615   */\n      0x566f74696e672074696d6520666f722074686973206d656574696e6720686173\n        /* \"#utility.yul\":23577:23578   */\n      0x00\n        /* \"#utility.yul\":23569:23575   */\n      dup3\n        /* \"#utility.yul\":23565:23579   */\n      add\n        /* \"#utility.yul\":23558:23616   */\n      mstore\n        /* \"#utility.yul\":23650:23658   */\n      0x20656e6465640000000000000000000000000000000000000000000000000000\n        /* \"#utility.yul\":23645:23647   */\n      0x20\n        /* \"#utility.yul\":23637:23643   */\n      dup3\n        /* \"#utility.yul\":23633:23648   */\n      add\n        /* \"#utility.yul\":23626:23659   */\n      mstore\n        /* \"#utility.yul\":23441:23666   */\n      pop\n      jump\t// out\n        /* \"#utility.yul\":23672:23961   */\n    tag_372:\n        /* \"#utility.yul\":23812:23846   */\n      0x596f752061726520747279696e6720746f206372656174652073656c6c206f72\n        /* \"#utility.yul\":23808:23809   */\n      0x00\n        /* \"#utility.yul\":23800:23806   */\n      dup3\n        /* \"#utility.yul\":23796:23810   */\n      add\n        /* \"#utility.yul\":23789:23847   */\n      mstore\n        /* \"#utility.yul\":23881:23915   */\n      0x64657220666f72206d6f72652073746f636b73207468616e20796f7520686176\n        /* \"#utility.yul\":23876:23878   */\n      0x20\n        /* \"#utility.yul\":23868:23874   */\n      dup3\n        /* \"#utility.yul\":23864:23879   */\n      add\n        /* \"#utility.yul\":23857:23916   */\n      mstore\n        /* \"#utility.yul\":23950:23953   */\n      0x6500000000000000000000000000000000000000000000000000000000000000\n        /* \"#utility.yul\":23945:23947   */\n      0x40\n        /* \"#utility.yul\":23937:23943   */\n      dup3\n        /* \"#utility.yul\":23933:23948   */\n      add\n        /* \"#utility.yul\":23926:23954   */\n      mstore\n        /* \"#utility.yul\":23672:23961   */\n      pop\n      jump\t// out\n        /* \"#utility.yul\":23967:24196   */\n    tag_377:\n        /* \"#utility.yul\":24107:24141   */\n      0x596f75206469646e27742073656e6420656e6f756768206d6f6e657920746f20\n        /* \"#utility.yul\":24103:24104   */\n      0x00\n        /* \"#utility.yul\":24095:24101   */\n      dup3\n        /* \"#utility.yul\":24091:24105   */\n      add\n        /* \"#utility.yul\":24084:24142   */\n      mstore\n        /* \"#utility.yul\":24176:24188   */\n      0x6275792073746f636b7300000000000000000000000000000000000000000000\n        /* \"#utility.yul\":24171:24173   */\n      0x20\n        /* \"#utility.yul\":24163:24169   */\n      dup3\n        /* \"#utility.yul\":24159:24174   */\n      add\n        /* \"#utility.yul\":24152:24189   */\n      mstore\n        /* \"#utility.yul\":23967:24196   */\n      pop\n      jump\t// out\n        /* \"#utility.yul\":24202:24376   */\n    tag_382:\n        /* \"#utility.yul\":24342:24368   */\n      0x4d656574696e672074696d65206861736e277420636f6d650000000000000000\n        /* \"#utility.yul\":24338:24339   */\n      0x00\n        /* \"#utility.yul\":24330:24336   */\n      dup3\n        /* \"#utility.yul\":24326:24340   */\n      add\n        /* \"#utility.yul\":24319:24369   */\n      mstore\n        /* \"#utility.yul\":24202:24376   */\n      pop\n      jump\t// out\n        /* \"#utility.yul\":24382:24554   */\n    tag_387:\n        /* \"#utility.yul\":24522:24546   */\n      0x43616c6c6572206973206e6f74206469726563746f7200000000000000000000\n        /* \"#utility.yul\":24518:24519   */\n      0x00\n        /* \"#utility.yul\":24510:24516   */\n      dup3\n        /* \"#utility.yul\":24506:24520   */\n      add\n        /* \"#utility.yul\":24499:24547   */\n      mstore\n        /* \"#utility.yul\":24382:24554   */\n      pop\n      jump\t// out\n        /* \"#utility.yul\":24560:24739   */\n    tag_392:\n        /* \"#utility.yul\":24700:24731   */\n      0x416d6f756e74206973206c6172676572207468616e2062616c616e6365000000\n        /* \"#utility.yul\":24696:24697   */\n      0x00\n        /* \"#utility.yul\":24688:24694   */\n      dup3\n        /* \"#utility.yul\":24684:24698   */\n      add\n        /* \"#utility.yul\":24677:24732   */\n      mstore\n        /* \"#utility.yul\":24560:24739   */\n      pop\n      jump\t// out\n        /* \"#utility.yul\":24745:24993   */\n    tag_397:\n        /* \"#utility.yul\":24885:24919   */\n      0x436f6d70616e7920646f65736e2774206861766520656e6f756768206d6f6e65\n        /* \"#utility.yul\":24881:24882   */\n      0x00\n        /* \"#utility.yul\":24873:24879   */\n      dup3\n        /* \"#utility.yul\":24869:24883   */\n      add\n        /* \"#utility.yul\":24862:24920   */\n      mstore\n        /* \"#utility.yul\":24954:24985   */\n      0x7920746f207061792074686174206c61726765206469766964656e6473000000\n        /* \"#utility.yul\":24949:24951   */\n      0x20\n        /* \"#utility.yul\":24941:24947   */\n      dup3\n        /* \"#utility.yul\":24937:24952   */\n      add\n        /* \"#utility.yul\":24930:24986   */\n      mstore\n        /* \"#utility.yul\":24745:24993   */\n      pop\n      jump\t// out\n        /* \"#utility.yul\":24999:25171   */\n    tag_402:\n        /* \"#utility.yul\":25139:25163   */\n      0x596f75206861766520616c726561647920766f74656400000000000000000000\n        /* \"#utility.yul\":25135:25136   */\n      0x00\n        /* \"#utility.yul\":25127:25133   */\n      dup3\n        /* \"#utility.yul\":25123:25137   */\n      add\n        /* \"#utility.yul\":25116:25164   */\n      mstore\n        /* \"#utility.yul\":24999:25171   */\n      pop\n      jump\t// out\n        /* \"#utility.yul\":25177:25473   */\n    tag_407:\n        /* \"#utility.yul\":25317:25351   */\n      0x596f752061726520747279696e6720746f206372656174652073656c6c206f72\n        /* \"#utility.yul\":25313:25314   */\n      0x00\n        /* \"#utility.yul\":25305:25311   */\n      dup3\n        /* \"#utility.yul\":25301:25315   */\n      add\n        /* \"#utility.yul\":25294:25352   */\n      mstore\n        /* \"#utility.yul\":25386:25420   */\n      0x64657220666f72206d6f72652073746f636b73207468616e2074686520636f6d\n        /* \"#utility.yul\":25381:25383   */\n      0x20\n        /* \"#utility.yul\":25373:25379   */\n      dup3\n        /* \"#utility.yul\":25369:25384   */\n      add\n        /* \"#utility.yul\":25362:25421   */\n      mstore\n        /* \"#utility.yul\":25455:25465   */\n      0x70616e7920686173000000000000000000000000000000000000000000000000\n        /* \"#utility.yul\":25450:25452   */\n      0x40\n        /* \"#utility.yul\":25442:25448   */\n      dup3\n        /* \"#utility.yul\":25438:25453   */\n      add\n        /* \"#utility.yul\":25431:25466   */\n      mstore\n        /* \"#utility.yul\":25177:25473   */\n      pop\n      jump\t// out\n        /* \"#utility.yul\":25479:25601   */\n    tag_273:\n        /* \"#utility.yul\":25552:25576   */\n      tag_528\n        /* \"#utility.yul\":25570:25575   */\n      dup2\n        /* \"#utility.yul\":25552:25576   */\n      tag_317\n      jump\t// in\n    tag_528:\n        /* \"#utility.yul\":25545:25550   */\n      dup2\n        /* \"#utility.yul\":25542:25577   */\n      eq\n        /* \"#utility.yul\":25532:25595   */\n      tag_529\n      jumpi\n        /* \"#utility.yul\":25591:25592   */\n      0x00\n        /* \"#utility.yul\":25588:25589   */\n      dup1\n        /* \"#utility.yul\":25581:25593   */\n      revert\n        /* \"#utility.yul\":25532:25595   */\n    tag_529:\n        /* \"#utility.yul\":25479:25601   */\n      pop\n      jump\t// out\n        /* \"#utility.yul\":25607:25745   */\n    tag_277:\n        /* \"#utility.yul\":25688:25720   */\n      tag_531\n        /* \"#utility.yul\":25714:25719   */\n      dup2\n        /* \"#utility.yul\":25688:25720   */\n      tag_493\n      jump\t// in\n    tag_531:\n        /* \"#utility.yul\":25681:25686   */\n      dup2\n        /* \"#utility.yul\":25678:25721   */\n      eq\n        /* \"#utility.yul\":25668:25739   */\n      tag_532\n      jumpi\n        /* \"#utility.yul\":25735:25736   */\n      0x00\n        /* \"#utility.yul\":25732:25733   */\n      dup1\n        /* \"#utility.yul\":25725:25737   */\n      revert\n        /* \"#utility.yul\":25668:25739   */\n    tag_532:\n        /* \"#utility.yul\":25607:25745   */\n      pop\n      jump\t// out\n        /* \"#utility.yul\":25751:25873   */\n    tag_281:\n        /* \"#utility.yul\":25824:25848   */\n      tag_534\n        /* \"#utility.yul\":25842:25847   */\n      dup2\n        /* \"#utility.yul\":25824:25848   */\n      tag_411\n      jump\t// in\n    tag_534:\n        /* \"#utility.yul\":25817:25822   */\n      dup2\n        /* \"#utility.yul\":25814:25849   */\n      eq\n        /* \"#utility.yul\":25804:25867   */\n      tag_535\n      jumpi\n        /* \"#utility.yul\":25863:25864   */\n      0x00\n        /* \"#utility.yul\":25860:25861   */\n      dup1\n        /* \"#utility.yul\":25853:25865   */\n      revert\n        /* \"#utility.yul\":25804:25867   */\n    tag_535:\n        /* \"#utility.yul\":25751:25873   */\n      pop\n      jump\t// out\n        /* \"#utility.yul\":25879:25999   */\n    tag_285:\n        /* \"#utility.yul\":25951:25974   */\n      tag_537\n        /* \"#utility.yul\":25968:25973   */\n      dup2\n        /* \"#utility.yul\":25951:25974   */\n      tag_415\n      jump\t// in\n    tag_537:\n        /* \"#utility.yul\":25944:25949   */\n      dup2\n        /* \"#utility.yul\":25941:25975   */\n      eq\n        /* \"#utility.yul\":25931:25993   */\n      tag_538\n      jumpi\n        /* \"#utility.yul\":25989:25990   */\n      0x00\n        /* \"#utility.yul\":25986:25987   */\n      dup1\n        /* \"#utility.yul\":25979:25991   */\n      revert\n        /* \"#utility.yul\":25931:25993   */\n    tag_538:\n        /* \"#utility.yul\":25879:25999   */\n      pop\n      jump\t// out\n\n    auxdata: 0xa26469706673582212207d3f9343c2e76bcf041a4ff6a08fc5a8c74de1f9e54cb1c3e14a8e30e1129c3164736f6c63430008070033\n}\n",
				"bytecode": {
					"linkReferences": {},
					"object": "60806040523480156200001157600080fd5b5060405162002b4e38038062002b4e833981810160405281019062000037919062000181565b336000806101000a81548173ffffffffffffffffffffffffffffffffffffffff021916908373ffffffffffffffffffffffffffffffffffffffff16021790555080600060146101000a81548163ffffffff021916908363ffffffff16021790555080600360003073ffffffffffffffffffffffffffffffffffffffff1673ffffffffffffffffffffffffffffffffffffffff16815260200190815260200160002060000160006101000a81548163ffffffff021916908363ffffffff160217905550426001819055506004309080600181540180825580915050600190039060005260206000200160009091909190916101000a81548173ffffffffffffffffffffffffffffffffffffffff021916908373ffffffffffffffffffffffffffffffffffffffff16021790555050620001e2565b6000815190506200017b81620001c8565b92915050565b6000602082840312156200019a5762000199620001c3565b5b6000620001aa848285016200016a565b91505092915050565b600063ffffffff82169050919050565b600080fd5b620001d381620001b3565b8114620001df57600080fd5b50565b61295c80620001f26000396000f3fe6080604052600436106100f35760003560e01c806392ac771a1161008a578063cce5491711610059578063cce549171461030a578063d0e30db014610335578063de88a3421461033f578063f3fef3a314610356576100f3565b806392ac771a1461026257806392b802421461028d578063945837e2146102b6578063b544e611146102e1576100f3565b80631f1dfdca116100c65780631f1dfdca146101a35780632818d036146101e357806351cff8d91461020e5780635af82abf14610237576100f3565b80630121b93f146100f8578063068bb026146101215780630a09c5541461014a5780631c24c8e814610166575b600080fd5b34801561010457600080fd5b5061011f600480360381019061011a9190611ba3565b61037f565b005b34801561012d57600080fd5b5061014860048036038101906101439190611bd0565b6106db565b005b610164600480360381019061015f9190611b63565b610828565b005b34801561017257600080fd5b5061018d60048036038101906101889190611ba3565b610f12565b60405161019a91906120f5565b60405180910390f35b3480156101af57600080fd5b506101ca60048036038101906101c59190611ac9565b610f35565b6040516101da9493929190612110565b60405180910390f35b3480156101ef57600080fd5b506101f8610f92565b60405161020591906120da565b60405180910390f35b34801561021a57600080fd5b5061023560048036038101906102309190611af6565b610f97565b005b34801561024357600080fd5b5061024c6110bf565b6040516102599190611e9f565b60405180910390f35b34801561026e57600080fd5b506102776110e3565b60405161028491906120da565b60405180910390f35b34801561029957600080fd5b506102b460048036038101906102af9190611bd0565b6110e8565b005b3480156102c257600080fd5b506102cb6112c3565b6040516102d891906120da565b60405180910390f35b3480156102ed57600080fd5b5061030860048036038101906103039190611ba3565b6112c8565b005b34801561031657600080fd5b5061031f6114f1565b60405161032c91906120f5565b60405180910390f35b61033d611507565b005b34801561034b57600080fd5b50610354611509565b005b34801561036257600080fd5b5061037d60048036038101906103789190611b23565b6118c9565b005b6000600360003373ffffffffffffffffffffffffffffffffffffffff1673ffffffffffffffffffffffffffffffffffffffff16815260200190815260200160002060000160009054906101000a900463ffffffff1663ffffffff16141561041b576040517f08c379a000000000000000000000000000000000000000000000000000000000815260040161041290611f1a565b60405180910390fd5b600360003373ffffffffffffffffffffffffffffffffffffffff1673ffffffffffffffffffffffffffffffffffffffff16815260200190815260200160002060020160049054906101000a900460ff16156104ab576040517f08c379a00000000000000000000000000000000000000000000000000000000081526004016104a29061209a565b60405180910390fd5b60006005600083815260200190815260200160002060009054906101000a900463ffffffff1663ffffffff1611610517576040517f08c379a000000000000000000000000000000000000000000000000000000000815260040161050e90611f5a565b60405180910390fd5b42603c60786001546105299190612166565b6105339190612166565b11610573576040517f08c379a000000000000000000000000000000000000000000000000000000000815260040161056a90611efa565b60405180910390fd5b42603c8060786001546105869190612166565b6105909190612166565b61059a9190612166565b11156105db576040517f08c379a00000000000000000000000000000000000000000000000000000000081526004016105d290611fba565b60405180910390fd5b6001600360003373ffffffffffffffffffffffffffffffffffffffff1673ffffffffffffffffffffffffffffffffffffffff16815260200190815260200160002060020160046101000a81548160ff021916908315150217905550600360003373ffffffffffffffffffffffffffffffffffffffff1673ffffffffffffffffffffffffffffffffffffffff16815260200190815260200160002060000160009054906101000a900463ffffffff166005600083815260200190815260200160002060008282829054906101000a900463ffffffff166106ba91906121bc565b92506101000a81548163ffffffff021916908363ffffffff16021790555050565b8063ffffffff16600360003373ffffffffffffffffffffffffffffffffffffffff1673ffffffffffffffffffffffffffffffffffffffff16815260200190815260200160002060000160009054906101000a900463ffffffff1663ffffffff16101561077c576040517f08c379a000000000000000000000000000000000000000000000000000000000815260040161077390611fda565b60405180910390fd5b81600360003373ffffffffffffffffffffffffffffffffffffffff1673ffffffffffffffffffffffffffffffffffffffff1681526020019081526020016000206001018190555080600360003373ffffffffffffffffffffffffffffffffffffffff1673ffffffffffffffffffffffffffffffffffffffff16815260200190815260200160002060020160006101000a81548163ffffffff021916908363ffffffff1602179055505050565b8063ffffffff16600360008473ffffffffffffffffffffffffffffffffffffffff1673ffffffffffffffffffffffffffffffffffffffff16815260200190815260200160002060020160009054906101000a900463ffffffff1663ffffffff1610156108c9576040517f08c379a00000000000000000000000000000000000000000000000000000000081526004016108c090611f3a565b60405180910390fd5b8063ffffffff16600360008473ffffffffffffffffffffffffffffffffffffffff1673ffffffffffffffffffffffffffffffffffffffff1681526020019081526020016000206001015461091d91906121f6565b34101561095f576040517f08c379a000000000000000000000000000000000000000000000000000000000815260040161095690611ffa565b60405180910390fd5b60008163ffffffff16600360008573ffffffffffffffffffffffffffffffffffffffff1673ffffffffffffffffffffffffffffffffffffffff168152602001908152602001600020600101546109b591906121f6565b905081600360008573ffffffffffffffffffffffffffffffffffffffff1673ffffffffffffffffffffffffffffffffffffffff16815260200190815260200160002060020160008282829054906101000a900463ffffffff16610a189190612284565b92506101000a81548163ffffffff021916908363ffffffff16021790555081600360008573ffffffffffffffffffffffffffffffffffffffff1673ffffffffffffffffffffffffffffffffffffffff16815260200190815260200160002060000160008282829054906101000a900463ffffffff16610a979190612284565b92506101000a81548163ffffffff021916908363ffffffff1602179055506000600360008573ffffffffffffffffffffffffffffffffffffffff1673ffffffffffffffffffffffffffffffffffffffff16815260200190815260200160002060000160009054906101000a900463ffffffff1663ffffffff161415610cfc576000805b600480549050811015610bb4578473ffffffffffffffffffffffffffffffffffffffff1660048281548110610b5257610b516123c9565b5b9060005260206000200160009054906101000a900473ffffffffffffffffffffffffffffffffffffffff1673ffffffffffffffffffffffffffffffffffffffff161415610ba157809150610bb4565b8080610bac90612322565b915050610b1a565b5060046001600480549050610bc99190612250565b81548110610bda57610bd96123c9565b5b9060005260206000200160009054906101000a900473ffffffffffffffffffffffffffffffffffffffff1660048281548110610c1957610c186123c9565b5b9060005260206000200160006101000a81548173ffffffffffffffffffffffffffffffffffffffff021916908373ffffffffffffffffffffffffffffffffffffffff16021790555060046001600480549050610c759190612250565b81548110610c8657610c856123c9565b5b9060005260206000200160006101000a81549073ffffffffffffffffffffffffffffffffffffffff02191690556004805480610cc557610cc461239a565b5b6001900381819060005260206000200160006101000a81549073ffffffffffffffffffffffffffffffffffffffff02191690559055505b6000600360003373ffffffffffffffffffffffffffffffffffffffff1673ffffffffffffffffffffffffffffffffffffffff16815260200190815260200160002060000160009054906101000a900463ffffffff1663ffffffff161415610dc1576004339080600181540180825580915050600190039060005260206000200160009091909190916101000a81548173ffffffffffffffffffffffffffffffffffffffff021916908373ffffffffffffffffffffffffffffffffffffffff1602179055505b81600360003373ffffffffffffffffffffffffffffffffffffffff1673ffffffffffffffffffffffffffffffffffffffff16815260200190815260200160002060000160008282829054906101000a900463ffffffff16610e2291906121bc565b92506101000a81548163ffffffff021916908363ffffffff1602179055503073ffffffffffffffffffffffffffffffffffffffff168373ffffffffffffffffffffffffffffffffffffffff1614610ebb578273ffffffffffffffffffffffffffffffffffffffff166108fc829081150290604051600060405180830381858888f19350505050158015610eb9573d6000803e3d6000fd5b505b3373ffffffffffffffffffffffffffffffffffffffff166108fc8234610ee19190612250565b9081150290604051600060405180830381858888f19350505050158015610f0c573d6000803e3d6000fd5b50505050565b60056020528060005260406000206000915054906101000a900463ffffffff1681565b60036020528060005260406000206000915090508060000160009054906101000a900463ffffffff16908060010154908060020160009054906101000a900463ffffffff16908060020160049054906101000a900460ff16905084565b603c81565b60008054906101000a900473ffffffffffffffffffffffffffffffffffffffff1673ffffffffffffffffffffffffffffffffffffffff163373ffffffffffffffffffffffffffffffffffffffff1614611025576040517f08c379a000000000000000000000000000000000000000000000000000000000815260040161101c9061203a565b60405180910390fd5b600260009054906101000a900460ff1615611075576040517f08c379a000000000000000000000000000000000000000000000000000000000815260040161106c90611eba565b60405180910390fd5b8073ffffffffffffffffffffffffffffffffffffffff166108fc479081150290604051600060405180830381858888f193505050501580156110bb573d6000803e3d6000fd5b5050565b60008054906101000a900473ffffffffffffffffffffffffffffffffffffffff1681565b607881565b60008054906101000a900473ffffffffffffffffffffffffffffffffffffffff1673ffffffffffffffffffffffffffffffffffffffff163373ffffffffffffffffffffffffffffffffffffffff1614611176576040517f08c379a000000000000000000000000000000000000000000000000000000000815260040161116d9061203a565b60405180910390fd5b8063ffffffff16600360003073ffffffffffffffffffffffffffffffffffffffff1673ffffffffffffffffffffffffffffffffffffffff16815260200190815260200160002060000160009054906101000a900463ffffffff1663ffffffff161015611217576040517f08c379a000000000000000000000000000000000000000000000000000000000815260040161120e906120ba565b60405180910390fd5b81600360003073ffffffffffffffffffffffffffffffffffffffff1673ffffffffffffffffffffffffffffffffffffffff1681526020019081526020016000206001018190555080600360003073ffffffffffffffffffffffffffffffffffffffff1673ffffffffffffffffffffffffffffffffffffffff16815260200190815260200160002060020160006101000a81548163ffffffff021916908363ffffffff1602179055505050565b603c81565b6000600360003373ffffffffffffffffffffffffffffffffffffffff1673ffffffffffffffffffffffffffffffffffffffff16815260200190815260200160002060000160009054906101000a900463ffffffff1663ffffffff161415611364576040517f08c379a000000000000000000000000000000000000000000000000000000000815260040161135b90611f1a565b60405180910390fd5b4260786001546113749190612166565b116113b4576040517f08c379a00000000000000000000000000000000000000000000000000000000081526004016113ab9061201a565b60405180910390fd5b47600060149054906101000a900463ffffffff1663ffffffff16826113d991906121f6565b111561141a576040517f08c379a00000000000000000000000000000000000000000000000000000000081526004016114119061207a565b60405180910390fd5b42603c607860015461142c9190612166565b6114369190612166565b1115611477576040517f08c379a000000000000000000000000000000000000000000000000000000000815260040161146e90611eda565b60405180910390fd5b6001600260006101000a81548160ff02191690831515021790555060016005600083815260200190815260200160002060006101000a81548163ffffffff021916908363ffffffff160217905550600681908060018154018082558091505060019003906000526020600020016000909190919091505550565b600060149054906101000a900463ffffffff1681565b565b6000600360003373ffffffffffffffffffffffffffffffffffffffff1673ffffffffffffffffffffffffffffffffffffffff16815260200190815260200160002060000160009054906101000a900463ffffffff1663ffffffff1614156115a5576040517f08c379a000000000000000000000000000000000000000000000000000000000815260040161159c90611f1a565b60405180910390fd5b42603c8060786001546115b89190612166565b6115c29190612166565b6115cc9190612166565b1161160c576040517f08c379a000000000000000000000000000000000000000000000000000000000815260040161160390611f9a565b60405180910390fd5b600260009054906101000a900460ff1661165b576040517f08c379a000000000000000000000000000000000000000000000000000000000815260040161165290611f7a565b60405180910390fd5b60008060005b600680549050811015611780578263ffffffff16600560006006848154811061168d5761168c6123c9565b5b9060005260206000200154815260200190815260200160002060009054906101000a900463ffffffff1663ffffffff1611156117295760056000600683815481106116db576116da6123c9565b5b9060005260206000200154815260200190815260200160002060009054906101000a900463ffffffff1692506006818154811061171b5761171a6123c9565b5b906000526020600020015491505b6005600060068381548110611741576117406123c9565b5b9060005260206000200154815260200190815260200160002060006101000a81549063ffffffff0219169055808061177890612322565b915050611661565b506006600061178f9190611a37565b60005b6004805490508110156118a9573073ffffffffffffffffffffffffffffffffffffffff16600482815481106117ca576117c96123c9565b5b9060005260206000200160009054906101000a900473ffffffffffffffffffffffffffffffffffffffff1673ffffffffffffffffffffffffffffffffffffffff16146118965760048181548110611824576118236123c9565b5b9060005260206000200160009054906101000a900473ffffffffffffffffffffffffffffffffffffffff1673ffffffffffffffffffffffffffffffffffffffff166108fc839081150290604051600060405180830381858888f19350505050158015611894573d6000803e3d6000fd5b505b80806118a190612322565b915050611792565b506000600260006101000a81548160ff0219169083151502179055505050565b60008054906101000a900473ffffffffffffffffffffffffffffffffffffffff1673ffffffffffffffffffffffffffffffffffffffff163373ffffffffffffffffffffffffffffffffffffffff1614611957576040517f08c379a000000000000000000000000000000000000000000000000000000000815260040161194e9061203a565b60405180910390fd5b808047101561199b576040517f08c379a00000000000000000000000000000000000000000000000000000000081526004016119929061205a565b60405180910390fd5b600260009054906101000a900460ff16156119eb576040517f08c379a00000000000000000000000000000000000000000000000000000000081526004016119e290611eba565b60405180910390fd5b8273ffffffffffffffffffffffffffffffffffffffff166108fc839081150290604051600060405180830381858888f19350505050158015611a31573d6000803e3d6000fd5b50505050565b5080546000825590600052602060002090810190611a559190611a58565b50565b5b80821115611a71576000816000905550600101611a59565b5090565b600081359050611a84816128ca565b92915050565b600081359050611a99816128e1565b92915050565b600081359050611aae816128f8565b92915050565b600081359050611ac38161290f565b92915050565b600060208284031215611adf57611ade6123f8565b5b6000611aed84828501611a75565b91505092915050565b600060208284031215611b0c57611b0b6123f8565b5b6000611b1a84828501611a8a565b91505092915050565b60008060408385031215611b3a57611b396123f8565b5b6000611b4885828601611a8a565b9250506020611b5985828601611a9f565b9150509250929050565b60008060408385031215611b7a57611b796123f8565b5b6000611b8885828601611a8a565b9250506020611b9985828601611ab4565b9150509250929050565b600060208284031215611bb957611bb86123f8565b5b6000611bc784828501611a9f565b91505092915050565b60008060408385031215611be757611be66123f8565b5b6000611bf585828601611a9f565b9250506020611c0685828601611ab4565b9150509250929050565b611c19816122b8565b82525050565b611c28816122dc565b82525050565b6000611c3b605c83612155565b9150611c46826123fd565b606082019050919050565b6000611c5e602883612155565b9150611c6982612472565b604082019050919050565b6000611c81601783612155565b9150611c8c826124c1565b602082019050919050565b6000611ca4601983612155565b9150611caf826124ea565b602082019050919050565b6000611cc7603b83612155565b9150611cd282612513565b604082019050919050565b6000611cea602983612155565b9150611cf582612562565b604082019050919050565b6000611d0d603283612155565b9150611d18826125b1565b604082019050919050565b6000611d30602183612155565b9150611d3b82612600565b604082019050919050565b6000611d53602683612155565b9150611d5e8261264f565b604082019050919050565b6000611d76604183612155565b9150611d818261269e565b606082019050919050565b6000611d99602a83612155565b9150611da482612713565b604082019050919050565b6000611dbc601883612155565b9150611dc782612762565b602082019050919050565b6000611ddf601683612155565b9150611dea8261278b565b602082019050919050565b6000611e02601d83612155565b9150611e0d826127b4565b602082019050919050565b6000611e25603d83612155565b9150611e30826127dd565b604082019050919050565b6000611e48601683612155565b9150611e538261282c565b602082019050919050565b6000611e6b604883612155565b9150611e7682612855565b606082019050919050565b611e8a81612308565b82525050565b611e9981612312565b82525050565b6000602082019050611eb46000830184611c10565b92915050565b60006020820190508181036000830152611ed381611c2e565b9050919050565b60006020820190508181036000830152611ef381611c51565b9050919050565b60006020820190508181036000830152611f1381611c74565b9050919050565b60006020820190508181036000830152611f3381611c97565b9050919050565b60006020820190508181036000830152611f5381611cba565b9050919050565b60006020820190508181036000830152611f7381611cdd565b9050919050565b60006020820190508181036000830152611f9381611d00565b9050919050565b60006020820190508181036000830152611fb381611d23565b9050919050565b60006020820190508181036000830152611fd381611d46565b9050919050565b60006020820190508181036000830152611ff381611d69565b9050919050565b6000602082019050818103600083015261201381611d8c565b9050919050565b6000602082019050818103600083015261203381611daf565b9050919050565b6000602082019050818103600083015261205381611dd2565b9050919050565b6000602082019050818103600083015261207381611df5565b9050919050565b6000602082019050818103600083015261209381611e18565b9050919050565b600060208201905081810360008301526120b381611e3b565b9050919050565b600060208201905081810360008301526120d381611e5e565b9050919050565b60006020820190506120ef6000830184611e81565b92915050565b600060208201905061210a6000830184611e90565b92915050565b60006080820190506121256000830187611e90565b6121326020830186611e81565b61213f6040830185611e90565b61214c6060830184611c1f565b95945050505050565b600082825260208201905092915050565b600061217182612308565b915061217c83612308565b9250827fffffffffffffffffffffffffffffffffffffffffffffffffffffffffffffffff038211156121b1576121b061236b565b5b828201905092915050565b60006121c782612312565b91506121d283612312565b92508263ffffffff038211156121eb576121ea61236b565b5b828201905092915050565b600061220182612308565b915061220c83612308565b9250817fffffffffffffffffffffffffffffffffffffffffffffffffffffffffffffffff04831182151516156122455761224461236b565b5b828202905092915050565b600061225b82612308565b915061226683612308565b9250828210156122795761227861236b565b5b828203905092915050565b600061228f82612312565b915061229a83612312565b9250828210156122ad576122ac61236b565b5b828203905092915050565b60006122c3826122e8565b9050919050565b60006122d5826122e8565b9050919050565b60008115159050919050565b600073ffffffffffffffffffffffffffffffffffffffff82169050919050565b6000819050919050565b600063ffffffff82169050919050565b600061232d82612308565b91507fffffffffffffffffffffffffffffffffffffffffffffffffffffffffffffffff8214156123605761235f61236b565b5b600182019050919050565b7f4e487b7100000000000000000000000000000000000000000000000000000000600052601160045260246000fd5b7f4e487b7100000000000000000000000000000000000000000000000000000000600052603160045260246000fd5b7f4e487b7100000000000000000000000000000000000000000000000000000000600052603260045260246000fd5b600080fd5b7f596f752063616e27742077697468647261772066756e647320647572696e672060008201527f746865206d656574696e672c20626563617573652069742063616e206d616b6560208201527f206469766964656e647320696d706f737369626c6520746f2070617900000000604082015250565b7f50726f706f73616c2074696d6520666f722074686973206d656574696e67206860008201527f617320656e646564000000000000000000000000000000000000000000000000602082015250565b7f566f74696e672074696d65206861736e277420636f6d65000000000000000000600082015250565b7f43616c6c6572206973206e6f742073746f636b686f6c64657200000000000000600082015250565b7f417474656d7074656420746f20627579206d6f72652073746f636b732074686160008201527f6e2073656c6c65722069732077696c6c696e6720746f2073656c6c0000000000602082015250565b7f54686973206469766964656e6420616d6f756e74206861736e2774206265656e60008201527f2070726f706f7365640000000000000000000000000000000000000000000000602082015250565b7f4469766964656e64732063616e206f6e6c79206265207061696420617420746860008201527f6520656e64206f662061206d656574696e670000000000000000000000000000602082015250565b7f4469766964656e647320706179696e672074696d65206861736e277420636f6d60008201527f6500000000000000000000000000000000000000000000000000000000000000602082015250565b7f566f74696e672074696d6520666f722074686973206d656574696e672068617360008201527f20656e6465640000000000000000000000000000000000000000000000000000602082015250565b7f596f752061726520747279696e6720746f206372656174652073656c6c206f7260008201527f64657220666f72206d6f72652073746f636b73207468616e20796f752068617660208201527f6500000000000000000000000000000000000000000000000000000000000000604082015250565b7f596f75206469646e27742073656e6420656e6f756768206d6f6e657920746f2060008201527f6275792073746f636b7300000000000000000000000000000000000000000000602082015250565b7f4d656574696e672074696d65206861736e277420636f6d650000000000000000600082015250565b7f43616c6c6572206973206e6f74206469726563746f7200000000000000000000600082015250565b7f416d6f756e74206973206c6172676572207468616e2062616c616e6365000000600082015250565b7f436f6d70616e7920646f65736e2774206861766520656e6f756768206d6f6e6560008201527f7920746f207061792074686174206c61726765206469766964656e6473000000602082015250565b7f596f75206861766520616c726561647920766f74656400000000000000000000600082015250565b7f596f752061726520747279696e6720746f206372656174652073656c6c206f7260008201527f64657220666f72206d6f72652073746f636b73207468616e2074686520636f6d60208201527f70616e7920686173000000000000000000000000000000000000000000000000604082015250565b6128d3816122b8565b81146128de57600080fd5b50565b6128ea816122ca565b81146128f557600080fd5b50565b61290181612308565b811461290c57600080fd5b50565b61291881612312565b811461292357600080fd5b5056fea26469706673582212207d3f9343c2e76bcf041a4ff6a08fc5a8c74de1f9e54cb1c3e14a8e30e1129c3164736f6c63430008070033",
					"opcodes": "PUSH1 0x80 PUSH1 0x40 MSTORE CALLVALUE DUP1 ISZERO PUSH3 0x11 JUMPI PUSH1 0x0 DUP1 REVERT JUMPDEST POP PUSH1 0x40 MLOAD PUSH3 0x2B4E CODESIZE SUB DUP1 PUSH3 0x2B4E DUP4 CODECOPY DUP2 DUP2 ADD PUSH1 0x40 MSTORE DUP2 ADD SWAP1 PUSH3 0x37 SWAP2 SWAP1 PUSH3 0x181 JUMP JUMPDEST CALLER PUSH1 0x0 DUP1 PUSH2 0x100 EXP DUP2 SLOAD DUP2 PUSH20 0xFFFFFFFFFFFFFFFFFFFFFFFFFFFFFFFFFFFFFFFF MUL NOT AND SWAP1 DUP4 PUSH20 0xFFFFFFFFFFFFFFFFFFFFFFFFFFFFFFFFFFFFFFFF AND MUL OR SWAP1 SSTORE POP DUP1 PUSH1 0x0 PUSH1 0x14 PUSH2 0x100 EXP DUP2 SLOAD DUP2 PUSH4 0xFFFFFFFF MUL NOT AND SWAP1 DUP4 PUSH4 0xFFFFFFFF AND MUL OR SWAP1 SSTORE POP DUP1 PUSH1 0x3 PUSH1 0x0 ADDRESS PUSH20 0xFFFFFFFFFFFFFFFFFFFFFFFFFFFFFFFFFFFFFFFF AND PUSH20 0xFFFFFFFFFFFFFFFFFFFFFFFFFFFFFFFFFFFFFFFF AND DUP2 MSTORE PUSH1 0x20 ADD SWAP1 DUP2 MSTORE PUSH1 0x20 ADD PUSH1 0x0 KECCAK256 PUSH1 0x0 ADD PUSH1 0x0 PUSH2 0x100 EXP DUP2 SLOAD DUP2 PUSH4 0xFFFFFFFF MUL NOT AND SWAP1 DUP4 PUSH4 0xFFFFFFFF AND MUL OR SWAP1 SSTORE POP TIMESTAMP PUSH1 0x1 DUP2 SWAP1 SSTORE POP PUSH1 0x4 ADDRESS SWAP1 DUP1 PUSH1 0x1 DUP2 SLOAD ADD DUP1 DUP3 SSTORE DUP1 SWAP2 POP POP PUSH1 0x1 SWAP1 SUB SWAP1 PUSH1 0x0 MSTORE PUSH1 0x20 PUSH1 0x0 KECCAK256 ADD PUSH1 0x0 SWAP1 SWAP2 SWAP1 SWAP2 SWAP1 SWAP2 PUSH2 0x100 EXP DUP2 SLOAD DUP2 PUSH20 0xFFFFFFFFFFFFFFFFFFFFFFFFFFFFFFFFFFFFFFFF MUL NOT AND SWAP1 DUP4 PUSH20 0xFFFFFFFFFFFFFFFFFFFFFFFFFFFFFFFFFFFFFFFF AND MUL OR SWAP1 SSTORE POP POP PUSH3 0x1E2 JUMP JUMPDEST PUSH1 0x0 DUP2 MLOAD SWAP1 POP PUSH3 0x17B DUP2 PUSH3 0x1C8 JUMP JUMPDEST SWAP3 SWAP2 POP POP JUMP JUMPDEST PUSH1 0x0 PUSH1 0x20 DUP3 DUP5 SUB SLT ISZERO PUSH3 0x19A JUMPI PUSH3 0x199 PUSH3 0x1C3 JUMP JUMPDEST JUMPDEST PUSH1 0x0 PUSH3 0x1AA DUP5 DUP3 DUP6 ADD PUSH3 0x16A JUMP JUMPDEST SWAP2 POP POP SWAP3 SWAP2 POP POP JUMP JUMPDEST PUSH1 0x0 PUSH4 0xFFFFFFFF DUP3 AND SWAP1 POP SWAP2 SWAP1 POP JUMP JUMPDEST PUSH1 0x0 DUP1 REVERT JUMPDEST PUSH3 0x1D3 DUP2 PUSH3 0x1B3 JUMP JUMPDEST DUP2 EQ PUSH3 0x1DF JUMPI PUSH1 0x0 DUP1 REVERT JUMPDEST POP JUMP JUMPDEST PUSH2 0x295C DUP1 PUSH3 0x1F2 PUSH1 0x0 CODECOPY PUSH1 0x0 RETURN INVALID PUSH1 0x80 PUSH1 0x40 MSTORE PUSH1 0x4 CALLDATASIZE LT PUSH2 0xF3 JUMPI PUSH1 0x0 CALLDATALOAD PUSH1 0xE0 SHR DUP1 PUSH4 0x92AC771A GT PUSH2 0x8A JUMPI DUP1 PUSH4 0xCCE54917 GT PUSH2 0x59 JUMPI DUP1 PUSH4 0xCCE54917 EQ PUSH2 0x30A JUMPI DUP1 PUSH4 0xD0E30DB0 EQ PUSH2 0x335 JUMPI DUP1 PUSH4 0xDE88A342 EQ PUSH2 0x33F JUMPI DUP1 PUSH4 0xF3FEF3A3 EQ PUSH2 0x356 JUMPI PUSH2 0xF3 JUMP JUMPDEST DUP1 PUSH4 0x92AC771A EQ PUSH2 0x262 JUMPI DUP1 PUSH4 0x92B80242 EQ PUSH2 0x28D JUMPI DUP1 PUSH4 0x945837E2 EQ PUSH2 0x2B6 JUMPI DUP1 PUSH4 0xB544E611 EQ PUSH2 0x2E1 JUMPI PUSH2 0xF3 JUMP JUMPDEST DUP1 PUSH4 0x1F1DFDCA GT PUSH2 0xC6 JUMPI DUP1 PUSH4 0x1F1DFDCA EQ PUSH2 0x1A3 JUMPI DUP1 PUSH4 0x2818D036 EQ PUSH2 0x1E3 JUMPI DUP1 PUSH4 0x51CFF8D9 EQ PUSH2 0x20E JUMPI DUP1 PUSH4 0x5AF82ABF EQ PUSH2 0x237 JUMPI PUSH2 0xF3 JUMP JUMPDEST DUP1 PUSH4 0x121B93F EQ PUSH2 0xF8 JUMPI DUP1 PUSH4 0x68BB026 EQ PUSH2 0x121 JUMPI DUP1 PUSH4 0xA09C554 EQ PUSH2 0x14A JUMPI DUP1 PUSH4 0x1C24C8E8 EQ PUSH2 0x166 JUMPI JUMPDEST PUSH1 0x0 DUP1 REVERT JUMPDEST CALLVALUE DUP1 ISZERO PUSH2 0x104 JUMPI PUSH1 0x0 DUP1 REVERT JUMPDEST POP PUSH2 0x11F PUSH1 0x4 DUP1 CALLDATASIZE SUB DUP2 ADD SWAP1 PUSH2 0x11A SWAP2 SWAP1 PUSH2 0x1BA3 JUMP JUMPDEST PUSH2 0x37F JUMP JUMPDEST STOP JUMPDEST CALLVALUE DUP1 ISZERO PUSH2 0x12D JUMPI PUSH1 0x0 DUP1 REVERT JUMPDEST POP PUSH2 0x148 PUSH1 0x4 DUP1 CALLDATASIZE SUB DUP2 ADD SWAP1 PUSH2 0x143 SWAP2 SWAP1 PUSH2 0x1BD0 JUMP JUMPDEST PUSH2 0x6DB JUMP JUMPDEST STOP JUMPDEST PUSH2 0x164 PUSH1 0x4 DUP1 CALLDATASIZE SUB DUP2 ADD SWAP1 PUSH2 0x15F SWAP2 SWAP1 PUSH2 0x1B63 JUMP JUMPDEST PUSH2 0x828 JUMP JUMPDEST STOP JUMPDEST CALLVALUE DUP1 ISZERO PUSH2 0x172 JUMPI PUSH1 0x0 DUP1 REVERT JUMPDEST POP PUSH2 0x18D PUSH1 0x4 DUP1 CALLDATASIZE SUB DUP2 ADD SWAP1 PUSH2 0x188 SWAP2 SWAP1 PUSH2 0x1BA3 JUMP JUMPDEST PUSH2 0xF12 JUMP JUMPDEST PUSH1 0x40 MLOAD PUSH2 0x19A SWAP2 SWAP1 PUSH2 0x20F5 JUMP JUMPDEST PUSH1 0x40 MLOAD DUP1 SWAP2 SUB SWAP1 RETURN JUMPDEST CALLVALUE DUP1 ISZERO PUSH2 0x1AF JUMPI PUSH1 0x0 DUP1 REVERT JUMPDEST POP PUSH2 0x1CA PUSH1 0x4 DUP1 CALLDATASIZE SUB DUP2 ADD SWAP1 PUSH2 0x1C5 SWAP2 SWAP1 PUSH2 0x1AC9 JUMP JUMPDEST PUSH2 0xF35 JUMP JUMPDEST PUSH1 0x40 MLOAD PUSH2 0x1DA SWAP5 SWAP4 SWAP3 SWAP2 SWAP1 PUSH2 0x2110 JUMP JUMPDEST PUSH1 0x40 MLOAD DUP1 SWAP2 SUB SWAP1 RETURN JUMPDEST CALLVALUE DUP1 ISZERO PUSH2 0x1EF JUMPI PUSH1 0x0 DUP1 REVERT JUMPDEST POP PUSH2 0x1F8 PUSH2 0xF92 JUMP JUMPDEST PUSH1 0x40 MLOAD PUSH2 0x205 SWAP2 SWAP1 PUSH2 0x20DA JUMP JUMPDEST PUSH1 0x40 MLOAD DUP1 SWAP2 SUB SWAP1 RETURN JUMPDEST CALLVALUE DUP1 ISZERO PUSH2 0x21A JUMPI PUSH1 0x0 DUP1 REVERT JUMPDEST POP PUSH2 0x235 PUSH1 0x4 DUP1 CALLDATASIZE SUB DUP2 ADD SWAP1 PUSH2 0x230 SWAP2 SWAP1 PUSH2 0x1AF6 JUMP JUMPDEST PUSH2 0xF97 JUMP JUMPDEST STOP JUMPDEST CALLVALUE DUP1 ISZERO PUSH2 0x243 JUMPI PUSH1 0x0 DUP1 REVERT JUMPDEST POP PUSH2 0x24C PUSH2 0x10BF JUMP JUMPDEST PUSH1 0x40 MLOAD PUSH2 0x259 SWAP2 SWAP1 PUSH2 0x1E9F JUMP JUMPDEST PUSH1 0x40 MLOAD DUP1 SWAP2 SUB SWAP1 RETURN JUMPDEST CALLVALUE DUP1 ISZERO PUSH2 0x26E JUMPI PUSH1 0x0 DUP1 REVERT JUMPDEST POP PUSH2 0x277 PUSH2 0x10E3 JUMP JUMPDEST PUSH1 0x40 MLOAD PUSH2 0x284 SWAP2 SWAP1 PUSH2 0x20DA JUMP JUMPDEST PUSH1 0x40 MLOAD DUP1 SWAP2 SUB SWAP1 RETURN JUMPDEST CALLVALUE DUP1 ISZERO PUSH2 0x299 JUMPI PUSH1 0x0 DUP1 REVERT JUMPDEST POP PUSH2 0x2B4 PUSH1 0x4 DUP1 CALLDATASIZE SUB DUP2 ADD SWAP1 PUSH2 0x2AF SWAP2 SWAP1 PUSH2 0x1BD0 JUMP JUMPDEST PUSH2 0x10E8 JUMP JUMPDEST STOP JUMPDEST CALLVALUE DUP1 ISZERO PUSH2 0x2C2 JUMPI PUSH1 0x0 DUP1 REVERT JUMPDEST POP PUSH2 0x2CB PUSH2 0x12C3 JUMP JUMPDEST PUSH1 0x40 MLOAD PUSH2 0x2D8 SWAP2 SWAP1 PUSH2 0x20DA JUMP JUMPDEST PUSH1 0x40 MLOAD DUP1 SWAP2 SUB SWAP1 RETURN JUMPDEST CALLVALUE DUP1 ISZERO PUSH2 0x2ED JUMPI PUSH1 0x0 DUP1 REVERT JUMPDEST POP PUSH2 0x308 PUSH1 0x4 DUP1 CALLDATASIZE SUB DUP2 ADD SWAP1 PUSH2 0x303 SWAP2 SWAP1 PUSH2 0x1BA3 JUMP JUMPDEST PUSH2 0x12C8 JUMP JUMPDEST STOP JUMPDEST CALLVALUE DUP1 ISZERO PUSH2 0x316 JUMPI PUSH1 0x0 DUP1 REVERT JUMPDEST POP PUSH2 0x31F PUSH2 0x14F1 JUMP JUMPDEST PUSH1 0x40 MLOAD PUSH2 0x32C SWAP2 SWAP1 PUSH2 0x20F5 JUMP JUMPDEST PUSH1 0x40 MLOAD DUP1 SWAP2 SUB SWAP1 RETURN JUMPDEST PUSH2 0x33D PUSH2 0x1507 JUMP JUMPDEST STOP JUMPDEST CALLVALUE DUP1 ISZERO PUSH2 0x34B JUMPI PUSH1 0x0 DUP1 REVERT JUMPDEST POP PUSH2 0x354 PUSH2 0x1509 JUMP JUMPDEST STOP JUMPDEST CALLVALUE DUP1 ISZERO PUSH2 0x362 JUMPI PUSH1 0x0 DUP1 REVERT JUMPDEST POP PUSH2 0x37D PUSH1 0x4 DUP1 CALLDATASIZE SUB DUP2 ADD SWAP1 PUSH2 0x378 SWAP2 SWAP1 PUSH2 0x1B23 JUMP JUMPDEST PUSH2 0x18C9 JUMP JUMPDEST STOP JUMPDEST PUSH1 0x0 PUSH1 0x3 PUSH1 0x0 CALLER PUSH20 0xFFFFFFFFFFFFFFFFFFFFFFFFFFFFFFFFFFFFFFFF AND PUSH20 0xFFFFFFFFFFFFFFFFFFFFFFFFFFFFFFFFFFFFFFFF AND DUP2 MSTORE PUSH1 0x20 ADD SWAP1 DUP2 MSTORE PUSH1 0x20 ADD PUSH1 0x0 KECCAK256 PUSH1 0x0 ADD PUSH1 0x0 SWAP1 SLOAD SWAP1 PUSH2 0x100 EXP SWAP1 DIV PUSH4 0xFFFFFFFF AND PUSH4 0xFFFFFFFF AND EQ ISZERO PUSH2 0x41B JUMPI PUSH1 0x40 MLOAD PUSH32 0x8C379A000000000000000000000000000000000000000000000000000000000 DUP2 MSTORE PUSH1 0x4 ADD PUSH2 0x412 SWAP1 PUSH2 0x1F1A JUMP JUMPDEST PUSH1 0x40 MLOAD DUP1 SWAP2 SUB SWAP1 REVERT JUMPDEST PUSH1 0x3 PUSH1 0x0 CALLER PUSH20 0xFFFFFFFFFFFFFFFFFFFFFFFFFFFFFFFFFFFFFFFF AND PUSH20 0xFFFFFFFFFFFFFFFFFFFFFFFFFFFFFFFFFFFFFFFF AND DUP2 MSTORE PUSH1 0x20 ADD SWAP1 DUP2 MSTORE PUSH1 0x20 ADD PUSH1 0x0 KECCAK256 PUSH1 0x2 ADD PUSH1 0x4 SWAP1 SLOAD SWAP1 PUSH2 0x100 EXP SWAP1 DIV PUSH1 0xFF AND ISZERO PUSH2 0x4AB JUMPI PUSH1 0x40 MLOAD PUSH32 0x8C379A000000000000000000000000000000000000000000000000000000000 DUP2 MSTORE PUSH1 0x4 ADD PUSH2 0x4A2 SWAP1 PUSH2 0x209A JUMP JUMPDEST PUSH1 0x40 MLOAD DUP1 SWAP2 SUB SWAP1 REVERT JUMPDEST PUSH1 0x0 PUSH1 0x5 PUSH1 0x0 DUP4 DUP2 MSTORE PUSH1 0x20 ADD SWAP1 DUP2 MSTORE PUSH1 0x20 ADD PUSH1 0x0 KECCAK256 PUSH1 0x0 SWAP1 SLOAD SWAP1 PUSH2 0x100 EXP SWAP1 DIV PUSH4 0xFFFFFFFF AND PUSH4 0xFFFFFFFF AND GT PUSH2 0x517 JUMPI PUSH1 0x40 MLOAD PUSH32 0x8C379A000000000000000000000000000000000000000000000000000000000 DUP2 MSTORE PUSH1 0x4 ADD PUSH2 0x50E SWAP1 PUSH2 0x1F5A JUMP JUMPDEST PUSH1 0x40 MLOAD DUP1 SWAP2 SUB SWAP1 REVERT JUMPDEST TIMESTAMP PUSH1 0x3C PUSH1 0x78 PUSH1 0x1 SLOAD PUSH2 0x529 SWAP2 SWAP1 PUSH2 0x2166 JUMP JUMPDEST PUSH2 0x533 SWAP2 SWAP1 PUSH2 0x2166 JUMP JUMPDEST GT PUSH2 0x573 JUMPI PUSH1 0x40 MLOAD PUSH32 0x8C379A000000000000000000000000000000000000000000000000000000000 DUP2 MSTORE PUSH1 0x4 ADD PUSH2 0x56A SWAP1 PUSH2 0x1EFA JUMP JUMPDEST PUSH1 0x40 MLOAD DUP1 SWAP2 SUB SWAP1 REVERT JUMPDEST TIMESTAMP PUSH1 0x3C DUP1 PUSH1 0x78 PUSH1 0x1 SLOAD PUSH2 0x586 SWAP2 SWAP1 PUSH2 0x2166 JUMP JUMPDEST PUSH2 0x590 SWAP2 SWAP1 PUSH2 0x2166 JUMP JUMPDEST PUSH2 0x59A SWAP2 SWAP1 PUSH2 0x2166 JUMP JUMPDEST GT ISZERO PUSH2 0x5DB JUMPI PUSH1 0x40 MLOAD PUSH32 0x8C379A000000000000000000000000000000000000000000000000000000000 DUP2 MSTORE PUSH1 0x4 ADD PUSH2 0x5D2 SWAP1 PUSH2 0x1FBA JUMP JUMPDEST PUSH1 0x40 MLOAD DUP1 SWAP2 SUB SWAP1 REVERT JUMPDEST PUSH1 0x1 PUSH1 0x3 PUSH1 0x0 CALLER PUSH20 0xFFFFFFFFFFFFFFFFFFFFFFFFFFFFFFFFFFFFFFFF AND PUSH20 0xFFFFFFFFFFFFFFFFFFFFFFFFFFFFFFFFFFFFFFFF AND DUP2 MSTORE PUSH1 0x20 ADD SWAP1 DUP2 MSTORE PUSH1 0x20 ADD PUSH1 0x0 KECCAK256 PUSH1 0x2 ADD PUSH1 0x4 PUSH2 0x100 EXP DUP2 SLOAD DUP2 PUSH1 0xFF MUL NOT AND SWAP1 DUP4 ISZERO ISZERO MUL OR SWAP1 SSTORE POP PUSH1 0x3 PUSH1 0x0 CALLER PUSH20 0xFFFFFFFFFFFFFFFFFFFFFFFFFFFFFFFFFFFFFFFF AND PUSH20 0xFFFFFFFFFFFFFFFFFFFFFFFFFFFFFFFFFFFFFFFF AND DUP2 MSTORE PUSH1 0x20 ADD SWAP1 DUP2 MSTORE PUSH1 0x20 ADD PUSH1 0x0 KECCAK256 PUSH1 0x0 ADD PUSH1 0x0 SWAP1 SLOAD SWAP1 PUSH2 0x100 EXP SWAP1 DIV PUSH4 0xFFFFFFFF AND PUSH1 0x5 PUSH1 0x0 DUP4 DUP2 MSTORE PUSH1 0x20 ADD SWAP1 DUP2 MSTORE PUSH1 0x20 ADD PUSH1 0x0 KECCAK256 PUSH1 0x0 DUP3 DUP3 DUP3 SWAP1 SLOAD SWAP1 PUSH2 0x100 EXP SWAP1 DIV PUSH4 0xFFFFFFFF AND PUSH2 0x6BA SWAP2 SWAP1 PUSH2 0x21BC JUMP JUMPDEST SWAP3 POP PUSH2 0x100 EXP DUP2 SLOAD DUP2 PUSH4 0xFFFFFFFF MUL NOT AND SWAP1 DUP4 PUSH4 0xFFFFFFFF AND MUL OR SWAP1 SSTORE POP POP JUMP JUMPDEST DUP1 PUSH4 0xFFFFFFFF AND PUSH1 0x3 PUSH1 0x0 CALLER PUSH20 0xFFFFFFFFFFFFFFFFFFFFFFFFFFFFFFFFFFFFFFFF AND PUSH20 0xFFFFFFFFFFFFFFFFFFFFFFFFFFFFFFFFFFFFFFFF AND DUP2 MSTORE PUSH1 0x20 ADD SWAP1 DUP2 MSTORE PUSH1 0x20 ADD PUSH1 0x0 KECCAK256 PUSH1 0x0 ADD PUSH1 0x0 SWAP1 SLOAD SWAP1 PUSH2 0x100 EXP SWAP1 DIV PUSH4 0xFFFFFFFF AND PUSH4 0xFFFFFFFF AND LT ISZERO PUSH2 0x77C JUMPI PUSH1 0x40 MLOAD PUSH32 0x8C379A000000000000000000000000000000000000000000000000000000000 DUP2 MSTORE PUSH1 0x4 ADD PUSH2 0x773 SWAP1 PUSH2 0x1FDA JUMP JUMPDEST PUSH1 0x40 MLOAD DUP1 SWAP2 SUB SWAP1 REVERT JUMPDEST DUP2 PUSH1 0x3 PUSH1 0x0 CALLER PUSH20 0xFFFFFFFFFFFFFFFFFFFFFFFFFFFFFFFFFFFFFFFF AND PUSH20 0xFFFFFFFFFFFFFFFFFFFFFFFFFFFFFFFFFFFFFFFF AND DUP2 MSTORE PUSH1 0x20 ADD SWAP1 DUP2 MSTORE PUSH1 0x20 ADD PUSH1 0x0 KECCAK256 PUSH1 0x1 ADD DUP2 SWAP1 SSTORE POP DUP1 PUSH1 0x3 PUSH1 0x0 CALLER PUSH20 0xFFFFFFFFFFFFFFFFFFFFFFFFFFFFFFFFFFFFFFFF AND PUSH20 0xFFFFFFFFFFFFFFFFFFFFFFFFFFFFFFFFFFFFFFFF AND DUP2 MSTORE PUSH1 0x20 ADD SWAP1 DUP2 MSTORE PUSH1 0x20 ADD PUSH1 0x0 KECCAK256 PUSH1 0x2 ADD PUSH1 0x0 PUSH2 0x100 EXP DUP2 SLOAD DUP2 PUSH4 0xFFFFFFFF MUL NOT AND SWAP1 DUP4 PUSH4 0xFFFFFFFF AND MUL OR SWAP1 SSTORE POP POP POP JUMP JUMPDEST DUP1 PUSH4 0xFFFFFFFF AND PUSH1 0x3 PUSH1 0x0 DUP5 PUSH20 0xFFFFFFFFFFFFFFFFFFFFFFFFFFFFFFFFFFFFFFFF AND PUSH20 0xFFFFFFFFFFFFFFFFFFFFFFFFFFFFFFFFFFFFFFFF AND DUP2 MSTORE PUSH1 0x20 ADD SWAP1 DUP2 MSTORE PUSH1 0x20 ADD PUSH1 0x0 KECCAK256 PUSH1 0x2 ADD PUSH1 0x0 SWAP1 SLOAD SWAP1 PUSH2 0x100 EXP SWAP1 DIV PUSH4 0xFFFFFFFF AND PUSH4 0xFFFFFFFF AND LT ISZERO PUSH2 0x8C9 JUMPI PUSH1 0x40 MLOAD PUSH32 0x8C379A000000000000000000000000000000000000000000000000000000000 DUP2 MSTORE PUSH1 0x4 ADD PUSH2 0x8C0 SWAP1 PUSH2 0x1F3A JUMP JUMPDEST PUSH1 0x40 MLOAD DUP1 SWAP2 SUB SWAP1 REVERT JUMPDEST DUP1 PUSH4 0xFFFFFFFF AND PUSH1 0x3 PUSH1 0x0 DUP5 PUSH20 0xFFFFFFFFFFFFFFFFFFFFFFFFFFFFFFFFFFFFFFFF AND PUSH20 0xFFFFFFFFFFFFFFFFFFFFFFFFFFFFFFFFFFFFFFFF AND DUP2 MSTORE PUSH1 0x20 ADD SWAP1 DUP2 MSTORE PUSH1 0x20 ADD PUSH1 0x0 KECCAK256 PUSH1 0x1 ADD SLOAD PUSH2 0x91D SWAP2 SWAP1 PUSH2 0x21F6 JUMP JUMPDEST CALLVALUE LT ISZERO PUSH2 0x95F JUMPI PUSH1 0x40 MLOAD PUSH32 0x8C379A000000000000000000000000000000000000000000000000000000000 DUP2 MSTORE PUSH1 0x4 ADD PUSH2 0x956 SWAP1 PUSH2 0x1FFA JUMP JUMPDEST PUSH1 0x40 MLOAD DUP1 SWAP2 SUB SWAP1 REVERT JUMPDEST PUSH1 0x0 DUP2 PUSH4 0xFFFFFFFF AND PUSH1 0x3 PUSH1 0x0 DUP6 PUSH20 0xFFFFFFFFFFFFFFFFFFFFFFFFFFFFFFFFFFFFFFFF AND PUSH20 0xFFFFFFFFFFFFFFFFFFFFFFFFFFFFFFFFFFFFFFFF AND DUP2 MSTORE PUSH1 0x20 ADD SWAP1 DUP2 MSTORE PUSH1 0x20 ADD PUSH1 0x0 KECCAK256 PUSH1 0x1 ADD SLOAD PUSH2 0x9B5 SWAP2 SWAP1 PUSH2 0x21F6 JUMP JUMPDEST SWAP1 POP DUP2 PUSH1 0x3 PUSH1 0x0 DUP6 PUSH20 0xFFFFFFFFFFFFFFFFFFFFFFFFFFFFFFFFFFFFFFFF AND PUSH20 0xFFFFFFFFFFFFFFFFFFFFFFFFFFFFFFFFFFFFFFFF AND DUP2 MSTORE PUSH1 0x20 ADD SWAP1 DUP2 MSTORE PUSH1 0x20 ADD PUSH1 0x0 KECCAK256 PUSH1 0x2 ADD PUSH1 0x0 DUP3 DUP3 DUP3 SWAP1 SLOAD SWAP1 PUSH2 0x100 EXP SWAP1 DIV PUSH4 0xFFFFFFFF AND PUSH2 0xA18 SWAP2 SWAP1 PUSH2 0x2284 JUMP JUMPDEST SWAP3 POP PUSH2 0x100 EXP DUP2 SLOAD DUP2 PUSH4 0xFFFFFFFF MUL NOT AND SWAP1 DUP4 PUSH4 0xFFFFFFFF AND MUL OR SWAP1 SSTORE POP DUP2 PUSH1 0x3 PUSH1 0x0 DUP6 PUSH20 0xFFFFFFFFFFFFFFFFFFFFFFFFFFFFFFFFFFFFFFFF AND PUSH20 0xFFFFFFFFFFFFFFFFFFFFFFFFFFFFFFFFFFFFFFFF AND DUP2 MSTORE PUSH1 0x20 ADD SWAP1 DUP2 MSTORE PUSH1 0x20 ADD PUSH1 0x0 KECCAK256 PUSH1 0x0 ADD PUSH1 0x0 DUP3 DUP3 DUP3 SWAP1 SLOAD SWAP1 PUSH2 0x100 EXP SWAP1 DIV PUSH4 0xFFFFFFFF AND PUSH2 0xA97 SWAP2 SWAP1 PUSH2 0x2284 JUMP JUMPDEST SWAP3 POP PUSH2 0x100 EXP DUP2 SLOAD DUP2 PUSH4 0xFFFFFFFF MUL NOT AND SWAP1 DUP4 PUSH4 0xFFFFFFFF AND MUL OR SWAP1 SSTORE POP PUSH1 0x0 PUSH1 0x3 PUSH1 0x0 DUP6 PUSH20 0xFFFFFFFFFFFFFFFFFFFFFFFFFFFFFFFFFFFFFFFF AND PUSH20 0xFFFFFFFFFFFFFFFFFFFFFFFFFFFFFFFFFFFFFFFF AND DUP2 MSTORE PUSH1 0x20 ADD SWAP1 DUP2 MSTORE PUSH1 0x20 ADD PUSH1 0x0 KECCAK256 PUSH1 0x0 ADD PUSH1 0x0 SWAP1 SLOAD SWAP1 PUSH2 0x100 EXP SWAP1 DIV PUSH4 0xFFFFFFFF AND PUSH4 0xFFFFFFFF AND EQ ISZERO PUSH2 0xCFC JUMPI PUSH1 0x0 DUP1 JUMPDEST PUSH1 0x4 DUP1 SLOAD SWAP1 POP DUP2 LT ISZERO PUSH2 0xBB4 JUMPI DUP5 PUSH20 0xFFFFFFFFFFFFFFFFFFFFFFFFFFFFFFFFFFFFFFFF AND PUSH1 0x4 DUP3 DUP2 SLOAD DUP2 LT PUSH2 0xB52 JUMPI PUSH2 0xB51 PUSH2 0x23C9 JUMP JUMPDEST JUMPDEST SWAP1 PUSH1 0x0 MSTORE PUSH1 0x20 PUSH1 0x0 KECCAK256 ADD PUSH1 0x0 SWAP1 SLOAD SWAP1 PUSH2 0x100 EXP SWAP1 DIV PUSH20 0xFFFFFFFFFFFFFFFFFFFFFFFFFFFFFFFFFFFFFFFF AND PUSH20 0xFFFFFFFFFFFFFFFFFFFFFFFFFFFFFFFFFFFFFFFF AND EQ ISZERO PUSH2 0xBA1 JUMPI DUP1 SWAP2 POP PUSH2 0xBB4 JUMP JUMPDEST DUP1 DUP1 PUSH2 0xBAC SWAP1 PUSH2 0x2322 JUMP JUMPDEST SWAP2 POP POP PUSH2 0xB1A JUMP JUMPDEST POP PUSH1 0x4 PUSH1 0x1 PUSH1 0x4 DUP1 SLOAD SWAP1 POP PUSH2 0xBC9 SWAP2 SWAP1 PUSH2 0x2250 JUMP JUMPDEST DUP2 SLOAD DUP2 LT PUSH2 0xBDA JUMPI PUSH2 0xBD9 PUSH2 0x23C9 JUMP JUMPDEST JUMPDEST SWAP1 PUSH1 0x0 MSTORE PUSH1 0x20 PUSH1 0x0 KECCAK256 ADD PUSH1 0x0 SWAP1 SLOAD SWAP1 PUSH2 0x100 EXP SWAP1 DIV PUSH20 0xFFFFFFFFFFFFFFFFFFFFFFFFFFFFFFFFFFFFFFFF AND PUSH1 0x4 DUP3 DUP2 SLOAD DUP2 LT PUSH2 0xC19 JUMPI PUSH2 0xC18 PUSH2 0x23C9 JUMP JUMPDEST JUMPDEST SWAP1 PUSH1 0x0 MSTORE PUSH1 0x20 PUSH1 0x0 KECCAK256 ADD PUSH1 0x0 PUSH2 0x100 EXP DUP2 SLOAD DUP2 PUSH20 0xFFFFFFFFFFFFFFFFFFFFFFFFFFFFFFFFFFFFFFFF MUL NOT AND SWAP1 DUP4 PUSH20 0xFFFFFFFFFFFFFFFFFFFFFFFFFFFFFFFFFFFFFFFF AND MUL OR SWAP1 SSTORE POP PUSH1 0x4 PUSH1 0x1 PUSH1 0x4 DUP1 SLOAD SWAP1 POP PUSH2 0xC75 SWAP2 SWAP1 PUSH2 0x2250 JUMP JUMPDEST DUP2 SLOAD DUP2 LT PUSH2 0xC86 JUMPI PUSH2 0xC85 PUSH2 0x23C9 JUMP JUMPDEST JUMPDEST SWAP1 PUSH1 0x0 MSTORE PUSH1 0x20 PUSH1 0x0 KECCAK256 ADD PUSH1 0x0 PUSH2 0x100 EXP DUP2 SLOAD SWAP1 PUSH20 0xFFFFFFFFFFFFFFFFFFFFFFFFFFFFFFFFFFFFFFFF MUL NOT AND SWAP1 SSTORE PUSH1 0x4 DUP1 SLOAD DUP1 PUSH2 0xCC5 JUMPI PUSH2 0xCC4 PUSH2 0x239A JUMP JUMPDEST JUMPDEST PUSH1 0x1 SWAP1 SUB DUP2 DUP2 SWAP1 PUSH1 0x0 MSTORE PUSH1 0x20 PUSH1 0x0 KECCAK256 ADD PUSH1 0x0 PUSH2 0x100 EXP DUP2 SLOAD SWAP1 PUSH20 0xFFFFFFFFFFFFFFFFFFFFFFFFFFFFFFFFFFFFFFFF MUL NOT AND SWAP1 SSTORE SWAP1 SSTORE POP JUMPDEST PUSH1 0x0 PUSH1 0x3 PUSH1 0x0 CALLER PUSH20 0xFFFFFFFFFFFFFFFFFFFFFFFFFFFFFFFFFFFFFFFF AND PUSH20 0xFFFFFFFFFFFFFFFFFFFFFFFFFFFFFFFFFFFFFFFF AND DUP2 MSTORE PUSH1 0x20 ADD SWAP1 DUP2 MSTORE PUSH1 0x20 ADD PUSH1 0x0 KECCAK256 PUSH1 0x0 ADD PUSH1 0x0 SWAP1 SLOAD SWAP1 PUSH2 0x100 EXP SWAP1 DIV PUSH4 0xFFFFFFFF AND PUSH4 0xFFFFFFFF AND EQ ISZERO PUSH2 0xDC1 JUMPI PUSH1 0x4 CALLER SWAP1 DUP1 PUSH1 0x1 DUP2 SLOAD ADD DUP1 DUP3 SSTORE DUP1 SWAP2 POP POP PUSH1 0x1 SWAP1 SUB SWAP1 PUSH1 0x0 MSTORE PUSH1 0x20 PUSH1 0x0 KECCAK256 ADD PUSH1 0x0 SWAP1 SWAP2 SWAP1 SWAP2 SWAP1 SWAP2 PUSH2 0x100 EXP DUP2 SLOAD DUP2 PUSH20 0xFFFFFFFFFFFFFFFFFFFFFFFFFFFFFFFFFFFFFFFF MUL NOT AND SWAP1 DUP4 PUSH20 0xFFFFFFFFFFFFFFFFFFFFFFFFFFFFFFFFFFFFFFFF AND MUL OR SWAP1 SSTORE POP JUMPDEST DUP2 PUSH1 0x3 PUSH1 0x0 CALLER PUSH20 0xFFFFFFFFFFFFFFFFFFFFFFFFFFFFFFFFFFFFFFFF AND PUSH20 0xFFFFFFFFFFFFFFFFFFFFFFFFFFFFFFFFFFFFFFFF AND DUP2 MSTORE PUSH1 0x20 ADD SWAP1 DUP2 MSTORE PUSH1 0x20 ADD PUSH1 0x0 KECCAK256 PUSH1 0x0 ADD PUSH1 0x0 DUP3 DUP3 DUP3 SWAP1 SLOAD SWAP1 PUSH2 0x100 EXP SWAP1 DIV PUSH4 0xFFFFFFFF AND PUSH2 0xE22 SWAP2 SWAP1 PUSH2 0x21BC JUMP JUMPDEST SWAP3 POP PUSH2 0x100 EXP DUP2 SLOAD DUP2 PUSH4 0xFFFFFFFF MUL NOT AND SWAP1 DUP4 PUSH4 0xFFFFFFFF AND MUL OR SWAP1 SSTORE POP ADDRESS PUSH20 0xFFFFFFFFFFFFFFFFFFFFFFFFFFFFFFFFFFFFFFFF AND DUP4 PUSH20 0xFFFFFFFFFFFFFFFFFFFFFFFFFFFFFFFFFFFFFFFF AND EQ PUSH2 0xEBB JUMPI DUP3 PUSH20 0xFFFFFFFFFFFFFFFFFFFFFFFFFFFFFFFFFFFFFFFF AND PUSH2 0x8FC DUP3 SWAP1 DUP2 ISZERO MUL SWAP1 PUSH1 0x40 MLOAD PUSH1 0x0 PUSH1 0x40 MLOAD DUP1 DUP4 SUB DUP2 DUP6 DUP9 DUP9 CALL SWAP4 POP POP POP POP ISZERO DUP1 ISZERO PUSH2 0xEB9 JUMPI RETURNDATASIZE PUSH1 0x0 DUP1 RETURNDATACOPY RETURNDATASIZE PUSH1 0x0 REVERT JUMPDEST POP JUMPDEST CALLER PUSH20 0xFFFFFFFFFFFFFFFFFFFFFFFFFFFFFFFFFFFFFFFF AND PUSH2 0x8FC DUP3 CALLVALUE PUSH2 0xEE1 SWAP2 SWAP1 PUSH2 0x2250 JUMP JUMPDEST SWAP1 DUP2 ISZERO MUL SWAP1 PUSH1 0x40 MLOAD PUSH1 0x0 PUSH1 0x40 MLOAD DUP1 DUP4 SUB DUP2 DUP6 DUP9 DUP9 CALL SWAP4 POP POP POP POP ISZERO DUP1 ISZERO PUSH2 0xF0C JUMPI RETURNDATASIZE PUSH1 0x0 DUP1 RETURNDATACOPY RETURNDATASIZE PUSH1 0x0 REVERT JUMPDEST POP POP POP POP JUMP JUMPDEST PUSH1 0x5 PUSH1 0x20 MSTORE DUP1 PUSH1 0x0 MSTORE PUSH1 0x40 PUSH1 0x0 KECCAK256 PUSH1 0x0 SWAP2 POP SLOAD SWAP1 PUSH2 0x100 EXP SWAP1 DIV PUSH4 0xFFFFFFFF AND DUP2 JUMP JUMPDEST PUSH1 0x3 PUSH1 0x20 MSTORE DUP1 PUSH1 0x0 MSTORE PUSH1 0x40 PUSH1 0x0 KECCAK256 PUSH1 0x0 SWAP2 POP SWAP1 POP DUP1 PUSH1 0x0 ADD PUSH1 0x0 SWAP1 SLOAD SWAP1 PUSH2 0x100 EXP SWAP1 DIV PUSH4 0xFFFFFFFF AND SWAP1 DUP1 PUSH1 0x1 ADD SLOAD SWAP1 DUP1 PUSH1 0x2 ADD PUSH1 0x0 SWAP1 SLOAD SWAP1 PUSH2 0x100 EXP SWAP1 DIV PUSH4 0xFFFFFFFF AND SWAP1 DUP1 PUSH1 0x2 ADD PUSH1 0x4 SWAP1 SLOAD SWAP1 PUSH2 0x100 EXP SWAP1 DIV PUSH1 0xFF AND SWAP1 POP DUP5 JUMP JUMPDEST PUSH1 0x3C DUP2 JUMP JUMPDEST PUSH1 0x0 DUP1 SLOAD SWAP1 PUSH2 0x100 EXP SWAP1 DIV PUSH20 0xFFFFFFFFFFFFFFFFFFFFFFFFFFFFFFFFFFFFFFFF AND PUSH20 0xFFFFFFFFFFFFFFFFFFFFFFFFFFFFFFFFFFFFFFFF AND CALLER PUSH20 0xFFFFFFFFFFFFFFFFFFFFFFFFFFFFFFFFFFFFFFFF AND EQ PUSH2 0x1025 JUMPI PUSH1 0x40 MLOAD PUSH32 0x8C379A000000000000000000000000000000000000000000000000000000000 DUP2 MSTORE PUSH1 0x4 ADD PUSH2 0x101C SWAP1 PUSH2 0x203A JUMP JUMPDEST PUSH1 0x40 MLOAD DUP1 SWAP2 SUB SWAP1 REVERT JUMPDEST PUSH1 0x2 PUSH1 0x0 SWAP1 SLOAD SWAP1 PUSH2 0x100 EXP SWAP1 DIV PUSH1 0xFF AND ISZERO PUSH2 0x1075 JUMPI PUSH1 0x40 MLOAD PUSH32 0x8C379A000000000000000000000000000000000000000000000000000000000 DUP2 MSTORE PUSH1 0x4 ADD PUSH2 0x106C SWAP1 PUSH2 0x1EBA JUMP JUMPDEST PUSH1 0x40 MLOAD DUP1 SWAP2 SUB SWAP1 REVERT JUMPDEST DUP1 PUSH20 0xFFFFFFFFFFFFFFFFFFFFFFFFFFFFFFFFFFFFFFFF AND PUSH2 0x8FC SELFBALANCE SWAP1 DUP2 ISZERO MUL SWAP1 PUSH1 0x40 MLOAD PUSH1 0x0 PUSH1 0x40 MLOAD DUP1 DUP4 SUB DUP2 DUP6 DUP9 DUP9 CALL SWAP4 POP POP POP POP ISZERO DUP1 ISZERO PUSH2 0x10BB JUMPI RETURNDATASIZE PUSH1 0x0 DUP1 RETURNDATACOPY RETURNDATASIZE PUSH1 0x0 REVERT JUMPDEST POP POP JUMP JUMPDEST PUSH1 0x0 DUP1 SLOAD SWAP1 PUSH2 0x100 EXP SWAP1 DIV PUSH20 0xFFFFFFFFFFFFFFFFFFFFFFFFFFFFFFFFFFFFFFFF AND DUP2 JUMP JUMPDEST PUSH1 0x78 DUP2 JUMP JUMPDEST PUSH1 0x0 DUP1 SLOAD SWAP1 PUSH2 0x100 EXP SWAP1 DIV PUSH20 0xFFFFFFFFFFFFFFFFFFFFFFFFFFFFFFFFFFFFFFFF AND PUSH20 0xFFFFFFFFFFFFFFFFFFFFFFFFFFFFFFFFFFFFFFFF AND CALLER PUSH20 0xFFFFFFFFFFFFFFFFFFFFFFFFFFFFFFFFFFFFFFFF AND EQ PUSH2 0x1176 JUMPI PUSH1 0x40 MLOAD PUSH32 0x8C379A000000000000000000000000000000000000000000000000000000000 DUP2 MSTORE PUSH1 0x4 ADD PUSH2 0x116D SWAP1 PUSH2 0x203A JUMP JUMPDEST PUSH1 0x40 MLOAD DUP1 SWAP2 SUB SWAP1 REVERT JUMPDEST DUP1 PUSH4 0xFFFFFFFF AND PUSH1 0x3 PUSH1 0x0 ADDRESS PUSH20 0xFFFFFFFFFFFFFFFFFFFFFFFFFFFFFFFFFFFFFFFF AND PUSH20 0xFFFFFFFFFFFFFFFFFFFFFFFFFFFFFFFFFFFFFFFF AND DUP2 MSTORE PUSH1 0x20 ADD SWAP1 DUP2 MSTORE PUSH1 0x20 ADD PUSH1 0x0 KECCAK256 PUSH1 0x0 ADD PUSH1 0x0 SWAP1 SLOAD SWAP1 PUSH2 0x100 EXP SWAP1 DIV PUSH4 0xFFFFFFFF AND PUSH4 0xFFFFFFFF AND LT ISZERO PUSH2 0x1217 JUMPI PUSH1 0x40 MLOAD PUSH32 0x8C379A000000000000000000000000000000000000000000000000000000000 DUP2 MSTORE PUSH1 0x4 ADD PUSH2 0x120E SWAP1 PUSH2 0x20BA JUMP JUMPDEST PUSH1 0x40 MLOAD DUP1 SWAP2 SUB SWAP1 REVERT JUMPDEST DUP2 PUSH1 0x3 PUSH1 0x0 ADDRESS PUSH20 0xFFFFFFFFFFFFFFFFFFFFFFFFFFFFFFFFFFFFFFFF AND PUSH20 0xFFFFFFFFFFFFFFFFFFFFFFFFFFFFFFFFFFFFFFFF AND DUP2 MSTORE PUSH1 0x20 ADD SWAP1 DUP2 MSTORE PUSH1 0x20 ADD PUSH1 0x0 KECCAK256 PUSH1 0x1 ADD DUP2 SWAP1 SSTORE POP DUP1 PUSH1 0x3 PUSH1 0x0 ADDRESS PUSH20 0xFFFFFFFFFFFFFFFFFFFFFFFFFFFFFFFFFFFFFFFF AND PUSH20 0xFFFFFFFFFFFFFFFFFFFFFFFFFFFFFFFFFFFFFFFF AND DUP2 MSTORE PUSH1 0x20 ADD SWAP1 DUP2 MSTORE PUSH1 0x20 ADD PUSH1 0x0 KECCAK256 PUSH1 0x2 ADD PUSH1 0x0 PUSH2 0x100 EXP DUP2 SLOAD DUP2 PUSH4 0xFFFFFFFF MUL NOT AND SWAP1 DUP4 PUSH4 0xFFFFFFFF AND MUL OR SWAP1 SSTORE POP POP POP JUMP JUMPDEST PUSH1 0x3C DUP2 JUMP JUMPDEST PUSH1 0x0 PUSH1 0x3 PUSH1 0x0 CALLER PUSH20 0xFFFFFFFFFFFFFFFFFFFFFFFFFFFFFFFFFFFFFFFF AND PUSH20 0xFFFFFFFFFFFFFFFFFFFFFFFFFFFFFFFFFFFFFFFF AND DUP2 MSTORE PUSH1 0x20 ADD SWAP1 DUP2 MSTORE PUSH1 0x20 ADD PUSH1 0x0 KECCAK256 PUSH1 0x0 ADD PUSH1 0x0 SWAP1 SLOAD SWAP1 PUSH2 0x100 EXP SWAP1 DIV PUSH4 0xFFFFFFFF AND PUSH4 0xFFFFFFFF AND EQ ISZERO PUSH2 0x1364 JUMPI PUSH1 0x40 MLOAD PUSH32 0x8C379A000000000000000000000000000000000000000000000000000000000 DUP2 MSTORE PUSH1 0x4 ADD PUSH2 0x135B SWAP1 PUSH2 0x1F1A JUMP JUMPDEST PUSH1 0x40 MLOAD DUP1 SWAP2 SUB SWAP1 REVERT JUMPDEST TIMESTAMP PUSH1 0x78 PUSH1 0x1 SLOAD PUSH2 0x1374 SWAP2 SWAP1 PUSH2 0x2166 JUMP JUMPDEST GT PUSH2 0x13B4 JUMPI PUSH1 0x40 MLOAD PUSH32 0x8C379A000000000000000000000000000000000000000000000000000000000 DUP2 MSTORE PUSH1 0x4 ADD PUSH2 0x13AB SWAP1 PUSH2 0x201A JUMP JUMPDEST PUSH1 0x40 MLOAD DUP1 SWAP2 SUB SWAP1 REVERT JUMPDEST SELFBALANCE PUSH1 0x0 PUSH1 0x14 SWAP1 SLOAD SWAP1 PUSH2 0x100 EXP SWAP1 DIV PUSH4 0xFFFFFFFF AND PUSH4 0xFFFFFFFF AND DUP3 PUSH2 0x13D9 SWAP2 SWAP1 PUSH2 0x21F6 JUMP JUMPDEST GT ISZERO PUSH2 0x141A JUMPI PUSH1 0x40 MLOAD PUSH32 0x8C379A000000000000000000000000000000000000000000000000000000000 DUP2 MSTORE PUSH1 0x4 ADD PUSH2 0x1411 SWAP1 PUSH2 0x207A JUMP JUMPDEST PUSH1 0x40 MLOAD DUP1 SWAP2 SUB SWAP1 REVERT JUMPDEST TIMESTAMP PUSH1 0x3C PUSH1 0x78 PUSH1 0x1 SLOAD PUSH2 0x142C SWAP2 SWAP1 PUSH2 0x2166 JUMP JUMPDEST PUSH2 0x1436 SWAP2 SWAP1 PUSH2 0x2166 JUMP JUMPDEST GT ISZERO PUSH2 0x1477 JUMPI PUSH1 0x40 MLOAD PUSH32 0x8C379A000000000000000000000000000000000000000000000000000000000 DUP2 MSTORE PUSH1 0x4 ADD PUSH2 0x146E SWAP1 PUSH2 0x1EDA JUMP JUMPDEST PUSH1 0x40 MLOAD DUP1 SWAP2 SUB SWAP1 REVERT JUMPDEST PUSH1 0x1 PUSH1 0x2 PUSH1 0x0 PUSH2 0x100 EXP DUP2 SLOAD DUP2 PUSH1 0xFF MUL NOT AND SWAP1 DUP4 ISZERO ISZERO MUL OR SWAP1 SSTORE POP PUSH1 0x1 PUSH1 0x5 PUSH1 0x0 DUP4 DUP2 MSTORE PUSH1 0x20 ADD SWAP1 DUP2 MSTORE PUSH1 0x20 ADD PUSH1 0x0 KECCAK256 PUSH1 0x0 PUSH2 0x100 EXP DUP2 SLOAD DUP2 PUSH4 0xFFFFFFFF MUL NOT AND SWAP1 DUP4 PUSH4 0xFFFFFFFF AND MUL OR SWAP1 SSTORE POP PUSH1 0x6 DUP2 SWAP1 DUP1 PUSH1 0x1 DUP2 SLOAD ADD DUP1 DUP3 SSTORE DUP1 SWAP2 POP POP PUSH1 0x1 SWAP1 SUB SWAP1 PUSH1 0x0 MSTORE PUSH1 0x20 PUSH1 0x0 KECCAK256 ADD PUSH1 0x0 SWAP1 SWAP2 SWAP1 SWAP2 SWAP1 SWAP2 POP SSTORE POP JUMP JUMPDEST PUSH1 0x0 PUSH1 0x14 SWAP1 SLOAD SWAP1 PUSH2 0x100 EXP SWAP1 DIV PUSH4 0xFFFFFFFF AND DUP2 JUMP JUMPDEST JUMP JUMPDEST PUSH1 0x0 PUSH1 0x3 PUSH1 0x0 CALLER PUSH20 0xFFFFFFFFFFFFFFFFFFFFFFFFFFFFFFFFFFFFFFFF AND PUSH20 0xFFFFFFFFFFFFFFFFFFFFFFFFFFFFFFFFFFFFFFFF AND DUP2 MSTORE PUSH1 0x20 ADD SWAP1 DUP2 MSTORE PUSH1 0x20 ADD PUSH1 0x0 KECCAK256 PUSH1 0x0 ADD PUSH1 0x0 SWAP1 SLOAD SWAP1 PUSH2 0x100 EXP SWAP1 DIV PUSH4 0xFFFFFFFF AND PUSH4 0xFFFFFFFF AND EQ ISZERO PUSH2 0x15A5 JUMPI PUSH1 0x40 MLOAD PUSH32 0x8C379A000000000000000000000000000000000000000000000000000000000 DUP2 MSTORE PUSH1 0x4 ADD PUSH2 0x159C SWAP1 PUSH2 0x1F1A JUMP JUMPDEST PUSH1 0x40 MLOAD DUP1 SWAP2 SUB SWAP1 REVERT JUMPDEST TIMESTAMP PUSH1 0x3C DUP1 PUSH1 0x78 PUSH1 0x1 SLOAD PUSH2 0x15B8 SWAP2 SWAP1 PUSH2 0x2166 JUMP JUMPDEST PUSH2 0x15C2 SWAP2 SWAP1 PUSH2 0x2166 JUMP JUMPDEST PUSH2 0x15CC SWAP2 SWAP1 PUSH2 0x2166 JUMP JUMPDEST GT PUSH2 0x160C JUMPI PUSH1 0x40 MLOAD PUSH32 0x8C379A000000000000000000000000000000000000000000000000000000000 DUP2 MSTORE PUSH1 0x4 ADD PUSH2 0x1603 SWAP1 PUSH2 0x1F9A JUMP JUMPDEST PUSH1 0x40 MLOAD DUP1 SWAP2 SUB SWAP1 REVERT JUMPDEST PUSH1 0x2 PUSH1 0x0 SWAP1 SLOAD SWAP1 PUSH2 0x100 EXP SWAP1 DIV PUSH1 0xFF AND PUSH2 0x165B JUMPI PUSH1 0x40 MLOAD PUSH32 0x8C379A000000000000000000000000000000000000000000000000000000000 DUP2 MSTORE PUSH1 0x4 ADD PUSH2 0x1652 SWAP1 PUSH2 0x1F7A JUMP JUMPDEST PUSH1 0x40 MLOAD DUP1 SWAP2 SUB SWAP1 REVERT JUMPDEST PUSH1 0x0 DUP1 PUSH1 0x0 JUMPDEST PUSH1 0x6 DUP1 SLOAD SWAP1 POP DUP2 LT ISZERO PUSH2 0x1780 JUMPI DUP3 PUSH4 0xFFFFFFFF AND PUSH1 0x5 PUSH1 0x0 PUSH1 0x6 DUP5 DUP2 SLOAD DUP2 LT PUSH2 0x168D JUMPI PUSH2 0x168C PUSH2 0x23C9 JUMP JUMPDEST JUMPDEST SWAP1 PUSH1 0x0 MSTORE PUSH1 0x20 PUSH1 0x0 KECCAK256 ADD SLOAD DUP2 MSTORE PUSH1 0x20 ADD SWAP1 DUP2 MSTORE PUSH1 0x20 ADD PUSH1 0x0 KECCAK256 PUSH1 0x0 SWAP1 SLOAD SWAP1 PUSH2 0x100 EXP SWAP1 DIV PUSH4 0xFFFFFFFF AND PUSH4 0xFFFFFFFF AND GT ISZERO PUSH2 0x1729 JUMPI PUSH1 0x5 PUSH1 0x0 PUSH1 0x6 DUP4 DUP2 SLOAD DUP2 LT PUSH2 0x16DB JUMPI PUSH2 0x16DA PUSH2 0x23C9 JUMP JUMPDEST JUMPDEST SWAP1 PUSH1 0x0 MSTORE PUSH1 0x20 PUSH1 0x0 KECCAK256 ADD SLOAD DUP2 MSTORE PUSH1 0x20 ADD SWAP1 DUP2 MSTORE PUSH1 0x20 ADD PUSH1 0x0 KECCAK256 PUSH1 0x0 SWAP1 SLOAD SWAP1 PUSH2 0x100 EXP SWAP1 DIV PUSH4 0xFFFFFFFF AND SWAP3 POP PUSH1 0x6 DUP2 DUP2 SLOAD DUP2 LT PUSH2 0x171B JUMPI PUSH2 0x171A PUSH2 0x23C9 JUMP JUMPDEST JUMPDEST SWAP1 PUSH1 0x0 MSTORE PUSH1 0x20 PUSH1 0x0 KECCAK256 ADD SLOAD SWAP2 POP JUMPDEST PUSH1 0x5 PUSH1 0x0 PUSH1 0x6 DUP4 DUP2 SLOAD DUP2 LT PUSH2 0x1741 JUMPI PUSH2 0x1740 PUSH2 0x23C9 JUMP JUMPDEST JUMPDEST SWAP1 PUSH1 0x0 MSTORE PUSH1 0x20 PUSH1 0x0 KECCAK256 ADD SLOAD DUP2 MSTORE PUSH1 0x20 ADD SWAP1 DUP2 MSTORE PUSH1 0x20 ADD PUSH1 0x0 KECCAK256 PUSH1 0x0 PUSH2 0x100 EXP DUP2 SLOAD SWAP1 PUSH4 0xFFFFFFFF MUL NOT AND SWAP1 SSTORE DUP1 DUP1 PUSH2 0x1778 SWAP1 PUSH2 0x2322 JUMP JUMPDEST SWAP2 POP POP PUSH2 0x1661 JUMP JUMPDEST POP PUSH1 0x6 PUSH1 0x0 PUSH2 0x178F SWAP2 SWAP1 PUSH2 0x1A37 JUMP JUMPDEST PUSH1 0x0 JUMPDEST PUSH1 0x4 DUP1 SLOAD SWAP1 POP DUP2 LT ISZERO PUSH2 0x18A9 JUMPI ADDRESS PUSH20 0xFFFFFFFFFFFFFFFFFFFFFFFFFFFFFFFFFFFFFFFF AND PUSH1 0x4 DUP3 DUP2 SLOAD DUP2 LT PUSH2 0x17CA JUMPI PUSH2 0x17C9 PUSH2 0x23C9 JUMP JUMPDEST JUMPDEST SWAP1 PUSH1 0x0 MSTORE PUSH1 0x20 PUSH1 0x0 KECCAK256 ADD PUSH1 0x0 SWAP1 SLOAD SWAP1 PUSH2 0x100 EXP SWAP1 DIV PUSH20 0xFFFFFFFFFFFFFFFFFFFFFFFFFFFFFFFFFFFFFFFF AND PUSH20 0xFFFFFFFFFFFFFFFFFFFFFFFFFFFFFFFFFFFFFFFF AND EQ PUSH2 0x1896 JUMPI PUSH1 0x4 DUP2 DUP2 SLOAD DUP2 LT PUSH2 0x1824 JUMPI PUSH2 0x1823 PUSH2 0x23C9 JUMP JUMPDEST JUMPDEST SWAP1 PUSH1 0x0 MSTORE PUSH1 0x20 PUSH1 0x0 KECCAK256 ADD PUSH1 0x0 SWAP1 SLOAD SWAP1 PUSH2 0x100 EXP SWAP1 DIV PUSH20 0xFFFFFFFFFFFFFFFFFFFFFFFFFFFFFFFFFFFFFFFF AND PUSH20 0xFFFFFFFFFFFFFFFFFFFFFFFFFFFFFFFFFFFFFFFF AND PUSH2 0x8FC DUP4 SWAP1 DUP2 ISZERO MUL SWAP1 PUSH1 0x40 MLOAD PUSH1 0x0 PUSH1 0x40 MLOAD DUP1 DUP4 SUB DUP2 DUP6 DUP9 DUP9 CALL SWAP4 POP POP POP POP ISZERO DUP1 ISZERO PUSH2 0x1894 JUMPI RETURNDATASIZE PUSH1 0x0 DUP1 RETURNDATACOPY RETURNDATASIZE PUSH1 0x0 REVERT JUMPDEST POP JUMPDEST DUP1 DUP1 PUSH2 0x18A1 SWAP1 PUSH2 0x2322 JUMP JUMPDEST SWAP2 POP POP PUSH2 0x1792 JUMP JUMPDEST POP PUSH1 0x0 PUSH1 0x2 PUSH1 0x0 PUSH2 0x100 EXP DUP2 SLOAD DUP2 PUSH1 0xFF MUL NOT AND SWAP1 DUP4 ISZERO ISZERO MUL OR SWAP1 SSTORE POP POP POP JUMP JUMPDEST PUSH1 0x0 DUP1 SLOAD SWAP1 PUSH2 0x100 EXP SWAP1 DIV PUSH20 0xFFFFFFFFFFFFFFFFFFFFFFFFFFFFFFFFFFFFFFFF AND PUSH20 0xFFFFFFFFFFFFFFFFFFFFFFFFFFFFFFFFFFFFFFFF AND CALLER PUSH20 0xFFFFFFFFFFFFFFFFFFFFFFFFFFFFFFFFFFFFFFFF AND EQ PUSH2 0x1957 JUMPI PUSH1 0x40 MLOAD PUSH32 0x8C379A000000000000000000000000000000000000000000000000000000000 DUP2 MSTORE PUSH1 0x4 ADD PUSH2 0x194E SWAP1 PUSH2 0x203A JUMP JUMPDEST PUSH1 0x40 MLOAD DUP1 SWAP2 SUB SWAP1 REVERT JUMPDEST DUP1 DUP1 SELFBALANCE LT ISZERO PUSH2 0x199B JUMPI PUSH1 0x40 MLOAD PUSH32 0x8C379A000000000000000000000000000000000000000000000000000000000 DUP2 MSTORE PUSH1 0x4 ADD PUSH2 0x1992 SWAP1 PUSH2 0x205A JUMP JUMPDEST PUSH1 0x40 MLOAD DUP1 SWAP2 SUB SWAP1 REVERT JUMPDEST PUSH1 0x2 PUSH1 0x0 SWAP1 SLOAD SWAP1 PUSH2 0x100 EXP SWAP1 DIV PUSH1 0xFF AND ISZERO PUSH2 0x19EB JUMPI PUSH1 0x40 MLOAD PUSH32 0x8C379A000000000000000000000000000000000000000000000000000000000 DUP2 MSTORE PUSH1 0x4 ADD PUSH2 0x19E2 SWAP1 PUSH2 0x1EBA JUMP JUMPDEST PUSH1 0x40 MLOAD DUP1 SWAP2 SUB SWAP1 REVERT JUMPDEST DUP3 PUSH20 0xFFFFFFFFFFFFFFFFFFFFFFFFFFFFFFFFFFFFFFFF AND PUSH2 0x8FC DUP4 SWAP1 DUP2 ISZERO MUL SWAP1 PUSH1 0x40 MLOAD PUSH1 0x0 PUSH1 0x40 MLOAD DUP1 DUP4 SUB DUP2 DUP6 DUP9 DUP9 CALL SWAP4 POP POP POP POP ISZERO DUP1 ISZERO PUSH2 0x1A31 JUMPI RETURNDATASIZE PUSH1 0x0 DUP1 RETURNDATACOPY RETURNDATASIZE PUSH1 0x0 REVERT JUMPDEST POP POP POP POP JUMP JUMPDEST POP DUP1 SLOAD PUSH1 0x0 DUP3 SSTORE SWAP1 PUSH1 0x0 MSTORE PUSH1 0x20 PUSH1 0x0 KECCAK256 SWAP1 DUP2 ADD SWAP1 PUSH2 0x1A55 SWAP2 SWAP1 PUSH2 0x1A58 JUMP JUMPDEST POP JUMP JUMPDEST JUMPDEST DUP1 DUP3 GT ISZERO PUSH2 0x1A71 JUMPI PUSH1 0x0 DUP2 PUSH1 0x0 SWAP1 SSTORE POP PUSH1 0x1 ADD PUSH2 0x1A59 JUMP JUMPDEST POP SWAP1 JUMP JUMPDEST PUSH1 0x0 DUP2 CALLDATALOAD SWAP1 POP PUSH2 0x1A84 DUP2 PUSH2 0x28CA JUMP JUMPDEST SWAP3 SWAP2 POP POP JUMP JUMPDEST PUSH1 0x0 DUP2 CALLDATALOAD SWAP1 POP PUSH2 0x1A99 DUP2 PUSH2 0x28E1 JUMP JUMPDEST SWAP3 SWAP2 POP POP JUMP JUMPDEST PUSH1 0x0 DUP2 CALLDATALOAD SWAP1 POP PUSH2 0x1AAE DUP2 PUSH2 0x28F8 JUMP JUMPDEST SWAP3 SWAP2 POP POP JUMP JUMPDEST PUSH1 0x0 DUP2 CALLDATALOAD SWAP1 POP PUSH2 0x1AC3 DUP2 PUSH2 0x290F JUMP JUMPDEST SWAP3 SWAP2 POP POP JUMP JUMPDEST PUSH1 0x0 PUSH1 0x20 DUP3 DUP5 SUB SLT ISZERO PUSH2 0x1ADF JUMPI PUSH2 0x1ADE PUSH2 0x23F8 JUMP JUMPDEST JUMPDEST PUSH1 0x0 PUSH2 0x1AED DUP5 DUP3 DUP6 ADD PUSH2 0x1A75 JUMP JUMPDEST SWAP2 POP POP SWAP3 SWAP2 POP POP JUMP JUMPDEST PUSH1 0x0 PUSH1 0x20 DUP3 DUP5 SUB SLT ISZERO PUSH2 0x1B0C JUMPI PUSH2 0x1B0B PUSH2 0x23F8 JUMP JUMPDEST JUMPDEST PUSH1 0x0 PUSH2 0x1B1A DUP5 DUP3 DUP6 ADD PUSH2 0x1A8A JUMP JUMPDEST SWAP2 POP POP SWAP3 SWAP2 POP POP JUMP JUMPDEST PUSH1 0x0 DUP1 PUSH1 0x40 DUP4 DUP6 SUB SLT ISZERO PUSH2 0x1B3A JUMPI PUSH2 0x1B39 PUSH2 0x23F8 JUMP JUMPDEST JUMPDEST PUSH1 0x0 PUSH2 0x1B48 DUP6 DUP3 DUP7 ADD PUSH2 0x1A8A JUMP JUMPDEST SWAP3 POP POP PUSH1 0x20 PUSH2 0x1B59 DUP6 DUP3 DUP7 ADD PUSH2 0x1A9F JUMP JUMPDEST SWAP2 POP POP SWAP3 POP SWAP3 SWAP1 POP JUMP JUMPDEST PUSH1 0x0 DUP1 PUSH1 0x40 DUP4 DUP6 SUB SLT ISZERO PUSH2 0x1B7A JUMPI PUSH2 0x1B79 PUSH2 0x23F8 JUMP JUMPDEST JUMPDEST PUSH1 0x0 PUSH2 0x1B88 DUP6 DUP3 DUP7 ADD PUSH2 0x1A8A JUMP JUMPDEST SWAP3 POP POP PUSH1 0x20 PUSH2 0x1B99 DUP6 DUP3 DUP7 ADD PUSH2 0x1AB4 JUMP JUMPDEST SWAP2 POP POP SWAP3 POP SWAP3 SWAP1 POP JUMP JUMPDEST PUSH1 0x0 PUSH1 0x20 DUP3 DUP5 SUB SLT ISZERO PUSH2 0x1BB9 JUMPI PUSH2 0x1BB8 PUSH2 0x23F8 JUMP JUMPDEST JUMPDEST PUSH1 0x0 PUSH2 0x1BC7 DUP5 DUP3 DUP6 ADD PUSH2 0x1A9F JUMP JUMPDEST SWAP2 POP POP SWAP3 SWAP2 POP POP JUMP JUMPDEST PUSH1 0x0 DUP1 PUSH1 0x40 DUP4 DUP6 SUB SLT ISZERO PUSH2 0x1BE7 JUMPI PUSH2 0x1BE6 PUSH2 0x23F8 JUMP JUMPDEST JUMPDEST PUSH1 0x0 PUSH2 0x1BF5 DUP6 DUP3 DUP7 ADD PUSH2 0x1A9F JUMP JUMPDEST SWAP3 POP POP PUSH1 0x20 PUSH2 0x1C06 DUP6 DUP3 DUP7 ADD PUSH2 0x1AB4 JUMP JUMPDEST SWAP2 POP POP SWAP3 POP SWAP3 SWAP1 POP JUMP JUMPDEST PUSH2 0x1C19 DUP2 PUSH2 0x22B8 JUMP JUMPDEST DUP3 MSTORE POP POP JUMP JUMPDEST PUSH2 0x1C28 DUP2 PUSH2 0x22DC JUMP JUMPDEST DUP3 MSTORE POP POP JUMP JUMPDEST PUSH1 0x0 PUSH2 0x1C3B PUSH1 0x5C DUP4 PUSH2 0x2155 JUMP JUMPDEST SWAP2 POP PUSH2 0x1C46 DUP3 PUSH2 0x23FD JUMP JUMPDEST PUSH1 0x60 DUP3 ADD SWAP1 POP SWAP2 SWAP1 POP JUMP JUMPDEST PUSH1 0x0 PUSH2 0x1C5E PUSH1 0x28 DUP4 PUSH2 0x2155 JUMP JUMPDEST SWAP2 POP PUSH2 0x1C69 DUP3 PUSH2 0x2472 JUMP JUMPDEST PUSH1 0x40 DUP3 ADD SWAP1 POP SWAP2 SWAP1 POP JUMP JUMPDEST PUSH1 0x0 PUSH2 0x1C81 PUSH1 0x17 DUP4 PUSH2 0x2155 JUMP JUMPDEST SWAP2 POP PUSH2 0x1C8C DUP3 PUSH2 0x24C1 JUMP JUMPDEST PUSH1 0x20 DUP3 ADD SWAP1 POP SWAP2 SWAP1 POP JUMP JUMPDEST PUSH1 0x0 PUSH2 0x1CA4 PUSH1 0x19 DUP4 PUSH2 0x2155 JUMP JUMPDEST SWAP2 POP PUSH2 0x1CAF DUP3 PUSH2 0x24EA JUMP JUMPDEST PUSH1 0x20 DUP3 ADD SWAP1 POP SWAP2 SWAP1 POP JUMP JUMPDEST PUSH1 0x0 PUSH2 0x1CC7 PUSH1 0x3B DUP4 PUSH2 0x2155 JUMP JUMPDEST SWAP2 POP PUSH2 0x1CD2 DUP3 PUSH2 0x2513 JUMP JUMPDEST PUSH1 0x40 DUP3 ADD SWAP1 POP SWAP2 SWAP1 POP JUMP JUMPDEST PUSH1 0x0 PUSH2 0x1CEA PUSH1 0x29 DUP4 PUSH2 0x2155 JUMP JUMPDEST SWAP2 POP PUSH2 0x1CF5 DUP3 PUSH2 0x2562 JUMP JUMPDEST PUSH1 0x40 DUP3 ADD SWAP1 POP SWAP2 SWAP1 POP JUMP JUMPDEST PUSH1 0x0 PUSH2 0x1D0D PUSH1 0x32 DUP4 PUSH2 0x2155 JUMP JUMPDEST SWAP2 POP PUSH2 0x1D18 DUP3 PUSH2 0x25B1 JUMP JUMPDEST PUSH1 0x40 DUP3 ADD SWAP1 POP SWAP2 SWAP1 POP JUMP JUMPDEST PUSH1 0x0 PUSH2 0x1D30 PUSH1 0x21 DUP4 PUSH2 0x2155 JUMP JUMPDEST SWAP2 POP PUSH2 0x1D3B DUP3 PUSH2 0x2600 JUMP JUMPDEST PUSH1 0x40 DUP3 ADD SWAP1 POP SWAP2 SWAP1 POP JUMP JUMPDEST PUSH1 0x0 PUSH2 0x1D53 PUSH1 0x26 DUP4 PUSH2 0x2155 JUMP JUMPDEST SWAP2 POP PUSH2 0x1D5E DUP3 PUSH2 0x264F JUMP JUMPDEST PUSH1 0x40 DUP3 ADD SWAP1 POP SWAP2 SWAP1 POP JUMP JUMPDEST PUSH1 0x0 PUSH2 0x1D76 PUSH1 0x41 DUP4 PUSH2 0x2155 JUMP JUMPDEST SWAP2 POP PUSH2 0x1D81 DUP3 PUSH2 0x269E JUMP JUMPDEST PUSH1 0x60 DUP3 ADD SWAP1 POP SWAP2 SWAP1 POP JUMP JUMPDEST PUSH1 0x0 PUSH2 0x1D99 PUSH1 0x2A DUP4 PUSH2 0x2155 JUMP JUMPDEST SWAP2 POP PUSH2 0x1DA4 DUP3 PUSH2 0x2713 JUMP JUMPDEST PUSH1 0x40 DUP3 ADD SWAP1 POP SWAP2 SWAP1 POP JUMP JUMPDEST PUSH1 0x0 PUSH2 0x1DBC PUSH1 0x18 DUP4 PUSH2 0x2155 JUMP JUMPDEST SWAP2 POP PUSH2 0x1DC7 DUP3 PUSH2 0x2762 JUMP JUMPDEST PUSH1 0x20 DUP3 ADD SWAP1 POP SWAP2 SWAP1 POP JUMP JUMPDEST PUSH1 0x0 PUSH2 0x1DDF PUSH1 0x16 DUP4 PUSH2 0x2155 JUMP JUMPDEST SWAP2 POP PUSH2 0x1DEA DUP3 PUSH2 0x278B JUMP JUMPDEST PUSH1 0x20 DUP3 ADD SWAP1 POP SWAP2 SWAP1 POP JUMP JUMPDEST PUSH1 0x0 PUSH2 0x1E02 PUSH1 0x1D DUP4 PUSH2 0x2155 JUMP JUMPDEST SWAP2 POP PUSH2 0x1E0D DUP3 PUSH2 0x27B4 JUMP JUMPDEST PUSH1 0x20 DUP3 ADD SWAP1 POP SWAP2 SWAP1 POP JUMP JUMPDEST PUSH1 0x0 PUSH2 0x1E25 PUSH1 0x3D DUP4 PUSH2 0x2155 JUMP JUMPDEST SWAP2 POP PUSH2 0x1E30 DUP3 PUSH2 0x27DD JUMP JUMPDEST PUSH1 0x40 DUP3 ADD SWAP1 POP SWAP2 SWAP1 POP JUMP JUMPDEST PUSH1 0x0 PUSH2 0x1E48 PUSH1 0x16 DUP4 PUSH2 0x2155 JUMP JUMPDEST SWAP2 POP PUSH2 0x1E53 DUP3 PUSH2 0x282C JUMP JUMPDEST PUSH1 0x20 DUP3 ADD SWAP1 POP SWAP2 SWAP1 POP JUMP JUMPDEST PUSH1 0x0 PUSH2 0x1E6B PUSH1 0x48 DUP4 PUSH2 0x2155 JUMP JUMPDEST SWAP2 POP PUSH2 0x1E76 DUP3 PUSH2 0x2855 JUMP JUMPDEST PUSH1 0x60 DUP3 ADD SWAP1 POP SWAP2 SWAP1 POP JUMP JUMPDEST PUSH2 0x1E8A DUP2 PUSH2 0x2308 JUMP JUMPDEST DUP3 MSTORE POP POP JUMP JUMPDEST PUSH2 0x1E99 DUP2 PUSH2 0x2312 JUMP JUMPDEST DUP3 MSTORE POP POP JUMP JUMPDEST PUSH1 0x0 PUSH1 0x20 DUP3 ADD SWAP1 POP PUSH2 0x1EB4 PUSH1 0x0 DUP4 ADD DUP5 PUSH2 0x1C10 JUMP JUMPDEST SWAP3 SWAP2 POP POP JUMP JUMPDEST PUSH1 0x0 PUSH1 0x20 DUP3 ADD SWAP1 POP DUP2 DUP2 SUB PUSH1 0x0 DUP4 ADD MSTORE PUSH2 0x1ED3 DUP2 PUSH2 0x1C2E JUMP JUMPDEST SWAP1 POP SWAP2 SWAP1 POP JUMP JUMPDEST PUSH1 0x0 PUSH1 0x20 DUP3 ADD SWAP1 POP DUP2 DUP2 SUB PUSH1 0x0 DUP4 ADD MSTORE PUSH2 0x1EF3 DUP2 PUSH2 0x1C51 JUMP JUMPDEST SWAP1 POP SWAP2 SWAP1 POP JUMP JUMPDEST PUSH1 0x0 PUSH1 0x20 DUP3 ADD SWAP1 POP DUP2 DUP2 SUB PUSH1 0x0 DUP4 ADD MSTORE PUSH2 0x1F13 DUP2 PUSH2 0x1C74 JUMP JUMPDEST SWAP1 POP SWAP2 SWAP1 POP JUMP JUMPDEST PUSH1 0x0 PUSH1 0x20 DUP3 ADD SWAP1 POP DUP2 DUP2 SUB PUSH1 0x0 DUP4 ADD MSTORE PUSH2 0x1F33 DUP2 PUSH2 0x1C97 JUMP JUMPDEST SWAP1 POP SWAP2 SWAP1 POP JUMP JUMPDEST PUSH1 0x0 PUSH1 0x20 DUP3 ADD SWAP1 POP DUP2 DUP2 SUB PUSH1 0x0 DUP4 ADD MSTORE PUSH2 0x1F53 DUP2 PUSH2 0x1CBA JUMP JUMPDEST SWAP1 POP SWAP2 SWAP1 POP JUMP JUMPDEST PUSH1 0x0 PUSH1 0x20 DUP3 ADD SWAP1 POP DUP2 DUP2 SUB PUSH1 0x0 DUP4 ADD MSTORE PUSH2 0x1F73 DUP2 PUSH2 0x1CDD JUMP JUMPDEST SWAP1 POP SWAP2 SWAP1 POP JUMP JUMPDEST PUSH1 0x0 PUSH1 0x20 DUP3 ADD SWAP1 POP DUP2 DUP2 SUB PUSH1 0x0 DUP4 ADD MSTORE PUSH2 0x1F93 DUP2 PUSH2 0x1D00 JUMP JUMPDEST SWAP1 POP SWAP2 SWAP1 POP JUMP JUMPDEST PUSH1 0x0 PUSH1 0x20 DUP3 ADD SWAP1 POP DUP2 DUP2 SUB PUSH1 0x0 DUP4 ADD MSTORE PUSH2 0x1FB3 DUP2 PUSH2 0x1D23 JUMP JUMPDEST SWAP1 POP SWAP2 SWAP1 POP JUMP JUMPDEST PUSH1 0x0 PUSH1 0x20 DUP3 ADD SWAP1 POP DUP2 DUP2 SUB PUSH1 0x0 DUP4 ADD MSTORE PUSH2 0x1FD3 DUP2 PUSH2 0x1D46 JUMP JUMPDEST SWAP1 POP SWAP2 SWAP1 POP JUMP JUMPDEST PUSH1 0x0 PUSH1 0x20 DUP3 ADD SWAP1 POP DUP2 DUP2 SUB PUSH1 0x0 DUP4 ADD MSTORE PUSH2 0x1FF3 DUP2 PUSH2 0x1D69 JUMP JUMPDEST SWAP1 POP SWAP2 SWAP1 POP JUMP JUMPDEST PUSH1 0x0 PUSH1 0x20 DUP3 ADD SWAP1 POP DUP2 DUP2 SUB PUSH1 0x0 DUP4 ADD MSTORE PUSH2 0x2013 DUP2 PUSH2 0x1D8C JUMP JUMPDEST SWAP1 POP SWAP2 SWAP1 POP JUMP JUMPDEST PUSH1 0x0 PUSH1 0x20 DUP3 ADD SWAP1 POP DUP2 DUP2 SUB PUSH1 0x0 DUP4 ADD MSTORE PUSH2 0x2033 DUP2 PUSH2 0x1DAF JUMP JUMPDEST SWAP1 POP SWAP2 SWAP1 POP JUMP JUMPDEST PUSH1 0x0 PUSH1 0x20 DUP3 ADD SWAP1 POP DUP2 DUP2 SUB PUSH1 0x0 DUP4 ADD MSTORE PUSH2 0x2053 DUP2 PUSH2 0x1DD2 JUMP JUMPDEST SWAP1 POP SWAP2 SWAP1 POP JUMP JUMPDEST PUSH1 0x0 PUSH1 0x20 DUP3 ADD SWAP1 POP DUP2 DUP2 SUB PUSH1 0x0 DUP4 ADD MSTORE PUSH2 0x2073 DUP2 PUSH2 0x1DF5 JUMP JUMPDEST SWAP1 POP SWAP2 SWAP1 POP JUMP JUMPDEST PUSH1 0x0 PUSH1 0x20 DUP3 ADD SWAP1 POP DUP2 DUP2 SUB PUSH1 0x0 DUP4 ADD MSTORE PUSH2 0x2093 DUP2 PUSH2 0x1E18 JUMP JUMPDEST SWAP1 POP SWAP2 SWAP1 POP JUMP JUMPDEST PUSH1 0x0 PUSH1 0x20 DUP3 ADD SWAP1 POP DUP2 DUP2 SUB PUSH1 0x0 DUP4 ADD MSTORE PUSH2 0x20B3 DUP2 PUSH2 0x1E3B JUMP JUMPDEST SWAP1 POP SWAP2 SWAP1 POP JUMP JUMPDEST PUSH1 0x0 PUSH1 0x20 DUP3 ADD SWAP1 POP DUP2 DUP2 SUB PUSH1 0x0 DUP4 ADD MSTORE PUSH2 0x20D3 DUP2 PUSH2 0x1E5E JUMP JUMPDEST SWAP1 POP SWAP2 SWAP1 POP JUMP JUMPDEST PUSH1 0x0 PUSH1 0x20 DUP3 ADD SWAP1 POP PUSH2 0x20EF PUSH1 0x0 DUP4 ADD DUP5 PUSH2 0x1E81 JUMP JUMPDEST SWAP3 SWAP2 POP POP JUMP JUMPDEST PUSH1 0x0 PUSH1 0x20 DUP3 ADD SWAP1 POP PUSH2 0x210A PUSH1 0x0 DUP4 ADD DUP5 PUSH2 0x1E90 JUMP JUMPDEST SWAP3 SWAP2 POP POP JUMP JUMPDEST PUSH1 0x0 PUSH1 0x80 DUP3 ADD SWAP1 POP PUSH2 0x2125 PUSH1 0x0 DUP4 ADD DUP8 PUSH2 0x1E90 JUMP JUMPDEST PUSH2 0x2132 PUSH1 0x20 DUP4 ADD DUP7 PUSH2 0x1E81 JUMP JUMPDEST PUSH2 0x213F PUSH1 0x40 DUP4 ADD DUP6 PUSH2 0x1E90 JUMP JUMPDEST PUSH2 0x214C PUSH1 0x60 DUP4 ADD DUP5 PUSH2 0x1C1F JUMP JUMPDEST SWAP6 SWAP5 POP POP POP POP POP JUMP JUMPDEST PUSH1 0x0 DUP3 DUP3 MSTORE PUSH1 0x20 DUP3 ADD SWAP1 POP SWAP3 SWAP2 POP POP JUMP JUMPDEST PUSH1 0x0 PUSH2 0x2171 DUP3 PUSH2 0x2308 JUMP JUMPDEST SWAP2 POP PUSH2 0x217C DUP4 PUSH2 0x2308 JUMP JUMPDEST SWAP3 POP DUP3 PUSH32 0xFFFFFFFFFFFFFFFFFFFFFFFFFFFFFFFFFFFFFFFFFFFFFFFFFFFFFFFFFFFFFFFF SUB DUP3 GT ISZERO PUSH2 0x21B1 JUMPI PUSH2 0x21B0 PUSH2 0x236B JUMP JUMPDEST JUMPDEST DUP3 DUP3 ADD SWAP1 POP SWAP3 SWAP2 POP POP JUMP JUMPDEST PUSH1 0x0 PUSH2 0x21C7 DUP3 PUSH2 0x2312 JUMP JUMPDEST SWAP2 POP PUSH2 0x21D2 DUP4 PUSH2 0x2312 JUMP JUMPDEST SWAP3 POP DUP3 PUSH4 0xFFFFFFFF SUB DUP3 GT ISZERO PUSH2 0x21EB JUMPI PUSH2 0x21EA PUSH2 0x236B JUMP JUMPDEST JUMPDEST DUP3 DUP3 ADD SWAP1 POP SWAP3 SWAP2 POP POP JUMP JUMPDEST PUSH1 0x0 PUSH2 0x2201 DUP3 PUSH2 0x2308 JUMP JUMPDEST SWAP2 POP PUSH2 0x220C DUP4 PUSH2 0x2308 JUMP JUMPDEST SWAP3 POP DUP2 PUSH32 0xFFFFFFFFFFFFFFFFFFFFFFFFFFFFFFFFFFFFFFFFFFFFFFFFFFFFFFFFFFFFFFFF DIV DUP4 GT DUP3 ISZERO ISZERO AND ISZERO PUSH2 0x2245 JUMPI PUSH2 0x2244 PUSH2 0x236B JUMP JUMPDEST JUMPDEST DUP3 DUP3 MUL SWAP1 POP SWAP3 SWAP2 POP POP JUMP JUMPDEST PUSH1 0x0 PUSH2 0x225B DUP3 PUSH2 0x2308 JUMP JUMPDEST SWAP2 POP PUSH2 0x2266 DUP4 PUSH2 0x2308 JUMP JUMPDEST SWAP3 POP DUP3 DUP3 LT ISZERO PUSH2 0x2279 JUMPI PUSH2 0x2278 PUSH2 0x236B JUMP JUMPDEST JUMPDEST DUP3 DUP3 SUB SWAP1 POP SWAP3 SWAP2 POP POP JUMP JUMPDEST PUSH1 0x0 PUSH2 0x228F DUP3 PUSH2 0x2312 JUMP JUMPDEST SWAP2 POP PUSH2 0x229A DUP4 PUSH2 0x2312 JUMP JUMPDEST SWAP3 POP DUP3 DUP3 LT ISZERO PUSH2 0x22AD JUMPI PUSH2 0x22AC PUSH2 0x236B JUMP JUMPDEST JUMPDEST DUP3 DUP3 SUB SWAP1 POP SWAP3 SWAP2 POP POP JUMP JUMPDEST PUSH1 0x0 PUSH2 0x22C3 DUP3 PUSH2 0x22E8 JUMP JUMPDEST SWAP1 POP SWAP2 SWAP1 POP JUMP JUMPDEST PUSH1 0x0 PUSH2 0x22D5 DUP3 PUSH2 0x22E8 JUMP JUMPDEST SWAP1 POP SWAP2 SWAP1 POP JUMP JUMPDEST PUSH1 0x0 DUP2 ISZERO ISZERO SWAP1 POP SWAP2 SWAP1 POP JUMP JUMPDEST PUSH1 0x0 PUSH20 0xFFFFFFFFFFFFFFFFFFFFFFFFFFFFFFFFFFFFFFFF DUP3 AND SWAP1 POP SWAP2 SWAP1 POP JUMP JUMPDEST PUSH1 0x0 DUP2 SWAP1 POP SWAP2 SWAP1 POP JUMP JUMPDEST PUSH1 0x0 PUSH4 0xFFFFFFFF DUP3 AND SWAP1 POP SWAP2 SWAP1 POP JUMP JUMPDEST PUSH1 0x0 PUSH2 0x232D DUP3 PUSH2 0x2308 JUMP JUMPDEST SWAP2 POP PUSH32 0xFFFFFFFFFFFFFFFFFFFFFFFFFFFFFFFFFFFFFFFFFFFFFFFFFFFFFFFFFFFFFFFF DUP3 EQ ISZERO PUSH2 0x2360 JUMPI PUSH2 0x235F PUSH2 0x236B JUMP JUMPDEST JUMPDEST PUSH1 0x1 DUP3 ADD SWAP1 POP SWAP2 SWAP1 POP JUMP JUMPDEST PUSH32 0x4E487B7100000000000000000000000000000000000000000000000000000000 PUSH1 0x0 MSTORE PUSH1 0x11 PUSH1 0x4 MSTORE PUSH1 0x24 PUSH1 0x0 REVERT JUMPDEST PUSH32 0x4E487B7100000000000000000000000000000000000000000000000000000000 PUSH1 0x0 MSTORE PUSH1 0x31 PUSH1 0x4 MSTORE PUSH1 0x24 PUSH1 0x0 REVERT JUMPDEST PUSH32 0x4E487B7100000000000000000000000000000000000000000000000000000000 PUSH1 0x0 MSTORE PUSH1 0x32 PUSH1 0x4 MSTORE PUSH1 0x24 PUSH1 0x0 REVERT JUMPDEST PUSH1 0x0 DUP1 REVERT JUMPDEST PUSH32 0x596F752063616E27742077697468647261772066756E647320647572696E6720 PUSH1 0x0 DUP3 ADD MSTORE PUSH32 0x746865206D656574696E672C20626563617573652069742063616E206D616B65 PUSH1 0x20 DUP3 ADD MSTORE PUSH32 0x206469766964656E647320696D706F737369626C6520746F2070617900000000 PUSH1 0x40 DUP3 ADD MSTORE POP JUMP JUMPDEST PUSH32 0x50726F706F73616C2074696D6520666F722074686973206D656574696E672068 PUSH1 0x0 DUP3 ADD MSTORE PUSH32 0x617320656E646564000000000000000000000000000000000000000000000000 PUSH1 0x20 DUP3 ADD MSTORE POP JUMP JUMPDEST PUSH32 0x566F74696E672074696D65206861736E277420636F6D65000000000000000000 PUSH1 0x0 DUP3 ADD MSTORE POP JUMP JUMPDEST PUSH32 0x43616C6C6572206973206E6F742073746F636B686F6C64657200000000000000 PUSH1 0x0 DUP3 ADD MSTORE POP JUMP JUMPDEST PUSH32 0x417474656D7074656420746F20627579206D6F72652073746F636B7320746861 PUSH1 0x0 DUP3 ADD MSTORE PUSH32 0x6E2073656C6C65722069732077696C6C696E6720746F2073656C6C0000000000 PUSH1 0x20 DUP3 ADD MSTORE POP JUMP JUMPDEST PUSH32 0x54686973206469766964656E6420616D6F756E74206861736E2774206265656E PUSH1 0x0 DUP3 ADD MSTORE PUSH32 0x2070726F706F7365640000000000000000000000000000000000000000000000 PUSH1 0x20 DUP3 ADD MSTORE POP JUMP JUMPDEST PUSH32 0x4469766964656E64732063616E206F6E6C792062652070616964206174207468 PUSH1 0x0 DUP3 ADD MSTORE PUSH32 0x6520656E64206F662061206D656574696E670000000000000000000000000000 PUSH1 0x20 DUP3 ADD MSTORE POP JUMP JUMPDEST PUSH32 0x4469766964656E647320706179696E672074696D65206861736E277420636F6D PUSH1 0x0 DUP3 ADD MSTORE PUSH32 0x6500000000000000000000000000000000000000000000000000000000000000 PUSH1 0x20 DUP3 ADD MSTORE POP JUMP JUMPDEST PUSH32 0x566F74696E672074696D6520666F722074686973206D656574696E6720686173 PUSH1 0x0 DUP3 ADD MSTORE PUSH32 0x20656E6465640000000000000000000000000000000000000000000000000000 PUSH1 0x20 DUP3 ADD MSTORE POP JUMP JUMPDEST PUSH32 0x596F752061726520747279696E6720746F206372656174652073656C6C206F72 PUSH1 0x0 DUP3 ADD MSTORE PUSH32 0x64657220666F72206D6F72652073746F636B73207468616E20796F7520686176 PUSH1 0x20 DUP3 ADD MSTORE PUSH32 0x6500000000000000000000000000000000000000000000000000000000000000 PUSH1 0x40 DUP3 ADD MSTORE POP JUMP JUMPDEST PUSH32 0x596F75206469646E27742073656E6420656E6F756768206D6F6E657920746F20 PUSH1 0x0 DUP3 ADD MSTORE PUSH32 0x6275792073746F636B7300000000000000000000000000000000000000000000 PUSH1 0x20 DUP3 ADD MSTORE POP JUMP JUMPDEST PUSH32 0x4D656574696E672074696D65206861736E277420636F6D650000000000000000 PUSH1 0x0 DUP3 ADD MSTORE POP JUMP JUMPDEST PUSH32 0x43616C6C6572206973206E6F74206469726563746F7200000000000000000000 PUSH1 0x0 DUP3 ADD MSTORE POP JUMP JUMPDEST PUSH32 0x416D6F756E74206973206C6172676572207468616E2062616C616E6365000000 PUSH1 0x0 DUP3 ADD MSTORE POP JUMP JUMPDEST PUSH32 0x436F6D70616E7920646F65736E2774206861766520656E6F756768206D6F6E65 PUSH1 0x0 DUP3 ADD MSTORE PUSH32 0x7920746F207061792074686174206C61726765206469766964656E6473000000 PUSH1 0x20 DUP3 ADD MSTORE POP JUMP JUMPDEST PUSH32 0x596F75206861766520616C726561647920766F74656400000000000000000000 PUSH1 0x0 DUP3 ADD MSTORE POP JUMP JUMPDEST PUSH32 0x596F752061726520747279696E6720746F206372656174652073656C6C206F72 PUSH1 0x0 DUP3 ADD MSTORE PUSH32 0x64657220666F72206D6F72652073746F636B73207468616E2074686520636F6D PUSH1 0x20 DUP3 ADD MSTORE PUSH32 0x70616E7920686173000000000000000000000000000000000000000000000000 PUSH1 0x40 DUP3 ADD MSTORE POP JUMP JUMPDEST PUSH2 0x28D3 DUP2 PUSH2 0x22B8 JUMP JUMPDEST DUP2 EQ PUSH2 0x28DE JUMPI PUSH1 0x0 DUP1 REVERT JUMPDEST POP JUMP JUMPDEST PUSH2 0x28EA DUP2 PUSH2 0x22CA JUMP JUMPDEST DUP2 EQ PUSH2 0x28F5 JUMPI PUSH1 0x0 DUP1 REVERT JUMPDEST POP JUMP JUMPDEST PUSH2 0x2901 DUP2 PUSH2 0x2308 JUMP JUMPDEST DUP2 EQ PUSH2 0x290C JUMPI PUSH1 0x0 DUP1 REVERT JUMPDEST POP JUMP JUMPDEST PUSH2 0x2918 DUP2 PUSH2 0x2312 JUMP JUMPDEST DUP2 EQ PUSH2 0x2923 JUMPI PUSH1 0x0 DUP1 REVERT JUMPDEST POP JUMP INVALID LOG2 PUSH5 0x6970667358 0x22 SLT KECCAK256 PUSH30 0x3F9343C2E76BCF041A4FF6A08FC5A8C74DE1F9E54CB1C3E14A8E30E1129C BALANCE PUSH5 0x736F6C6343 STOP ADDMOD SMOD STOP CALLER "
				},
				"gasEstimates": {
					"creation": {
						"codeDepositCost": "2117600",
						"executionCost": "infinite",
						"totalCost": "infinite"
					},
					"external": {
						"buyStocks(address,uint32)": "infinite",
						"companySellOrder(uint256,uint32)": "51637",
						"deposit()": "164",
						"director()": "2600",
						"dividendProposals(uint256)": "2886",
						"makeDividendsProposal(uint256)": "infinite",
						"minTimeToMakeProposals()": "374",
						"payDividends()": "infinite",
						"sellOrder(uint256,uint32)": "49471",
						"stockholders(address)": "infinite",
						"stocksCount()": "2543",
						"timeBetweenMeetings()": "352",
						"timeToVote()": "396",
						"vote(uint256)": "infinite",
						"withdraw(address)": "infinite",
						"withdraw(address,uint256)": "infinite"
					}
				},
				"methodIdentifiers": {
					"buyStocks(address,uint32)": "0a09c554",
					"companySellOrder(uint256,uint32)": "92b80242",
					"deposit()": "d0e30db0",
					"director()": "5af82abf",
					"dividendProposals(uint256)": "1c24c8e8",
					"makeDividendsProposal(uint256)": "b544e611",
					"minTimeToMakeProposals()": "2818d036",
					"payDividends()": "de88a342",
					"sellOrder(uint256,uint32)": "068bb026",
					"stockholders(address)": "1f1dfdca",
					"stocksCount()": "cce54917",
					"timeBetweenMeetings()": "92ac771a",
					"timeToVote()": "945837e2",
					"vote(uint256)": "0121b93f",
					"withdraw(address)": "51cff8d9",
					"withdraw(address,uint256)": "f3fef3a3"
				}
			},
			"storageLayout": {
				"storage": [
					{
						"astId": 21,
						"contract": "smart_contracts/Stocks.sol:Stocks",
						"label": "director",
						"offset": 0,
						"slot": "0",
						"type": "t_address"
					},
					{
						"astId": 23,
						"contract": "smart_contracts/Stocks.sol:Stocks",
						"label": "stocksCount",
						"offset": 20,
						"slot": "0",
						"type": "t_uint32"
					},
					{
						"astId": 25,
						"contract": "smart_contracts/Stocks.sol:Stocks",
						"label": "lastMeetingTime",
						"offset": 0,
						"slot": "1",
						"type": "t_uint256"
					},
					{
						"astId": 27,
						"contract": "smart_contracts/Stocks.sol:Stocks",
						"label": "isMeeting",
						"offset": 0,
						"slot": "2",
						"type": "t_bool"
					},
					{
						"astId": 32,
						"contract": "smart_contracts/Stocks.sol:Stocks",
						"label": "stockholders",
						"offset": 0,
						"slot": "3",
						"type": "t_mapping(t_address,t_struct(Stockholder)10_storage)"
					},
					{
						"astId": 35,
						"contract": "smart_contracts/Stocks.sol:Stocks",
						"label": "stockholderList",
						"offset": 0,
						"slot": "4",
						"type": "t_array(t_address)dyn_storage"
					},
					{
						"astId": 39,
						"contract": "smart_contracts/Stocks.sol:Stocks",
						"label": "dividendProposals",
						"offset": 0,
						"slot": "5",
						"type": "t_mapping(t_uint256,t_uint32)"
					},
					{
						"astId": 42,
						"contract": "smart_contracts/Stocks.sol:Stocks",
						"label": "proposedDividendSizes",
						"offset": 0,
						"slot": "6",
						"type": "t_array(t_uint256)dyn_storage"
					}
				],
				"types": {
					"t_address": {
						"encoding": "inplace",
						"label": "address",
						"numberOfBytes": "20"
					},
					"t_array(t_address)dyn_storage": {
						"base": "t_address",
						"encoding": "dynamic_array",
						"label": "address[]",
						"numberOfBytes": "32"
					},
					"t_array(t_uint256)dyn_storage": {
						"base": "t_uint256",
						"encoding": "dynamic_array",
						"label": "uint256[]",
						"numberOfBytes": "32"
					},
					"t_bool": {
						"encoding": "inplace",
						"label": "bool",
						"numberOfBytes": "1"
					},
					"t_mapping(t_address,t_struct(Stockholder)10_storage)": {
						"encoding": "mapping",
						"key": "t_address",
						"label": "mapping(address => struct Stocks.Stockholder)",
						"numberOfBytes": "32",
						"value": "t_struct(Stockholder)10_storage"
					},
					"t_mapping(t_uint256,t_uint32)": {
						"encoding": "mapping",
						"key": "t_uint256",
						"label": "mapping(uint256 => uint32)",
						"numberOfBytes": "32",
						"value": "t_uint32"
					},
					"t_struct(Stockholder)10_storage": {
						"encoding": "inplace",
						"label": "struct Stocks.Stockholder",
						"members": [
							{
								"astId": 3,
								"contract": "smart_contracts/Stocks.sol:Stocks",
								"label": "stocksCount",
								"offset": 0,
								"slot": "0",
								"type": "t_uint32"
							},
							{
								"astId": 5,
								"contract": "smart_contracts/Stocks.sol:Stocks",
								"label": "sellPrice",
								"offset": 0,
								"slot": "1",
								"type": "t_uint256"
							},
							{
								"astId": 7,
								"contract": "smart_contracts/Stocks.sol:Stocks",
								"label": "sellCount",
								"offset": 0,
								"slot": "2",
								"type": "t_uint32"
							},
							{
								"astId": 9,
								"contract": "smart_contracts/Stocks.sol:Stocks",
								"label": "voted",
								"offset": 4,
								"slot": "2",
								"type": "t_bool"
							}
						],
						"numberOfBytes": "96"
					},
					"t_uint256": {
						"encoding": "inplace",
						"label": "uint256",
						"numberOfBytes": "32"
					},
					"t_uint32": {
						"encoding": "inplace",
						"label": "uint32",
						"numberOfBytes": "4"
					}
				}
			},
			"userdoc": {
				"kind": "user",
				"methods": {},
				"version": 1
			}
		}
	}
}