{
  "contractName": "Stocks",
  "abi": [
    {
      "inputs": [
        {
          "internalType": "uint32",
          "name": "_stocksCount",
          "type": "uint32"
        },
        {
          "internalType": "string",
          "name": "_name",
          "type": "string"
        }
      ],
      "stateMutability": "nonpayable",
      "type": "constructor"
    },
    {
      "inputs": [],
      "name": "director",
      "outputs": [
        {
          "internalType": "address",
          "name": "",
          "type": "address"
        }
      ],
      "stateMutability": "view",
      "type": "function"
    },
    {
      "inputs": [
        {
          "internalType": "uint256",
          "name": "",
          "type": "uint256"
        }
      ],
      "name": "dividendProposals",
      "outputs": [
        {
          "internalType": "uint32",
          "name": "",
          "type": "uint32"
        }
      ],
      "stateMutability": "view",
      "type": "function"
    },
    {
      "inputs": [],
      "name": "isMeeting",
      "outputs": [
        {
          "internalType": "bool",
          "name": "",
          "type": "bool"
        }
      ],
      "stateMutability": "view",
      "type": "function"
    },
    {
      "inputs": [],
      "name": "lastMeetingTime",
      "outputs": [
        {
          "internalType": "uint256",
          "name": "",
          "type": "uint256"
        }
      ],
      "stateMutability": "view",
      "type": "function"
    },
    {
      "inputs": [],
      "name": "minTimeToMakeProposals",
      "outputs": [
        {
          "internalType": "uint256",
          "name": "",
          "type": "uint256"
        }
      ],
      "stateMutability": "view",
      "type": "function"
    },
    {
      "inputs": [],
      "name": "name",
      "outputs": [
        {
          "internalType": "string",
          "name": "",
          "type": "string"
        }
      ],
      "stateMutability": "view",
      "type": "function"
    },
    {
      "inputs": [
        {
          "internalType": "uint256",
          "name": "",
          "type": "uint256"
        }
      ],
      "name": "proposedDividendSizes",
      "outputs": [
        {
          "internalType": "uint256",
          "name": "",
          "type": "uint256"
        }
      ],
      "stateMutability": "view",
      "type": "function"
    },
    {
      "inputs": [
        {
          "internalType": "uint256",
          "name": "",
          "type": "uint256"
        }
      ],
      "name": "stockholderList",
      "outputs": [
        {
          "internalType": "address",
          "name": "",
          "type": "address"
        }
      ],
      "stateMutability": "view",
      "type": "function"
    },
    {
      "inputs": [
        {
          "internalType": "address",
          "name": "",
          "type": "address"
        }
      ],
      "name": "stockholders",
      "outputs": [
        {
          "internalType": "uint32",
          "name": "stocksCount",
          "type": "uint32"
        },
        {
          "internalType": "uint256",
          "name": "sellPrice",
          "type": "uint256"
        },
        {
          "internalType": "uint32",
          "name": "sellCount",
          "type": "uint32"
        },
        {
          "internalType": "bool",
          "name": "voted",
          "type": "bool"
        }
      ],
      "stateMutability": "view",
      "type": "function"
    },
    {
      "inputs": [],
      "name": "stocksCount",
      "outputs": [
        {
          "internalType": "uint32",
          "name": "",
          "type": "uint32"
        }
      ],
      "stateMutability": "view",
      "type": "function"
    },
    {
      "inputs": [],
      "name": "timeBetweenMeetings",
      "outputs": [
        {
          "internalType": "uint256",
          "name": "",
          "type": "uint256"
        }
      ],
      "stateMutability": "view",
      "type": "function"
    },
    {
      "inputs": [],
      "name": "timeToVote",
      "outputs": [
        {
          "internalType": "uint256",
          "name": "",
          "type": "uint256"
        }
      ],
      "stateMutability": "view",
      "type": "function"
    },
    {
      "inputs": [],
      "name": "deposit",
      "outputs": [],
      "stateMutability": "payable",
      "type": "function"
    },
    {
      "inputs": [
        {
          "internalType": "address payable",
          "name": "targetAddress",
          "type": "address"
        }
      ],
      "name": "withdraw",
      "outputs": [],
      "stateMutability": "nonpayable",
      "type": "function"
    },
    {
      "inputs": [
        {
          "internalType": "address payable",
          "name": "targetAddress",
          "type": "address"
        },
        {
          "internalType": "uint256",
          "name": "amount",
          "type": "uint256"
        }
      ],
      "name": "withdraw",
      "outputs": [],
      "stateMutability": "nonpayable",
      "type": "function"
    },
    {
      "inputs": [
        {
          "internalType": "uint256",
          "name": "sellPrice",
          "type": "uint256"
        },
        {
          "internalType": "uint32",
          "name": "sellCount",
          "type": "uint32"
        }
      ],
      "name": "sellOrder",
      "outputs": [],
      "stateMutability": "nonpayable",
      "type": "function"
    },
    {
      "inputs": [
        {
          "internalType": "uint256",
          "name": "sellPrice",
          "type": "uint256"
        },
        {
          "internalType": "uint32",
          "name": "sellCount",
          "type": "uint32"
        }
      ],
      "name": "companySellOrder",
      "outputs": [],
      "stateMutability": "nonpayable",
      "type": "function"
    },
    {
      "inputs": [
        {
          "internalType": "address payable",
          "name": "sellerStockholder",
          "type": "address"
        },
        {
          "internalType": "uint32",
          "name": "buyCount",
          "type": "uint32"
        }
      ],
      "name": "buyStocks",
      "outputs": [],
      "stateMutability": "payable",
      "type": "function"
    },
    {
      "inputs": [
        {
          "internalType": "uint256",
          "name": "dividendSize",
          "type": "uint256"
        }
      ],
      "name": "makeDividendsProposal",
      "outputs": [],
      "stateMutability": "nonpayable",
      "type": "function"
    },
    {
      "inputs": [
        {
          "internalType": "uint256",
          "name": "dividendSize",
          "type": "uint256"
        }
      ],
      "name": "vote",
      "outputs": [],
      "stateMutability": "nonpayable",
      "type": "function"
    },
    {
      "inputs": [],
      "name": "payDividends",
      "outputs": [],
      "stateMutability": "nonpayable",
      "type": "function"
    }
  ],
  "bytecode": "0x60806040523480156200001157600080fd5b50604051620033ff380380620033ff833981810160405281019062000037919062000413565b33600160006101000a81548173ffffffffffffffffffffffffffffffffffffffff021916908373ffffffffffffffffffffffffffffffffffffffff16021790555081600160146101000a81548163ffffffff021916908363ffffffff1602179055508060009080519060200190620000b192919062000185565b5081600460003073ffffffffffffffffffffffffffffffffffffffff1673ffffffffffffffffffffffffffffffffffffffff16815260200190815260200160002060000160006101000a81548163ffffffff021916908363ffffffff160217905550426002819055506005309080600181540180825580915050600190039060005260206000200160009091909190916101000a81548173ffffffffffffffffffffffffffffffffffffffff021916908373ffffffffffffffffffffffffffffffffffffffff1602179055505050620004dd565b8280546200019390620004a8565b90600052602060002090601f016020900481019282620001b7576000855562000203565b82601f10620001d257805160ff191683800117855562000203565b8280016001018555821562000203579182015b8281111562000202578251825591602001919060010190620001e5565b5b50905062000212919062000216565b5090565b5b808211156200023157600081600090555060010162000217565b5090565b6000604051905090565b600080fd5b600080fd5b600063ffffffff82169050919050565b620002648162000249565b81146200027057600080fd5b50565b600081519050620002848162000259565b92915050565b600080fd5b600080fd5b6000601f19601f8301169050919050565b7f4e487b7100000000000000000000000000000000000000000000000000000000600052604160045260246000fd5b620002df8262000294565b810181811067ffffffffffffffff82111715620003015762000300620002a5565b5b80604052505050565b60006200031662000235565b9050620003248282620002d4565b919050565b600067ffffffffffffffff821115620003475762000346620002a5565b5b620003528262000294565b9050602081019050919050565b60005b838110156200037f57808201518184015260208101905062000362565b838111156200038f576000848401525b50505050565b6000620003ac620003a68462000329565b6200030a565b905082815260208101848484011115620003cb57620003ca6200028f565b5b620003d88482856200035f565b509392505050565b600082601f830112620003f857620003f76200028a565b5b81516200040a84826020860162000395565b91505092915050565b600080604083850312156200042d576200042c6200023f565b5b60006200043d8582860162000273565b925050602083015167ffffffffffffffff81111562000461576200046062000244565b5b6200046f85828601620003e0565b9150509250929050565b7f4e487b7100000000000000000000000000000000000000000000000000000000600052602260045260246000fd5b60006002820490506001821680620004c157607f821691505b602082108103620004d757620004d662000479565b5b50919050565b612f1280620004ed6000396000f3fe60806040526004361061012a5760003560e01c80635af82abf116100ab578063bdf39a071161006f578063bdf39a07146103e6578063cce5491714610411578063d0e30db01461043c578063dae896cf14610446578063de88a34214610471578063f3fef3a3146104885761012a565b80635af82abf1461031357806392ac771a1461033e57806392b8024214610369578063945837e214610392578063b544e611146103bd5761012a565b80631f1dfdca116100f25780631f1dfdca146102055780632818d036146102455780633342a52d1461027057806351cff8d9146102ad57806354413d41146102d65761012a565b80630121b93f1461012f578063068bb0261461015857806306fdde03146101815780630a09c554146101ac5780631c24c8e8146101c8575b600080fd5b34801561013b57600080fd5b5061015660048036038101906101519190611f42565b6104b1565b005b34801561016457600080fd5b5061017f600480360381019061017a9190611fab565b61080c565b005b34801561018d57600080fd5b50610196610959565b6040516101a39190612084565b60405180910390f35b6101c660048036038101906101c19190612104565b6109e7565b005b3480156101d457600080fd5b506101ef60048036038101906101ea9190611f42565b61118e565b6040516101fc9190612153565b60405180910390f35b34801561021157600080fd5b5061022c600480360381019061022791906121ac565b6111b1565b60405161023c9493929190612203565b60405180910390f35b34801561025157600080fd5b5061025a61120e565b6040516102679190612248565b60405180910390f35b34801561027c57600080fd5b5061029760048036038101906102929190611f42565b611213565b6040516102a49190612248565b60405180910390f35b3480156102b957600080fd5b506102d460048036038101906102cf9190612263565b611237565b005b3480156102e257600080fd5b506102fd60048036038101906102f89190611f42565b611361565b60405161030a919061229f565b60405180910390f35b34801561031f57600080fd5b506103286113a0565b604051610335919061229f565b60405180910390f35b34801561034a57600080fd5b506103536113c6565b6040516103609190612248565b60405180910390f35b34801561037557600080fd5b50610390600480360381019061038b9190611fab565b6113cb565b005b34801561039e57600080fd5b506103a76115a8565b6040516103b49190612248565b60405180910390f35b3480156103c957600080fd5b506103e460048036038101906103df9190611f42565b6115ad565b005b3480156103f257600080fd5b506103fb611828565b60405161040891906122ba565b60405180910390f35b34801561041d57600080fd5b5061042661183b565b6040516104339190612153565b60405180910390f35b610444611851565b005b34801561045257600080fd5b5061045b611853565b6040516104689190612248565b60405180910390f35b34801561047d57600080fd5b50610486611859565b005b34801561049457600080fd5b506104af60048036038101906104aa91906122d5565b611d59565b005b6000600460003373ffffffffffffffffffffffffffffffffffffffff1673ffffffffffffffffffffffffffffffffffffffff16815260200190815260200160002060000160009054906101000a900463ffffffff1663ffffffff160361054c576040517f08c379a000000000000000000000000000000000000000000000000000000000815260040161054390612361565b60405180910390fd5b600460003373ffffffffffffffffffffffffffffffffffffffff1673ffffffffffffffffffffffffffffffffffffffff16815260200190815260200160002060020160049054906101000a900460ff16156105dc576040517f08c379a00000000000000000000000000000000000000000000000000000000081526004016105d3906123cd565b60405180910390fd5b60006006600083815260200190815260200160002060009054906101000a900463ffffffff1663ffffffff1611610648576040517f08c379a000000000000000000000000000000000000000000000000000000000815260040161063f9061245f565b60405180910390fd5b42607860b460025461065a91906124ae565b61066491906124ae565b106106a4576040517f08c379a000000000000000000000000000000000000000000000000000000000815260040161069b90612550565b60405180910390fd5b4260788060b46002546106b791906124ae565b6106c191906124ae565b6106cb91906124ae565b101561070c576040517f08c379a0000000000000000000000000000000000000000000000000000000008152600401610703906125e2565b60405180910390fd5b6001600460003373ffffffffffffffffffffffffffffffffffffffff1673ffffffffffffffffffffffffffffffffffffffff16815260200190815260200160002060020160046101000a81548160ff021916908315150217905550600460003373ffffffffffffffffffffffffffffffffffffffff1673ffffffffffffffffffffffffffffffffffffffff16815260200190815260200160002060000160009054906101000a900463ffffffff166006600083815260200190815260200160002060008282829054906101000a900463ffffffff166107eb9190612602565b92506101000a81548163ffffffff021916908363ffffffff16021790555050565b8063ffffffff16600460003373ffffffffffffffffffffffffffffffffffffffff1673ffffffffffffffffffffffffffffffffffffffff16815260200190815260200160002060000160009054906101000a900463ffffffff1663ffffffff1610156108ad576040517f08c379a00000000000000000000000000000000000000000000000000000000081526004016108a4906126d4565b60405180910390fd5b81600460003373ffffffffffffffffffffffffffffffffffffffff1673ffffffffffffffffffffffffffffffffffffffff1681526020019081526020016000206001018190555080600460003373ffffffffffffffffffffffffffffffffffffffff1673ffffffffffffffffffffffffffffffffffffffff16815260200190815260200160002060020160006101000a81548163ffffffff021916908363ffffffff1602179055505050565b6000805461096690612723565b80601f016020809104026020016040519081016040528092919081815260200182805461099290612723565b80156109df5780601f106109b4576101008083540402835291602001916109df565b820191906000526020600020905b8154815290600101906020018083116109c257829003601f168201915b505050505081565b8063ffffffff16600460008473ffffffffffffffffffffffffffffffffffffffff1673ffffffffffffffffffffffffffffffffffffffff16815260200190815260200160002060020160009054906101000a900463ffffffff1663ffffffff161015610a88576040517f08c379a0000000000000000000000000000000000000000000000000000000008152600401610a7f906127c6565b60405180910390fd5b8063ffffffff16600460008473ffffffffffffffffffffffffffffffffffffffff1673ffffffffffffffffffffffffffffffffffffffff16815260200190815260200160002060010154610adc91906127e6565b341015610b1e576040517f08c379a0000000000000000000000000000000000000000000000000000000008152600401610b15906128b2565b60405180910390fd5b60008163ffffffff16600460008573ffffffffffffffffffffffffffffffffffffffff1673ffffffffffffffffffffffffffffffffffffffff16815260200190815260200160002060010154610b7491906127e6565b905081600460008573ffffffffffffffffffffffffffffffffffffffff1673ffffffffffffffffffffffffffffffffffffffff16815260200190815260200160002060020160008282829054906101000a900463ffffffff16610bd791906128d2565b92506101000a81548163ffffffff021916908363ffffffff16021790555081600460008573ffffffffffffffffffffffffffffffffffffffff1673ffffffffffffffffffffffffffffffffffffffff16815260200190815260200160002060000160008282829054906101000a900463ffffffff16610c5691906128d2565b92506101000a81548163ffffffff021916908363ffffffff1602179055506000600460008573ffffffffffffffffffffffffffffffffffffffff1673ffffffffffffffffffffffffffffffffffffffff16815260200190815260200160002060000160009054906101000a900463ffffffff1663ffffffff1603610f45576000805b600580549050811015610d71578473ffffffffffffffffffffffffffffffffffffffff1660058281548110610d1057610d0f612906565b5b9060005260206000200160009054906101000a900473ffffffffffffffffffffffffffffffffffffffff1673ffffffffffffffffffffffffffffffffffffffff1603610d5e57809150610d71565b8080610d6990612935565b915050610cd8565b5060056001600580549050610d86919061297d565b81548110610d9757610d96612906565b5b9060005260206000200160009054906101000a900473ffffffffffffffffffffffffffffffffffffffff1660058281548110610dd657610dd5612906565b5b9060005260206000200160006101000a81548173ffffffffffffffffffffffffffffffffffffffff021916908373ffffffffffffffffffffffffffffffffffffffff16021790555060056001600580549050610e32919061297d565b81548110610e4357610e42612906565b5b9060005260206000200160006101000a81549073ffffffffffffffffffffffffffffffffffffffff02191690556005805480610e8257610e816129b1565b5b6001900381819060005260206000200160006101000a81549073ffffffffffffffffffffffffffffffffffffffff02191690559055600460008573ffffffffffffffffffffffffffffffffffffffff1673ffffffffffffffffffffffffffffffffffffffff168152602001908152602001600020600080820160006101000a81549063ffffffff021916905560018201600090556002820160006101000a81549063ffffffff02191690556002820160046101000a81549060ff02191690555050505b6000600460003373ffffffffffffffffffffffffffffffffffffffff1673ffffffffffffffffffffffffffffffffffffffff16815260200190815260200160002060000160009054906101000a900463ffffffff1663ffffffff1603611009576005339080600181540180825580915050600190039060005260206000200160009091909190916101000a81548173ffffffffffffffffffffffffffffffffffffffff021916908373ffffffffffffffffffffffffffffffffffffffff1602179055505b81600460003373ffffffffffffffffffffffffffffffffffffffff1673ffffffffffffffffffffffffffffffffffffffff16815260200190815260200160002060000160008282829054906101000a900463ffffffff1661106a9190612602565b92506101000a81548163ffffffff021916908363ffffffff1602179055503073ffffffffffffffffffffffffffffffffffffffff168373ffffffffffffffffffffffffffffffffffffffff1614611103578273ffffffffffffffffffffffffffffffffffffffff166108fc829081150290604051600060405180830381858888f19350505050158015611101573d6000803e3d6000fd5b505b3073ffffffffffffffffffffffffffffffffffffffff163373ffffffffffffffffffffffffffffffffffffffff1614611189573373ffffffffffffffffffffffffffffffffffffffff166108fc823461115c919061297d565b9081150290604051600060405180830381858888f19350505050158015611187573d6000803e3d6000fd5b505b505050565b60066020528060005260406000206000915054906101000a900463ffffffff1681565b60046020528060005260406000206000915090508060000160009054906101000a900463ffffffff16908060010154908060020160009054906101000a900463ffffffff16908060020160049054906101000a900460ff16905084565b607881565b6007818154811061122357600080fd5b906000526020600020016000915090505481565b600160009054906101000a900473ffffffffffffffffffffffffffffffffffffffff1673ffffffffffffffffffffffffffffffffffffffff163373ffffffffffffffffffffffffffffffffffffffff16146112c7576040517f08c379a00000000000000000000000000000000000000000000000000000000081526004016112be90612a2c565b60405180910390fd5b600360009054906101000a900460ff1615611317576040517f08c379a000000000000000000000000000000000000000000000000000000000815260040161130e90612ae4565b60405180910390fd5b8073ffffffffffffffffffffffffffffffffffffffff166108fc479081150290604051600060405180830381858888f1935050505015801561135d573d6000803e3d6000fd5b5050565b6005818154811061137157600080fd5b906000526020600020016000915054906101000a900473ffffffffffffffffffffffffffffffffffffffff1681565b600160009054906101000a900473ffffffffffffffffffffffffffffffffffffffff1681565b60b481565b600160009054906101000a900473ffffffffffffffffffffffffffffffffffffffff1673ffffffffffffffffffffffffffffffffffffffff163373ffffffffffffffffffffffffffffffffffffffff161461145b576040517f08c379a000000000000000000000000000000000000000000000000000000000815260040161145290612a2c565b60405180910390fd5b8063ffffffff16600460003073ffffffffffffffffffffffffffffffffffffffff1673ffffffffffffffffffffffffffffffffffffffff16815260200190815260200160002060000160009054906101000a900463ffffffff1663ffffffff1610156114fc576040517f08c379a00000000000000000000000000000000000000000000000000000000081526004016114f390612b9c565b60405180910390fd5b81600460003073ffffffffffffffffffffffffffffffffffffffff1673ffffffffffffffffffffffffffffffffffffffff1681526020019081526020016000206001018190555080600460003073ffffffffffffffffffffffffffffffffffffffff1673ffffffffffffffffffffffffffffffffffffffff16815260200190815260200160002060020160006101000a81548163ffffffff021916908363ffffffff1602179055505050565b607881565b6000600460003373ffffffffffffffffffffffffffffffffffffffff1673ffffffffffffffffffffffffffffffffffffffff16815260200190815260200160002060000160009054906101000a900463ffffffff1663ffffffff1603611648576040517f08c379a000000000000000000000000000000000000000000000000000000000815260040161163f90612361565b60405180910390fd5b42607860b460025461165a91906124ae565b61166491906124ae565b10801561167657506000600780549050145b1561169b57607860b44261168a919061297d565b611694919061297d565b6002819055505b42607860b46002546116ad91906124ae565b6116b791906124ae565b10156116f8576040517f08c379a00000000000000000000000000000000000000000000000000000000081526004016116ef90612c2e565b60405180910390fd5b4260b460025461170891906124ae565b10611748576040517f08c379a000000000000000000000000000000000000000000000000000000000815260040161173f90612c9a565b60405180910390fd5b47600160149054906101000a900463ffffffff1663ffffffff168261176d91906127e6565b11156117ae576040517f08c379a00000000000000000000000000000000000000000000000000000000081526004016117a590612d2c565b60405180910390fd5b6001600360006101000a81548160ff02191690831515021790555060016006600083815260200190815260200160002060006101000a81548163ffffffff021916908363ffffffff160217905550600781908060018154018082558091505060019003906000526020600020016000909190919091505550565b600360009054906101000a900460ff1681565b600160149054906101000a900463ffffffff1681565b565b60025481565b6000600460003373ffffffffffffffffffffffffffffffffffffffff1673ffffffffffffffffffffffffffffffffffffffff16815260200190815260200160002060000160009054906101000a900463ffffffff1663ffffffff16036118f4576040517f08c379a00000000000000000000000000000000000000000000000000000000081526004016118eb90612361565b60405180910390fd5b4260788060b460025461190791906124ae565b61191191906124ae565b61191b91906124ae565b1061195b576040517f08c379a000000000000000000000000000000000000000000000000000000000815260040161195290612dbe565b60405180910390fd5b600360009054906101000a900460ff166119aa576040517f08c379a00000000000000000000000000000000000000000000000000000000081526004016119a190612e50565b60405180910390fd5b60008060005b600780549050811015611acf578263ffffffff1660066000600784815481106119dc576119db612906565b5b9060005260206000200154815260200190815260200160002060009054906101000a900463ffffffff1663ffffffff161115611a78576006600060078381548110611a2a57611a29612906565b5b9060005260206000200154815260200190815260200160002060009054906101000a900463ffffffff16925060078181548110611a6a57611a69612906565b5b906000526020600020015491505b6006600060078381548110611a9057611a8f612906565b5b9060005260206000200154815260200190815260200160002060006101000a81549063ffffffff02191690558080611ac790612935565b9150506119b0565b5060076000611ade9190611ec9565b60005b600580549050811015611d325760006004600060058481548110611b0857611b07612906565b5b9060005260206000200160009054906101000a900473ffffffffffffffffffffffffffffffffffffffff1673ffffffffffffffffffffffffffffffffffffffff1673ffffffffffffffffffffffffffffffffffffffff16815260200190815260200160002060020160046101000a81548160ff0219169083151502179055503073ffffffffffffffffffffffffffffffffffffffff1660058281548110611bb257611bb1612906565b5b9060005260206000200160009054906101000a900473ffffffffffffffffffffffffffffffffffffffff1673ffffffffffffffffffffffffffffffffffffffff1614611d1f5760058181548110611c0c57611c0b612906565b5b9060005260206000200160009054906101000a900473ffffffffffffffffffffffffffffffffffffffff1673ffffffffffffffffffffffffffffffffffffffff166108fc6004600060058581548110611c6857611c67612906565b5b9060005260206000200160009054906101000a900473ffffffffffffffffffffffffffffffffffffffff1673ffffffffffffffffffffffffffffffffffffffff1673ffffffffffffffffffffffffffffffffffffffff16815260200190815260200160002060000160009054906101000a900463ffffffff1663ffffffff1684611cf291906127e6565b9081150290604051600060405180830381858888f19350505050158015611d1d573d6000803e3d6000fd5b505b8080611d2a90612935565b915050611ae1565b50426002819055506000600360006101000a81548160ff0219169083151502179055505050565b600160009054906101000a900473ffffffffffffffffffffffffffffffffffffffff1673ffffffffffffffffffffffffffffffffffffffff163373ffffffffffffffffffffffffffffffffffffffff1614611de9576040517f08c379a0000000000000000000000000000000000000000000000000000000008152600401611de090612a2c565b60405180910390fd5b8080471015611e2d576040517f08c379a0000000000000000000000000000000000000000000000000000000008152600401611e2490612ebc565b60405180910390fd5b600360009054906101000a900460ff1615611e7d576040517f08c379a0000000000000000000000000000000000000000000000000000000008152600401611e7490612ae4565b60405180910390fd5b8273ffffffffffffffffffffffffffffffffffffffff166108fc839081150290604051600060405180830381858888f19350505050158015611ec3573d6000803e3d6000fd5b50505050565b5080546000825590600052602060002090810190611ee79190611eea565b50565b5b80821115611f03576000816000905550600101611eeb565b5090565b600080fd5b6000819050919050565b611f1f81611f0c565b8114611f2a57600080fd5b50565b600081359050611f3c81611f16565b92915050565b600060208284031215611f5857611f57611f07565b5b6000611f6684828501611f2d565b91505092915050565b600063ffffffff82169050919050565b611f8881611f6f565b8114611f9357600080fd5b50565b600081359050611fa581611f7f565b92915050565b60008060408385031215611fc257611fc1611f07565b5b6000611fd085828601611f2d565b9250506020611fe185828601611f96565b9150509250929050565b600081519050919050565b600082825260208201905092915050565b60005b8381101561202557808201518184015260208101905061200a565b83811115612034576000848401525b50505050565b6000601f19601f8301169050919050565b600061205682611feb565b6120608185611ff6565b9350612070818560208601612007565b6120798161203a565b840191505092915050565b6000602082019050818103600083015261209e818461204b565b905092915050565b600073ffffffffffffffffffffffffffffffffffffffff82169050919050565b60006120d1826120a6565b9050919050565b6120e1816120c6565b81146120ec57600080fd5b50565b6000813590506120fe816120d8565b92915050565b6000806040838503121561211b5761211a611f07565b5b6000612129858286016120ef565b925050602061213a85828601611f96565b9150509250929050565b61214d81611f6f565b82525050565b60006020820190506121686000830184612144565b92915050565b6000612179826120a6565b9050919050565b6121898161216e565b811461219457600080fd5b50565b6000813590506121a681612180565b92915050565b6000602082840312156121c2576121c1611f07565b5b60006121d084828501612197565b91505092915050565b6121e281611f0c565b82525050565b60008115159050919050565b6121fd816121e8565b82525050565b60006080820190506122186000830187612144565b61222560208301866121d9565b6122326040830185612144565b61223f60608301846121f4565b95945050505050565b600060208201905061225d60008301846121d9565b92915050565b60006020828403121561227957612278611f07565b5b6000612287848285016120ef565b91505092915050565b6122998161216e565b82525050565b60006020820190506122b46000830184612290565b92915050565b60006020820190506122cf60008301846121f4565b92915050565b600080604083850312156122ec576122eb611f07565b5b60006122fa858286016120ef565b925050602061230b85828601611f2d565b9150509250929050565b7f43616c6c6572206973206e6f742073746f636b686f6c64657200000000000000600082015250565b600061234b601983611ff6565b915061235682612315565b602082019050919050565b6000602082019050818103600083015261237a8161233e565b9050919050565b7f596f75206861766520616c726561647920766f74656400000000000000000000600082015250565b60006123b7601683611ff6565b91506123c282612381565b602082019050919050565b600060208201905081810360008301526123e6816123aa565b9050919050565b7f54686973206469766964656e6420616d6f756e74206861736e2774206265656e60008201527f2070726f706f7365640000000000000000000000000000000000000000000000602082015250565b6000612449602983611ff6565b9150612454826123ed565b604082019050919050565b600060208201905081810360008301526124788161243c565b9050919050565b7f4e487b7100000000000000000000000000000000000000000000000000000000600052601160045260246000fd5b60006124b982611f0c565b91506124c483611f0c565b9250827fffffffffffffffffffffffffffffffffffffffffffffffffffffffffffffffff038211156124f9576124f861247f565b5b828201905092915050565b7f566f74696e672074696d65206861736e277420636f6d65000000000000000000600082015250565b600061253a601783611ff6565b915061254582612504565b602082019050919050565b600060208201905081810360008301526125698161252d565b9050919050565b7f566f74696e672074696d6520666f722074686973206d656574696e672068617360008201527f20656e6465640000000000000000000000000000000000000000000000000000602082015250565b60006125cc602683611ff6565b91506125d782612570565b604082019050919050565b600060208201905081810360008301526125fb816125bf565b9050919050565b600061260d82611f6f565b915061261883611f6f565b92508263ffffffff038211156126315761263061247f565b5b828201905092915050565b7f596f752061726520747279696e6720746f206372656174652073656c6c206f7260008201527f64657220666f72206d6f72652073746f636b73207468616e20796f752068617660208201527f6500000000000000000000000000000000000000000000000000000000000000604082015250565b60006126be604183611ff6565b91506126c98261263c565b606082019050919050565b600060208201905081810360008301526126ed816126b1565b9050919050565b7f4e487b7100000000000000000000000000000000000000000000000000000000600052602260045260246000fd5b6000600282049050600182168061273b57607f821691505b60208210810361274e5761274d6126f4565b5b50919050565b7f417474656d7074656420746f20627579206d6f72652073746f636b732074686160008201527f6e2073656c6c65722069732077696c6c696e6720746f2073656c6c0000000000602082015250565b60006127b0603b83611ff6565b91506127bb82612754565b604082019050919050565b600060208201905081810360008301526127df816127a3565b9050919050565b60006127f182611f0c565b91506127fc83611f0c565b9250817fffffffffffffffffffffffffffffffffffffffffffffffffffffffffffffffff04831182151516156128355761283461247f565b5b828202905092915050565b7f596f75206469646e27742073656e6420656e6f756768206d6f6e657920746f2060008201527f6275792073746f636b7300000000000000000000000000000000000000000000602082015250565b600061289c602a83611ff6565b91506128a782612840565b604082019050919050565b600060208201905081810360008301526128cb8161288f565b9050919050565b60006128dd82611f6f565b91506128e883611f6f565b9250828210156128fb576128fa61247f565b5b828203905092915050565b7f4e487b7100000000000000000000000000000000000000000000000000000000600052603260045260246000fd5b600061294082611f0c565b91507fffffffffffffffffffffffffffffffffffffffffffffffffffffffffffffffff82036129725761297161247f565b5b600182019050919050565b600061298882611f0c565b915061299383611f0c565b9250828210156129a6576129a561247f565b5b828203905092915050565b7f4e487b7100000000000000000000000000000000000000000000000000000000600052603160045260246000fd5b7f43616c6c6572206973206e6f74206469726563746f7200000000000000000000600082015250565b6000612a16601683611ff6565b9150612a21826129e0565b602082019050919050565b60006020820190508181036000830152612a4581612a09565b9050919050565b7f596f752063616e27742077697468647261772066756e647320647572696e672060008201527f746865206d656574696e672c20626563617573652069742063616e206d616b6560208201527f206469766964656e647320696d706f737369626c6520746f2070617900000000604082015250565b6000612ace605c83611ff6565b9150612ad982612a4c565b606082019050919050565b60006020820190508181036000830152612afd81612ac1565b9050919050565b7f596f752061726520747279696e6720746f206372656174652073656c6c206f7260008201527f64657220666f72206d6f72652073746f636b73207468616e2074686520636f6d60208201527f70616e7920686173000000000000000000000000000000000000000000000000604082015250565b6000612b86604883611ff6565b9150612b9182612b04565b606082019050919050565b60006020820190508181036000830152612bb581612b79565b9050919050565b7f50726f706f73616c2074696d6520666f722074686973206d656574696e67206860008201527f617320656e646564000000000000000000000000000000000000000000000000602082015250565b6000612c18602883611ff6565b9150612c2382612bbc565b604082019050919050565b60006020820190508181036000830152612c4781612c0b565b9050919050565b7f4d656574696e672074696d65206861736e277420636f6d650000000000000000600082015250565b6000612c84601883611ff6565b9150612c8f82612c4e565b602082019050919050565b60006020820190508181036000830152612cb381612c77565b9050919050565b7f436f6d70616e7920646f65736e2774206861766520656e6f756768206d6f6e6560008201527f7920746f207061792074686174206c61726765206469766964656e6473000000602082015250565b6000612d16603d83611ff6565b9150612d2182612cba565b604082019050919050565b60006020820190508181036000830152612d4581612d09565b9050919050565b7f4469766964656e647320706179696e672074696d65206861736e277420636f6d60008201527f6500000000000000000000000000000000000000000000000000000000000000602082015250565b6000612da8602183611ff6565b9150612db382612d4c565b604082019050919050565b60006020820190508181036000830152612dd781612d9b565b9050919050565b7f4469766964656e64732063616e206f6e6c79206265207061696420617420746860008201527f6520656e64206f662061206d656574696e670000000000000000000000000000602082015250565b6000612e3a603283611ff6565b9150612e4582612dde565b604082019050919050565b60006020820190508181036000830152612e6981612e2d565b9050919050565b7f416d6f756e74206973206c6172676572207468616e2062616c616e6365000000600082015250565b6000612ea6601d83611ff6565b9150612eb182612e70565b602082019050919050565b60006020820190508181036000830152612ed581612e99565b905091905056fea264697066735822122023f1562cdf88c3ecbbe1b8e30945e92fffa1aceae5ae259aa8155f29755b602b64736f6c634300080d0033",
  "immutableReferences": {},
  "source": "// SPDX-License-Identifier: MIT\r\n\r\npragma solidity >=0.7.0 <0.9.0;\r\n\r\n/*\r\n   .\r\n,    ,        sellOrder().\r\n         companySellOrder().\r\n      .\r\n     1   .    ,   -.\r\n,    ,  ,     ,      .\r\n*/\r\n\r\n\r\n/*\r\n   .\r\n    ,      :\r\n1.     timeBetweenMeetings\r\n2.        minTimeToMakeProposals\r\n3.    timeToVote\r\n4.  .         .    \"  \"\r\n*/\r\n\r\n\r\ncontract Stocks {\r\n\r\n    struct Stockholder {\r\n        //    \r\n        uint32 stocksCount;\r\n        // ,       \r\n        uint256 sellPrice;\r\n        //  ,    \r\n        uint32 sellCount;\r\n        //       \r\n        bool voted;\r\n    }\r\n\r\n    //    \r\n    uint public constant timeBetweenMeetings = 3 minutes;\r\n    //       \r\n    uint public constant minTimeToMakeProposals = 2 minutes;\r\n    //   \r\n    uint public constant timeToVote = 2 minutes;\r\n\r\n    // \r\n    string public name;\r\n    //  \r\n    address public director;\r\n    //   \r\n    uint32 public stocksCount;\r\n    //    \r\n    uint public lastMeetingTime;\r\n    //     \r\n    bool public isMeeting;\r\n\r\n    //   =>   \r\n    mapping(address => Stockholder) public stockholders;\r\n    //   . ,         mapping\r\n    address[] public stockholderList;\r\n\r\n    //    ( 1 ) =>      + 1 (      )\r\n    mapping(uint256 => uint32) public dividendProposals;\r\n    //    . ,         mapping\r\n    uint256[] public proposedDividendSizes;\r\n\r\n    // ,   -,   \r\n    // _stocksCount   ,   \r\n    //      companySellOrder(),    \r\n    constructor(uint32 _stocksCount, string memory _name) {\r\n        director = msg.sender;\r\n        stocksCount = _stocksCount;\r\n        name = _name;\r\n        stockholders[address(this)].stocksCount = _stocksCount;\r\n        lastMeetingTime = block.timestamp;\r\n        stockholderList.push(address(this));\r\n    }\r\n\r\n    // modifier to check if caller is director\r\n    modifier isDirector() {\r\n        require(msg.sender == director, \"Caller is not director\");\r\n        _;\r\n    }\r\n\r\n    modifier isStockholder() {\r\n        require(stockholders[msg.sender].stocksCount != 0, \"Caller is not stockholder\");\r\n        _;\r\n    }\r\n\r\n    modifier notLargerThanBalance(uint256 amount) {\r\n        require(address(this).balance >= amount, \"Amount is larger than balance\");\r\n        _;\r\n    }\r\n\r\n\r\n    //     \r\n    //      \r\n    function deposit() public payable {}\r\n\r\n    //       targetAddress.      \r\n    //       ,        \r\n    function withdraw(address payable targetAddress) public isDirector {\r\n        require(!isMeeting, \"You can't withdraw funds during the meeting, because it can make dividends impossible to pay\");\r\n        targetAddress.transfer(address(this).balance);\r\n    }\r\n\r\n    //   amount   targetAddress   .      \r\n    //       ,        \r\n    function withdraw(address payable targetAddress, uint256 amount) public isDirector notLargerThanBalance(amount) {\r\n        require(!isMeeting, \"You can't withdraw funds during the meeting, because it can make dividends impossible to pay\");\r\n        targetAddress.transfer(amount);\r\n    }\r\n\r\n    //    \r\n    function sellOrder(uint256 sellPrice, uint32 sellCount) public {\r\n        require(stockholders[msg.sender].stocksCount >= sellCount, \"You are trying to create sell order for more stocks than you have\");\r\n        stockholders[msg.sender].sellPrice = sellPrice;\r\n        stockholders[msg.sender].sellCount = sellCount;\r\n    }\r\n\r\n    //     ,  .     \r\n    function companySellOrder(uint256 sellPrice, uint32 sellCount) public isDirector {\r\n        require(stockholders[address(this)].stocksCount >= sellCount, \"You are trying to create sell order for more stocks than the company has\");\r\n        stockholders[address(this)].sellPrice = sellPrice;\r\n        stockholders[address(this)].sellCount = sellCount;\r\n    }\r\n\r\n    //       \r\n    //       ,    .     \r\n    function buyStocks(address payable sellerStockholder, uint32 buyCount) public payable {\r\n        require(stockholders[sellerStockholder].sellCount >= buyCount, \"Attempted to buy more stocks than seller is willing to sell\");\r\n        require(msg.value >= stockholders[sellerStockholder].sellPrice * buyCount, \"You didn't send enough money to buy stocks\");\r\n        uint256 transactionValue = stockholders[sellerStockholder].sellPrice * buyCount;\r\n        stockholders[sellerStockholder].sellCount -= buyCount;\r\n        stockholders[sellerStockholder].stocksCount -= buyCount;\r\n        //      ,    \r\n        if (stockholders[sellerStockholder].stocksCount == 0) {\r\n            uint stockholderIndex = 0;\r\n            for (uint i = 0; i < stockholderList.length; i++)\r\n                if (stockholderList[i] == sellerStockholder) {\r\n                    stockholderIndex = i;\r\n                    break;\r\n                }\r\n            stockholderList[stockholderIndex] = stockholderList[stockholderList.length - 1];\r\n            delete stockholderList[stockholderList.length - 1];\r\n            stockholderList.pop();\r\n            delete stockholders[sellerStockholder];\r\n        }\r\n        if (stockholders[msg.sender].stocksCount == 0)\r\n            stockholderList.push(msg.sender);\r\n        stockholders[msg.sender].stocksCount += buyCount;\r\n        if (sellerStockholder != address(this))\r\n            sellerStockholder.transfer(transactionValue);\r\n        // \r\n        if (msg.sender != address(this))\r\n            payable(msg.sender).transfer(msg.value - transactionValue);\r\n    }\r\n\r\n    //     \r\n    function makeDividendsProposal(uint256 dividendSize) public isStockholder {\r\n        //     ,   ,    \r\n        if ((lastMeetingTime + timeBetweenMeetings + minTimeToMakeProposals < block.timestamp) && (proposedDividendSizes.length == 0))\r\n        //{\r\n        //    require(false, \"Test\");\r\n            lastMeetingTime = block.timestamp - timeBetweenMeetings - minTimeToMakeProposals;\r\n        //}\r\n        //else\r\n        require(lastMeetingTime + timeBetweenMeetings + minTimeToMakeProposals >= block.timestamp, \"Proposal time for this meeting has ended\");\r\n        require(lastMeetingTime + timeBetweenMeetings < block.timestamp, \"Meeting time hasn't come\");\r\n        require(dividendSize * stocksCount <= address(this).balance, \"Company doesn't have enough money to pay that large dividends\");\r\n        isMeeting = true;\r\n        //  ,      .     \r\n        dividendProposals[dividendSize] = 1;\r\n        proposedDividendSizes.push(dividendSize);\r\n    }\r\n\r\n    //    \r\n    //         \r\n    function vote(uint256 dividendSize) public isStockholder {\r\n        require(!stockholders[msg.sender].voted, \"You have already voted\");\r\n        require(dividendProposals[dividendSize] > 0, \"This dividend amount hasn't been proposed\");\r\n        require(lastMeetingTime + timeBetweenMeetings + minTimeToMakeProposals < block.timestamp, \"Voting time hasn't come\");\r\n        require(lastMeetingTime + timeBetweenMeetings + minTimeToMakeProposals + timeToVote >= block.timestamp, \"Voting time for this meeting has ended\");\r\n        stockholders[msg.sender].voted = true;\r\n        dividendProposals[dividendSize] += stockholders[msg.sender].stocksCount;\r\n    }\r\n\r\n    //    ,  \r\n    //     \r\n    function payDividends() public isStockholder {\r\n        require(lastMeetingTime + timeBetweenMeetings + minTimeToMakeProposals + timeToVote < block.timestamp, \"Dividends paying time hasn't come\");\r\n        require(isMeeting, \"Dividends can only be paid at the end of a meeting\");\r\n        uint32 max_votes = 0;\r\n        uint256 most_voted_dividends = 0;\r\n        for (uint i = 0; i < proposedDividendSizes.length; i++) {\r\n            if (dividendProposals[proposedDividendSizes[i]] > max_votes) {\r\n                max_votes = dividendProposals[proposedDividendSizes[i]];\r\n                most_voted_dividends = proposedDividendSizes[i];\r\n            }\r\n            delete dividendProposals[proposedDividendSizes[i]];\r\n        }\r\n        delete proposedDividendSizes;\r\n        for (uint i = 0; i < stockholderList.length; i++) {\r\n            stockholders[stockholderList[i]].voted = false;\r\n            if (stockholderList[i] != address(this))\r\n                payable(stockholderList[i]).transfer(most_voted_dividends * stockholders[stockholderList[i]].stocksCount);\r\n        }\r\n        lastMeetingTime = block.timestamp;\r\n        isMeeting = false;\r\n    }\r\n\r\n}\r\n",
  "sourcePath": "/Users/vitdub/WebstormProjects/auction-2/src/truffle/contracts/Stocks.sol",
  "compiler": {
    "name": "solc",
    "version": "0.8.13+commit.abaa5c0e.Emscripten.clang"
  },
  "schemaVersion": "3.4.11",
  "updatedAt": "2022-12-21T19:07:47.719Z",
  "devdoc": {
    "kind": "dev",
    "methods": {},
    "version": 1
  },
  "userdoc": {
    "kind": "user",
    "methods": {},
    "version": 1
  }
}